:020000040800F2
:10000000B0720020C101000895C90008959A000847
:1000100091C90008CD120008132501080000000056
:100020000000000000000000000000002DF60008A5
:10003000912D0008000000004DCC0008FDF80008DC
:10004000DB010008DB010008DB010008DB01000820
:10005000DB010008DB010008DB010008DB01000810
:10006000DB010008DB010008DB010008DB01000800
:10007000DB010008DB010008DB010008DB010008F0
:10008000DB010008DB010008DB010008DB010008E0
:10009000DB010008DB010008DB010008DB010008D0
:1000A000DB010008DB010008DB010008DB010008C0
:1000B000DB010008DB010008DB010008DB010008B0
:1000C000DB010008DB010008DB010008DB010008A0
:1000D000DB010008D10D0108DB010008DB0100088D
:1000E000DB010008DB010008DB010008DB01000880
:1000F000DB010008DB010008DB010008DB01000870
:10010000DB010008DB010008DB010008DB0100085F
:10011000DB010008DB010008D5F900085DFB0008E1
:10012000DB010008DB010008DB010008DB0100083F
:10013000DB010008DB010008DB010008DB0100082F
:10014000DB010008DB010008DB01000881CB0008AF
:10015000DB010008DB010008DB010008DB0100080F
:10016000DB010008DB010008A1CB000891CB0008EF
:10017000DB010008B1CB0008DB010008DB0100084F
:10018000DB010008DB010008DB010008DB010008DF
:10019000DB010008DB010008DB010008DB010008CF
:1001A000DB010008DB010008DB010008DFF80CD0F0
:1001B00000F000FC0048004729460108B07200200A
:1001C0000648804706480047FEE7FEE7FEE7FEE7F1
:1001D000FEE7FEE7FEE7FEE7FEE7FEE76DF9000853
:1001E000AD010008D2B201E000F8012B491EFBD29C
:1001F00070470022F6E710B513460A460446194632
:10020000FFF7F0FF204610BD421E12F8013F002B01
:10021000FBD111F8013B02F8013B002BF9D17047EB
:1002200010B5044604E00B7800F8013B03B1491C0B
:10023000521EF8D2204610BD10B5002200E0521C1C
:10024000835C8C5CA34201D1002BF8D1D8B2E1B21F
:10025000401A10BD034611F8012B00F8012B002AAB
:10026000F9D11846704770B5064612F0B5FA046821
:1002700005460A220021304600F030FA2C6070BD9D
:100280002DE9FE4F804681EA0300C00F0C46009026
:1002900021F0004123F00045B8EB0200A94105D24E
:1002A0004046214690461C460B46024623F000403D
:1002B000104347D0270DC7F30A00C3F30A51029039
:1002C000401A019040286BDAC3F3130040F4801BFE
:1002D0000098924620B10023D2EB030A63EB0B0B8C
:1002E00001985946C0F14002504600F077F90646A1
:1002F0000D4650465946019A00F08FF910EB080060
:100300006141002487EA115284EAE7731A4340D01E
:10031000009A62B3019A012A4FEA075215DC001BCA
:1003200061EB02014FF0004202EA0752CDE90042C0
:10033000001C41F5801132462B4600F04DFA03B007
:10034000BDE8F08F40462146F9E7001B61EB020152
:10035000001C41F5801300185B412018A2F500171E
:1003600047EB030140EAD570B6196D4111E06D0805
:100370004FEA360645EAC0754FEA0752001B61EBAB
:100380000201001C41F5801149084FEA30000019B4
:10039000514132462B4603B0BDE8F04F00F00DBA94
:1003A0000098012240000023D0EB020263EBE073CF
:1003B000009821464FEAE074B8EB000061EB0401BD
:1003C000E9E783F000435BE781F0004158E72DE95E
:1003D000FE4F81EA030404F0004421F00041009440
:1003E0004FF0000B23F0004350EA01045ED052EAC4
:1003F00003045BD0C3F30A54C1F30A552C44A4F29E
:10040000F3340194A0FB0254C1F3130141F48011B1
:10041000C3F3130343F4801301FB024400FB034EB8
:10042000840A970A44EA815447EA8357A4FB076881
:1004300002958D0A05FB07854FEA932C04FB0C54AB
:100440002705029D4FEA065847EA1637B5EB08051F
:100450006EEB070C870E920E47EA811742EA831271
:10046000A7FB0201B6EB0B0164EB00042B0D43EA82
:100470000C335E1844EB1C50DA465146E7FB020190
:10048000C5F313044FEA0B3343EA14534FEA043223
:10049000019C43EA0603A4F10C040294009CCDE9FC
:1004A00000B400F099F903B0BDE8F08F00200146D8
:1004B000F9E770B5C1F30A5201F000450024C1F319
:1004C000130140F2FF3341F480119A4201DA002017
:1004D00070BD40F233439A42A2F2334203DC5242EF
:1004E00000F08BF800E090402C43F1D0404270BD0A
:1004F00000F0004230F000400AD0C10D01F56071FB
:10050000C0F3160042EA0151C20840071143704788
:1005100000200146704701F0004330B421F0004153
:1005200050EA010206D00A0DA2F56072C1F3130170
:10053000002A02DC30BC00207047440F44EAC104AA
:10054000C100E01830BC00EBC25000F0FFB830B57D
:100550000B46014600202022012409E021FA02F581
:100560009D4205D303FA02F5491B04FA02F528441B
:10057000151EA2F10102F1DC30BD2DE9F05F054648
:10058000002092469B4688460646814640241BE052
:10059000284641464746224600F02FF853465A4621
:1005A000C01A914110D311461846224600F016F8A1
:1005B0002D1A67EB01084F4622460120002100F06A
:1005C0000DF817EB00094E41201EA4F10104DFDCF9
:1005D000484631462A464346BDE8F09F202A04DBC0
:1005E000203A00FA02F1002070479140C2F1200346
:1005F00020FA03F3194390407047202A04DB203A85
:1006000021FA02F00021704721FA02F3D040C2F132
:1006100020029140084319467047202A06DBCB1779
:10062000203A41FA02F043EAE07306E041FA02F3AD
:10063000D040C2F1200291400843194670470000A3
:100640000FB4002300B589B00CA900910B996FF08D
:100650000042CB601E4B06931E4B07930423CDE94B
:1006600001321D4A089202466B46002000F056FAFD
:1006700009B05DF814FB70B586B006464FF0FF3048
:100680000091CDE90101002015460C460490324648
:10069000694604A8FFF7D4FF02460498211825B143
:1006A00008B1084600E020462860049800280DD0D4
:1006B000002A02DD0098884208D0081B0094CDE98A
:1006C00001043246694604A8FFF7BAFF06B070BDC0
:1006D000550D0008730D0008E10900082DE9F047E9
:1006E00091460F4680460446002614F8015B2DB162
:1006F00000F072F90068405DC007F6D12B2D02D0E2
:100700002D2D18D0641E4A463946204600F042FB83
:1007100027B13968A14201D1C7F8008071054FF0B7
:1007200002040BD54042002803DD12F055F80460A6
:10073000A007BDE8F08746F48066E4E70028F8DA11
:1007400012F04AF804606FF00040F2E70029A8BFF9
:100750007047401C490008BF20F00100704710B4EA
:10076000B0FA80FC00FA0CF050EA010404BF10BC9F
:10077000704749B1CCF1200421FA04F411FA0CF1CC
:1007800018BF012121430843A3EB0C01CB1D4FEA05
:1007900000614FEA102042BF002010BC704700EB00
:1007A000C35010440029A4BF10BC7047401C49002E
:1007B00008BF20F0010010BC704710B5141E73F183
:1007C000000408DA401C41F1000192185B411A4311
:1007D00001D120F0010010BD2DE9F04D92469B465D
:1007E00011B1B1FA81F202E0B0FA80F22032904603
:1007F000FFF7F4FE04460F4640EA0A0041EA0B0107
:1008000053465A46084313D0114653EA010019D003
:10081000C8F140025046FFF7F0FE05460E4650462E
:1008200059464246FFF7DAFE084305D0012004E0AE
:1008300020463946BDE8F08D0020054346EAE076C3
:100840002C4337430A986305E40AA0EB0800002212
:10085000FD0A44EA47540A3002D500200146E9E780
:10086000010510196941DDE9084500196941BDE834
:10087000F04DA2E72DE9F04D81EA030404F0004BAE
:1008800021F0004514464FF0000A23F0004150EAE1
:10089000050220D054EA01021DD0C5F30A570246D2
:1008A000C5F31303C1F31300C1F30A5640F48015D6
:1008B00043F48013A7EB0608101BD64608F2FD3858
:1008C00073EB050002D308F1010801E092185B41C7
:1008D000B8F1000F03DA00200146BDE8F08D0020DA
:1008E0004FF48011064684460EE0171B73EB050794
:1008F00005D3121B63EB050306434CEA010C4908C0
:100900004FEA300092185B4150EA0107EDD152EAFC
:10091000030012D082EA040083EA0501084305D0EF
:10092000101BAB4106D20122002306E000224FF04B
:10093000004302E06FF0010253101AEB06004CEB8B
:10094000085110EB0A0041EB0B01BDE8F04DFFF739
:1009500034BFC1F30A52C1F3130140F2FF3341F433
:1009600080119A4202DA00200146704740F2334378
:100970009A42A2F2334202DC5242FFF73EBEFFF738
:100980002DBE000030B5041E71F1000404DB4FF0F1
:100990000044404264EB0101141E73F1000405DBC6
:1009A0001C464FF00043524263EB0403994208BFD8
:1009B000904230BD064C074D06E0E06840F0010370
:1009C00094E8070098471034AC42F6D3FFF7F2FBE7
:1009D00090320608B0320608004870478C3206088C
:1009E00010B50446FFF7F8FF0068005D00F0010055
:1009F00010BD00002DE9FF4F087883B09946FF280D
:100A000005D0491C2D2804D00024002008E0002037
:100A10000BE00124F9E700EB800003EB4000491CE8
:100A20000B78FF2BF7D104B14042002302931478D6
:100A300019461D462D2C01D02B2C04D1521C2D2CD7
:100A400013D000240294AA461478FF2C0FD00A2554
:100A5000A3FB057801FB05814FF0000C03FB0C1193
:100A6000521CE3194AEB0101EEE70124EAE7814455
:100A700053EA010002D019F5C87F06DA0398002175
:100A8000C0E9001107B0BDE8F08F0025AE4E2F463B
:100A9000DFF8B882184600F0DAF9CDE90001B9F1C3
:100AA000000002DAC9F1000400E004460023A74A6E
:100AB0001AEB030B42EB045A12E0E00707D02A4678
:100AC000334638464146FFF782FC074688462A46A9
:100AD000334610461946FFF77AFC05460E46641069
:100AE000002CEAD1DDE90001B9F1000F5A46534666
:100AF00006DAFFF7BFFE3A464346FFF7BBFE05E0C6
:100B0000FFF765FC3A464346FFF761FC029A0AB1DB
:100B100081F00041039AC2E90001B3E72DE9FF4FDC
:100B20001F468DB0D7E901464FF0FF382E204546CD
:100B30004FF000090B90B9696D1C0E988847396A0F
:100B4000824688470028F6D1BAF1FF3F0AD024F444
:100B5000D064002E11DDBAF12B0F08D0BAF12D0FA1
:100B60000BD102E0404611B08DE744F48064B969CE
:100B70006D1C0E9888478246761E6946600501D531
:100B80002D2000E02B208DF8000001F1010B0DF16C
:100B9000200809E0B9696D1C0E98884782460F98B5
:100BA00044F40074761E0560002E02DDBAF1300FA9
:100BB000F0D00B998A453ED144F0800406E00F99AD
:100BC000681CA9F1010944F400740860B9696D1C3E
:100BD000761E0E98884782463028F0D02BE00B997D
:100BE0008A4505D1200603D444F08004761E18E01F
:100BF000504611F0EFFE08B30DF11301761E44F4D8
:100C000000748B4508D2AAF130000BF8010B2006C6
:100C100007D5A9F1010003E0200602D409F1010083
:100C20008146A00502D50F99681C0860B9696D1C42
:100C30000E9888478246002ED1DC53E0002E51DD0D
:100C4000BAF1650F02D0BAF1450F4BD1A00549D5D5
:100C5000B9696D1C24F44074761E0E98884782464C
:100C6000002E0CDD2B2804D0BAF12D0F07D144F44F
:100C70008074B9696D1C0E9888478246761EE0051F
:100C800001D52D2100E02B2108F8011BCDF82C8087
:100C900021E00DF12901761E44F4007488450CD240
:100CA000AAF1300010F0FF0088F8000002D10B9983
:100CB000884509D908F1010806E0E00501D5244876
:100CC00001E042F20F708146B9696D1C0E988847A9
:100CD00082460F980560002E04DD504611F07AFE22
:100CE0000028D6D1F9690E988847FF208BF80000BC
:100CF00088F800000020069007904B466A4608A935
:100D000006A8FFF777FEA00502D46FF001002AE7DE
:100D100014F0240F0AD0E00714D1DDE90612386878
:100D2000031D3B600068C0E900120BE0DDE906012D
:100D3000FFF7F1FB0146E00704D13868021D3A6075
:100D40000068016028460EE7000014400000F03FF4
:100D5000F1D8FFFF426842B1016811F8013B23B1AD
:100D6000521EC0E90012184670470121C160881E5A
:100D7000704742685AB1C368016843B983688B42BF
:100D800005D0491E521CC0E90012002070474FF0E8
:100D9000FF3070472DE9F05F824600780027154646
:100DA0008B460AF10104B946302801D09DB113E009
:100DB00014F8010B0127782803D0582801D045B139
:100DC0000AE00DB1102D07D10027102514F8010BF2
:100DD00002E0082500E00A250026B0460EE005FBEB
:100DE000080005FB06F1012701EB10461FFA80F809
:100DF000B6F5803F00D3B94614F8010B294600F040
:100E000018F80028EBDABBF1000F05D00FB1641E13
:100E100000E05446CBF80040B9F1000F06D011F0C5
:100E2000DBFC02210160C81EBDE8F09F48EA0640D5
:100E3000FAE73A2800D2303820F02002412A01D3C4
:100E4000A2F13700884201D34FF0FF3070470EB552
:100E500040F2334202920022CDE900221346FFF70E
:100E6000BBFC03B000BD70B58C1810F8015B15F029
:100E7000070301D110F8013B2A1106D110F8012B0C
:100E800003E010F8016B01F8016B5B1EF9D12B0731
:100E900005D40023521E0DD401F8013BFAE710F8E7
:100EA000013BCB1A921C03E013F8015B01F8015BD4
:100EB000521EF9D5A142D8D3002070BD10B51448F8
:100EC000007808281ED11348007853381249097851
:100ED00000EBC100C4B29FED110A114800EB840081
:100EE00080ED000A0E4901EB8401D1ED000AB0EE5D
:100EF000600A084909785239C8B213F06BFD0EF048
:100F000097FB02E007F0B2F800BF00BF10BD000081
:100F10004A0100204B010020500100200000000089
:100F2000106C002021B1826842F00102826003E06F
:100F3000826822F001028260704700000021084AA6
:100F40001168084A1140D0E900231A4383681A4304
:100F5000C3681A431143044AC2F8041370470000DF
:100F600004230140E030FCFF0020014021B18268F1
:100F700042F48072826003E0826822F480728260B0
:100F8000704721B1826842F40072826003E0826897
:100F900022F40072826070471CB501211E200BF004
:100FA0007DFE8E20009002208DF8050001208DF836
:100FB000040000208DF8060001208DF80700694626
:100FC0000F4808F0DDFC0E210D4808F04FFD4FF4EE
:100FD0004060009069460B4808F0D2FC00208DF874
:100FE00004008DF80700802000906946064808F04C
:100FF000C7FC0C2000906946044808F0C1FC1CBDE9
:101000000008024000040240000C024000100240B0
:1010100030B50246002000235068104C20400D7966
:101020000C6844EA05242043506090680C4C204032
:10103000D1E903542C438D682C434D7944EA45048F
:1010400020439060D06A20F470000C7D641EE4B2EE
:10105000234340EA0350D06230BD0000FFFEFFFC96
:10106000FDF7FFC0F0B504460D4600200021092D14
:1010700011DDE068A5F10A0606EB4607072606FA29
:1010800007F18843A5F10A0606EB460603FA06F1C6
:101090000843E0600CE0206905EB4507072606FAE7
:1010A00007F1884305EB450603FA06F10843206182
:1010B000072A0FDA606B561E06EB86071F2606FA14
:1010C00007F18843561E06EB860605FA06F108432B
:1010D000606322E00D2A0FDA206BD61F06EB86072D
:1010E0001F2606FA07F18843D61F06EB860605FA87
:1010F00006F10843206310E0E06AA2F10D0606EB5A
:1011000086071F2606FA07F18843A2F10D0606EBB3
:10111000860605FA06F10843E062F0BD816841F0F9
:10112000804181607047000070B500244FF48061F9
:10113000234808F099FC012012F0D6FE0021192066
:1011400011F0E9F9012012F0CFFE00200EF06EFB45
:1011500005464FF480611A4808F088FC05F08005C8
:1011600015BB4FF48061164808F07EFC01200EF09C
:1011700091FB4FF48061124808F076FC4FF48061D7
:101180000F4808F071FC01200EF050FB04462402C9
:1011900001200EF04BFB0443240201200EF046FB1D
:1011A00004430120074908704FF48061044808F0A7
:1011B0005DFCB4F57F0F01DD44F07F44204670BD37
:1011C00000040240F20100201CB5012108460BF08A
:1011D00065FD032000908DF8040000208DF80700C5
:1011E0006946024808F0CCFB1CBD0000000002402C
:1011F00010B5254800780D2843D2DFE800F04213EF
:1012000042421A070A100D424242290012F010FE13
:1012100037E012F00DFE34E012F00AFE31E012F079
:1012200007FE2EE019480078332801D112F000FEA5
:1012300027E0164800785F2807D014480078602817
:1012400003D0124800785E2801D112F0F1FD18E0B9
:101250000E480078632806D0642807D065280BD094
:1012600067280CD105E012F0E3FD08E012F0E0FD84
:1012700005E012F0DDFD02E012F0DAFD00BF00BF74
:1012800000BF00BF10BD00004A0100204B0100203C
:101290001CB5012108020BF001FD20200090012067
:1012A0008DF8040000208DF8060001208DF807005D
:1012B00000208DF805006946034808F061FB2021F5
:1012C000014808F0D1FB1CBD0020024000BFFEE732
:1012D00010B52021054808F0C9FB40F2FF5001F08D
:1012E00058FD2021014808F0BFFB10BD002002403E
:1012F00000B587B0012181200BF0D0FC012108034B
:101300000BF00CFD05221146334808F081FB052245
:101310000621314808F07CFB052207212E4808F001
:1013200077FB2020059002208DF819008DF8180019
:1013300000208DF81A008DF81B0005A9264808F03A
:101340001FFB4020059005A9234808F019FB8020C9
:10135000059005A9204808F013FB102005900120F6
:101360008DF8180000208DF81A0005A91A4808F019
:1013700007FB2020059000208DF8180001208DF833
:101380001B0005A9154808F0FBFA0020ADF8000085
:101390004FF48270ADF802000020ADF80400022086
:1013A000ADF806000120ADF808004002ADF80A00D3
:1013B0003820ADF80C000020ADF80E000720ADF885
:1013C0001000694606480EF097F8012104480DF018
:1013D0002DFE07B000BD000000000240001C0240CE
:1013E0000030014010B52DED048B84B0B0EE408A82
:1013F000BDEEC80A10EE100A002801DB014600E02D
:1014000041420A2291FBF2F10CB2882108460AF00F
:1014100043FB1F238A22D221C82009F093FF6FF0DB
:101420007F400AF05FFB88200AF030FB44BBB5EE3A
:10143000C08AF1EE10FA11DB18EE100AFFF758F827
:1014400041EC190B53EC192B4AA101A811F0B0F98A
:1014500001AAFB21D22009F05FFD81E018EE100AFD
:10146000FFF746F841EC190B53EC192B41A101A8E9
:1014700011F09EF901AAEB21D22009F04DFD6FE099
:10148000012C2ADB0A2C28DAB5EEC08AF1EE10FA1C
:1014900011DB18EE100AFFF72BF841EC190B53EC97
:1014A000192B34A101A811F083F901AAEB21D22054
:1014B00009F032FD54E018EE100AFFF719F841EC7C
:1014C000190B53EC192B2BA101A811F071F901AAEA
:1014D000DB21D22009F020FD42E00A2C2ADB642C1B
:1014E00028DAB5EEC08AF1EE10FA11DB18EE100A18
:1014F000FEF7FEFF41EC190B53EC192B1DA101A8BF
:1015000011F056F901AADB21D22009F005FD27E0F0
:1015100018EE100AFEF7ECFF41EC190B53EC192BF7
:1015200014A101A811F044F901AACB21D22009F09D
:10153000F3FC15E0642C13DBB4F57A7F10DA18EEB7
:10154000100AFEF7D5FF41EC190B53EC192B09A13A
:1015500001A811F02DF901AACB21D22009F0DCFC61
:1015600006A24FF4B471D22009F0D6FC04B0BDEC51
:10157000048B10BD252E3166000000006D532F63D3
:101580006D00000070B506460C4604F0800080280F
:1015900008D104F07F0000EB800106F58E7000EBAF
:1015A000C10505E004EB840106F55D7000EBC105A3
:1015B0000020A87004F07F002870C4F3C010687089
:1015C0002946304610F0A4FD002070BD2DE9F04101
:1015D00006460D4690461F4605F08000802808D13B
:1015E00005F07F0000EB800106F58E7000EBC10472
:1015F00007E005F07F0000EB800106F55D7000EB71
:10160000C10405F07F00207005F08000C009607003
:10161000C4F80880E770607808B12078E080022F75
:1016200001D1002020712146304610F019FD002024
:10163000BDE8F0812DE9F04105460E461746984673
:1016400006F07F0000EB800105F55D7000EBC10442
:10165000E760C4F814800020A061607006F07F008D
:101660002070E878012800D12761207820B9214630
:10167000284610F019FC03E02146284610F0A2FD90
:101680000020BDE8F08108B500220092009A61F3C5
:101690000A12009202691268009B1A4303691A60D9
:1016A00008BD70B506460C4604F08000802808D1BD
:1016B00004F07F0000EB800106F58E7000EBC105A1
:1016C00005E004EB840106F55D7000EBC105012027
:1016D000A87004F07F002870C4F3C0106870294619
:1016E000304610F03DFD002070BD2DE9F041074669
:1016F0000D461646984605F07F0000EB800107F581
:101700008E7000EBC1040120607005F07F00207036
:10171000E66026610020A061C4F81480207820B91A
:101720002146384610F0C0FB03E02146384610F051
:1017300049FD0020BDE8F0811CB50446204610F0AC
:101740007EFBE068C0680090204610F061FE032830
:101750000BD10020A0704FF40070A080009820F4FE
:10176000705000F51050009009E00120A07040205A
:10177000A080009820F4705000F5A05000900098D0
:10178000E168C86000200190019820F4005000F545
:10179000005001900198E168486101201CBD0000E3
:1017A000F8B50546002400200090284610F063FE9E
:1017B000064690E006F0010000287DD0E1B2284600
:1017C00000F0D0FA0090009800F0010030B3012042
:1017D00000FA04F72869406BB84329694863002080
:1017E0000090009820F00100401C009005F11800C6
:1017F00050F8240000998160E1B2394800684268DD
:1018000028469047E878012808D13CB940F21110E9
:10181000405D042802D1284610F0F1FB0098C0F387
:10182000C00060B100200090009820F0080008304F
:10183000009005F1180050F824000099816000988C
:10184000C0F3001060B100200090009820F010005C
:101850001030009005F1180050F8240000998160C4
:101860000098C0F3801060B100200090009820F034
:1018700040004030009005F1180050F82400009915
:1018800081600098C0F3400060B100200090009893
:1018900020F00200801C009005F1180050F8240090
:1018A000009981600098C0F3C01028B121462846F5
:1018B00000F082FA002000E00BE00090009820F099
:1018C00080008030009005F1180050F82400009945
:1018D0008160641C7608002E7FF46CAF0120F8BD97
:1018E000B00200207CB5044600250020019020466F
:1018F00010F0C9FD06466FE006F00100002869D02F
:10190000E9B2204610F0C7FD0190019800F00100F7
:10191000C8B300200190019820F00100401C019004
:1019200004F1540050F8250001998160E078012805
:1019300017D104F1540050F825000069009005EB20
:10194000850104F55D7000EBC10080680099C1F36A
:101950001201411A05EB850204F55D7000EBC2002F
:101960008161E9B21E480068026820469047E0782D
:10197000012808D13DB940F21110005D052802D1BF
:10198000204610F03CFB0198C0F3400060B10020FD
:101990000190019820F00200801C019004F1540095
:1019A00050F82500019981600198C0F3C00088B10A
:1019B0000B48006881682046884700200190019804
:1019C00020F008000830019004F1540050F8250080
:1019D000019981606D1C7608002E8DD101207CBD9F
:1019E000B00200203EB50446A07A70B1D4F80C01D4
:1019F0000090009820F002000090009820F0010074
:101A000000900099D4F80C01016000200190019829
:101A100020F00100401C0190206940680199884332
:101A2000216948600848006881692046884700208D
:101A30000290029820F0004000F1004002900298CD
:101A4000E168486101203EBDB00200207CB504463B
:101A500000200190019820F0100010300190E06803
:101A6000806901998843E1688861E068006A0090B4
:101A7000009800F00F0000EB800104F55D7000EBB2
:101A8000C1050098C0F3434007282DD2DFE800F0DD
:101A90002C04051D1E2C1F0027E00098C0F30A101F
:101AA00090B10098C0F30A122046E96810F0FDFCDE
:101AB000E8680099C1F30A110844E860A869009930
:101AC000C1F30A110844A8610FE00EE00DE00822FE
:101AD00004F2CC51204610F0E8FCA8690099C1F34B
:101AE0000A110844A86100E000BF00BFE0688069F7
:101AF00001990843E168886101207CBD38B504463E
:101B000008480068C1682046884700200090009877
:101B100020F00800083000900098E168486101203A
:101B200038BD0000B00200201FB504460020009020
:101B30004FF48970005D0090234800684169204699
:101B4000884720698068019000200390039820F462
:101B5000006000F5006003900398E1684861A07A96
:101B600070B3019800F0010050B340F21510005D11
:101B7000012825D19DF80000032821D100200290E2
:101B8000029820F00100401C0290D4F80C0100687B
:101B900002990843D4F80C110860029820F0020062
:101BA000801C0290D4F80C01006802990843D4F814
:101BB0000C1108600548006840F006000349086001
:101BC000012004B010BD0000B002002010ED00E0C4
:101BD00030B587B00446002002900690059004902E
:101BE00003900190029820F00100401C02902069AF
:101BF000406802998843216948600021204610F01E
:101C0000DDFB00250BE0FF2104F1180050F8250052
:101C1000816004F1540050F8250081606D1C6078EB
:101C2000A842F0D84FF0FF312069816106986FF328
:101C30000F00401C0690069880B200F58030069098
:101C400006992069C161059820F0080008300590C8
:101C5000059820F00100401C0590059820F0020036
:101C6000801C059005992069416105992069C0F89B
:101C70008410049820F00100401C0490049820F087
:101C8000080008300490049820F00200801C0490A2
:101C90000499206901610499206941642069006800
:101CA0000390039820F4FE6003900399206901607B
:101CB000204610F0A4F900200190019820F48050F3
:101CC00000F5805001900198E16848610348006880
:101CD000016920468847012007B030BDB0020020CE
:101CE00038B504460020009007480068C1692046C6
:101CF0008847009820F4801000F58010009000982C
:101D0000E1684861012038BDB002002038B50446C2
:101D10000020009007480068016A20468847009824
:101D200020F4001000F5001000900098E168486170
:101D3000012038BDB002002038B50446E068406894
:101D400000900098C0F3800020B105480068816AC7
:101D5000204688470098E1684860012038BD0000AF
:101D6000B002002030B5024615692B6915696C6B0D
:101D700024FA01F505F0010543EAC51302F118053F
:101D800055F82150AD6805EA030030BD38B504466A
:101D900008480068416A2046884700200090009863
:101DA00020F0804000F1804000900098E168486198
:101DB000012038BDB00200202DE9F84306460F4649
:101DC00000250020009007EB870106F58E7000EBE0
:101DD000C104D4E90501451AA068A84200D2A5684B
:101DE000E81C4FEA900806F1180050F827008069B7
:101DF000009029E0D4E90501451AA068A84200D264
:101E0000A568E81C4FEA9008ABB2FAB23046E16828
:101E100010F05FFBE0682844E060A0692844A061FE
:101E2000D4E90510884209D32278012101FA02F091
:101E30003169496B81433269516310E006F1180042
:101E400050F8270080690090009880B2404506D97C
:101E5000D4E90510884202D260690028CAD100BFC7
:101E60000120BDE8F8830000F0B507460E46144691
:101E7000354620E0207880280EDA1B4809F016FE4F
:101E800022782946384608F0F1FF18480068808813
:101E9000284485B2641C0EE0154809F007FE22466E
:101EA0002946384600F026F8104800688088284403
:101EB00085B2641C641CB5F5207F14DA0B480068F9
:101EC0008088284480B2094909688988884201DBF2
:101ED000012000E00020217809B1012100E000216B
:101EE00008400028C6D1F0BDB00000207C000020D2
:101EF000380100202DE9F0410746884616460024A7
:101F0000164D20E03078C4EBC40101EB410115F817
:101F10001110884214D17078C4EBC40101EB410167
:101F200005EB4101497888420AD1C4EBC40000EBBB
:101F3000400005EB4000821C4146384609F074F928
:101F4000601C84B200BFC4EBC40000EB400015F875
:101F500010008028D6DC00BFBDE8F081473D0208B4
:101F6000F0B507460E461446354620E02078802816
:101F70000EDA1B4809F09AFD22782946384608F007
:101F800075FF184800688088284485B2641C0EE0FC
:101F9000154809F08BFD22462946384600F026F800
:101FA000104800688088284485B2641C641CB5F51C
:101FB000207F14DA0B4800688088284480B20949E1
:101FC00009688988884201DB012000E0002021782F
:101FD00009B1012100E0002108400028C6D1F0BD70
:101FE000E80000207C000020280100202DE9F041BD
:101FF0000746884616460024144D1DE0307804EB51
:102000008401C1EB8411695C884212D1707804EBC1
:102010008401C1EB841129444978884209D104EB39
:102020008400C0EB84102844821C4146384609F0E5
:10203000FBF8601C84B200BF04EB8400C0EB84108A
:10204000285C8028DADC00BFBDE8F081502202085D
:10205000F0B507460E461446354620E02078802825
:102060000EDA1B4809F022FD22782946384608F08E
:10207000FDFE184800688088284485B2641C0EE084
:10208000154809F013FD224629463846FFF7AEFFF2
:10209000104800688088284485B2641C641CB5F52B
:1020A000207F14DA0B4800688088284480B20949F0
:1020B00009688988884201DB012000E0002021783E
:1020C00009B1012100E0002108400028C6D1F0BD7F
:1020D000F00000207C0000202801002010B5012124
:1020E000C8050AF0EBFD00214FF400000AF0E6FD00
:1020F00010BD000001460020034A52680A400AB1A0
:10210000012000E00020704700B0024070B50021BF
:10211000002200230024344D2D68344E3540324EC9
:10212000356035462D68066835432F4E3560354697
:102130006D6B25F00705756335466D6B4668354355
:10214000294E7563456835B9C5682902058A2A0490
:10215000057D2B0621E04568012D05D1C5682902C2
:10216000058A2A04002318E04568022D05D1C568B8
:1021700069010569EA0200230FE04568032D06D1D5
:10218000C56869010569AA024569EB0305E0C568F0
:10219000290105692A0245692B0341EA020586687F
:1021A00035431D43104EB66B35430F4EB5638569FD
:1021B000F56335462D6C6FF30D05356435462D6C92
:1021C000C6693543084E3564858C2C0435466D6CE4
:1021D00005F04045756435466D6C066A2643354307
:1021E000014E756470BD000000B00240FCE0FCFFD1
:1021F0000348006840F00100014908607047000092
:1022000000B0024021B1026842F00102026003E026
:10221000026822F0010202607047000010B500223F
:102220000268134B1A40CC680B6823434C69234364
:102230008C692343CC6923430C6A23434C6A2343B0
:102240008C6A23434C6B23438C6B23431A430260F9
:10225000426922F00702D1E90B3423431A43426159
:102260000B6943604B6883608B68C36010BD0000DE
:102270003F801CF010B520480078001F092839D293
:10228000DFE800F0110509380D38383821001BA0AF
:1022900012F0B2F82EE019A012F0AEF82AE017A062
:1022A00012F0AAF826E0164800785F2807D01448F4
:1022B0000078602803D0124800785E2802D10FA071
:1022C00012F09AF816E00E480078632804D06428CB
:1022D00006D067280CD107E008A012F08DF807E0BF
:1022E00006A012F089F803E004A012F085F800BF00
:1022F00000BF00BF00BF10BD4A0100202E0000003B
:102300004B01002010B50024FE4800780C280AD0AC
:1023100004DC01287ED004287DD1ECE00D287BD0A0
:102320000E28F9D16DE3F84800786238052837D2D5
:10233000DFE800F003374D60A00011F0DBFFF34849
:1023400090F8300080B9F14890F83900012805D1A3
:10235000EFA2D221362008F0DFFD15E0EEA2D22157
:10236000362008F0D9FD0FE0E84890F83900012840
:1023700005D1EBA2D221322008F0CEFD04E0E9A283
:10238000D221322008F0C8FD11F0ECFFE648D0ED74
:10239000280AB0EE600A14F0C1FD6320DA49087023
:1023A000A7E011F0A7FFE048D0ED280AB0EE600AE0
:1023B00014F004FD11F0D6FFDB48D0ED290AB0EE91
:1023C000600A14F059FF6420CF49087091E011F0C1
:1023D00091FFD548D0ED290AB0EE600A14F06CFEEA
:1023E00011F0C0FFD149886911F0E4FD6520C649AC
:1023F00008707EE011F07EFFCC49886911F080FD05
:1024000011F0B0FFC14890F83000A0B9BF4890F873
:102410003A0002E0C0E3CEE2CEE2012805D1BCA240
:10242000D221D62008F078FD15E0BBA2D221D6201B
:1024300008F072FD0FE0B54890F83A00012805D188
:10244000B7A2D221084608F067FD04E0B5A2D22168
:10245000084608F061FDAD4890F8300018B9B4A006
:1024600001F05AFC02E0B5A001F056FC6620A64936
:1024700008703EE011F03EFFA44890F8300080B9AB
:10248000A24890F83A00012805D1A1A2D221D62075
:1024900008F042FD15E0A0A2D221D62008F03CFDB4
:1024A0000FE09A4890F83A00012805D19CA2D22169
:1024B000084608F031FD04E09AA2D221084608F04F
:1024C0002BFD11F04FFF9848D0ED2A0AB0EE600ABC
:1024D00011F0C6FB8D4890F8300018B99CA001F0AF
:1024E0001BFC02E09EA001F017FC672086490870E3
:1024F00000BF00BF5FE2844800782C2806D02D285A
:102500005DD02E2871D0312858D1CDE111F0F2FEE6
:102510007E4890F82C0078B97C4890F8300028B9B3
:102520007DA29621322008F0F7FC14E07DA29621CE
:10253000322008F0F1FC0EE0744890F8300028B921
:1025400073A29621322008F0E7FC04E074A29621E1
:10255000322008F0E1FC11F005FF6C4890F82A00E9
:1025600078B96A4890F8300028B96BA296215A20B1
:1025700008F0D2FC14E06BA296215A2008F0CCFCA3
:102580000EE0624890F8300028B961A296215A20E6
:1025900008F0C2FC04E062A296215A2008F0BCFCBC
:1025A0005A4890F8300018B971A001F0B5FB02E06C
:1025B00072A001F0B1FB2D2053490870FAE111F02F
:1025C00099FE524890F82A0080B9504890F830009F
:1025D00028B951A296215A2008F09EFC15E051A27C
:1025E00096215A2008F098FC0FE0FDE0474890F84B
:1025F000300028B946A296215A2008F08DFC04E04C
:1026000047A296215A2008F087FC6049084609F045
:1026100043FA3E4890F83000D8BB3C4890F82B0075
:1026200005280ED11F2360227F21962008F08AFE04
:10263000002009F057FA56A29621822008F06CFC7F
:102640005EE0324890F82B0001280ED11F23602253
:102650007F21962008F076FE002009F043FA4FA271
:102660009621822008F058FC4AE01F2378227F211F
:10267000962008F067FE002009F034FA4AA296215D
:10268000822008F049FC4AA2E1217F2008F044FCA6
:1026900036E0FFE71D4890F82B0005280ED11F23D8
:1026A00040227F21962008F04DFE002009F01AFA02
:1026B00040A296217F2008F02FFC21E0134890F8DB
:1026C0002B0001280ED11F2340227F21962008F0E5
:1026D00039FE002009F006FA38A296217F2008F082
:1026E0001BFC0DE01F2350227F21962008F02AFEBC
:1026F000002009F0F7F933A296217F2008F00CFCA6
:10270000024863E04A0100204B01002088030020BA
:10271000B4F2BFAA00000000B9D8B1D50000000093
:102720004F4E00004F464600106C0020F869002014
:10273000BCC6CBE3BFAAB9D80000000043616C63FC
:10274000756C6174696F6E204F4E2F4F46460000C6
:10275000B5E7BCABB3A3CAFDC9E8D6C3000000000F
:1027600053657420436F6E7374616E7400000000D3
:10277000B7E4C3F9C6F7C9E8D6C3000042757A7A50
:102780006572204F4E2F4F464600000000FFFF00AD
:10279000BEF8B6D4D6B5BEF400000000B0D9B7D6A6
:1027A000B1C8B7DB00000000D6B1B6C1D6B5000095
:1027B000534551004142537E0000000050524525D0
:1027C00000000000442D53455100000090F83000F7
:1027D00018B9F2A001F0A0FA02E0F4A001F09CFA0E
:1027E0002E20F7490870E5E08821084609F054F9E1
:1027F0001F2390227F21962008F0A4FD11F07AFD7E
:10280000F04890F8300020BBEE4890F82B000528E7
:1028100006D1AFF284029621822008F07DFB36E0DB
:10282000E84890F82B00012806D1AFF290029621DB
:10283000822008F071FB2AE0AFF2940296218220F8
:1028400008F06AFBAFF29802E1217F2008F064FBF8
:102850001DE0DC4890F82B00052806D1AFF2AC0251
:1028600096217F2008F058FB11E0D64890F82B0005
:10287000012806D1AFF2BC0296217F2008F04CFB64
:1028800005E0AFF2C00296217F2008F045FB11F071
:1028900069FDCD48D0ED2C0AB0EE600A11F004F8C5
:1028A0006020C749087085E011F024FDC54890F804
:1028B0002E0088B9C34890F8300030B9C3A24FF455
:1028C000FA71322008F028FB33E0C2A24FF4FA710B
:1028D000322008F021FB2CE0BA4890F82E000128A5
:1028E00011D1B84890F8300030B9BCA24FF4FA7159
:1028F000322008F011FB1CE0BAA24FF4FA7132202A
:1029000008F00AFB15E0AF4890F82E00022810D11D
:10291000AC4890F8300030B9B3A24FF4FA713220CD
:1029200008F0FAFA05E0B2A24FF4FA71322008F08A
:10293000F3FAA548D0ED2D0AB0EE600A12F0F8FCCB
:1029400011F010FD9F4890F8360030B9AAA240F26D
:102950005D215A2008F0E0FA1DE09A4890F8360010
:10296000012806D1A5A240F25D215A2008F0D4FA30
:1029700011E0944890F83600022806D1A0A240F257
:102980005D215A2008F0C8FA05E09EA240F25D21C0
:102990005A2008F0C1FA8B4890F8300018B99AA074
:1029A00001F0BAF902E09BA001F0B6F95E2084497B
:1029B000087000BF00BFC8E1814800782C2818D0FB
:1029C000312810D0692802D06A2818D105E06A2081
:1029D0007B49087000F0E6F911E06B207849087037
:1029E00000F0E0F90BE02C207549087000F0DAF9EE
:1029F00005E02D207249087000F0D4F900BF00BF37
:102A0000A3E16F48007840287CD009DCA0F13800B1
:102A1000072822D2DFE800F022324354657C8D0083
:102A2000442870D006DC41286ED042286DD043285F
:102A300013D10DE1452869D0462868D06C28F7D11C
:102A40007848007830B9784809F0ECFF77490120E0
:102A500011F0A6FD38205A4908703DE17148007810
:102A600040B972490A31022011F09AFD6F490120E4
:102A700011F06AFD3920524908702DE1694800784B
:102A800048B96A490A31022011F05EFD67491431E4
:102A9000032011F085FD3A20494908701CE1614886
:102AA000007848B961491431032011F04DFD5F49A8
:102AB0001E31042011F074FD3B20414908700BE1E8
:102AC0005848007848B959491E31042011F03CFD9E
:102AD00056492831052011F063FD3C203849087023
:102AE000FAE05048007848B950492831052011F0E3
:102AF0002BFD4E493231062011F052FD3D20304968
:102B00000870E9E026E0B4E035E091E0C2E0D2E010
:102B10004448007848B945493231062011F014FD87
:102B200042493C31072011F03BFD3E20244908700A
:102B3000D2E03C48007848B93C493C31072011F0CC
:102B400003FD3A494631082011F02AFD3F201C4977
:102B50000870C1E03348007848B934495A3102203E
:102B600013F0F8FF31495031012013F0C9FF412023
:102B700013490870B0E02B48007848B92B495A3106
:102B8000022013F0BDFF29496431032013F0E2FF56
:102B900042200B4908709FE0A0E00000B1C8BDCF03
:102BA000C4A3CABDD1A1D4F10000000053656C6577
:102BB000637420736F7274696E67206D6F64650053
:102BC0004B01002088030020106C0020BFECCBD903
:102BD000000000004641535400000000D6D0CBD97D
:102BE000000000004D454400C2FDCBD900000000AC
:102BF000534C4F57000000006D23000023000000DD
:102C00006B2300004D23000020B1EAB3C6C9E8D60B
:102C1000C30000004E6F6D696E616C2076616C754B
:102C2000650000004F010020A06D0020006D002015
:102C30004748007840B94749032013F061FF4549F0
:102C40000A31042013F086FF43204349087043E013
:102C50003F48007848B93F490A31042013F050FF3B
:102C60003C491431052013F075FF44203A4908709F
:102C700032E03748007848B936491431052013F05E
:102C80003FFF34491E31062013F064FF45203249CE
:102C9000087021E02E48007848B92E491E310620E0
:102CA00013F02EFF2B492831072013F053FF462045
:102CB0002949087010E02648007848B9254928318C
:102CC000072013F01DFF23493231082013F042FF83
:102CD00047202149087000BF00BF36E01E48007839
:102CE0005B2818D006DC322827D0352807D03628B4
:102CF00029D10AE05C2814D05D2824D117E03620C1
:102D00001549087000F052FB1DE05B201249087065
:102D100000F04CFB17E05C200F49087000F046FB08
:102D200011E05D200C49087000F040FB0BE0322000
:102D30000949087000F03AFB05E0332006490870A5
:102D400000F034FB00BF00BF00BF00BF10BD00009B
:102D50004F010020646D00204B0100200CB5FDEEFA
:102D6000C00A10EE902A12B2ADF80020064A525C5A
:102D70008DF80220054A525C8DF80320009A02600B
:102D8000BDF8042082800CBDBA750108C575010824
:102D9000704701B502E00098401E0090009800289E
:102DA000F9D108BD10B5002497480078692802D1F0
:102DB00011F0D8FA01E011F09DFA944890F83B0028
:102DC00078B9924890F8300028B991A29621322023
:102DD00008F0A2F814E090A29621322008F09CF8A6
:102DE0000EE08A4890F8300028B98EA29621322051
:102DF00008F092F804E08DA29621322008F08CF8B9
:102E0000814800786A2802D111F0ACFA01E011F093
:102E100071FA874890ED310AF2EE020AB4EEE00A48
:102E2000F1EE10FA03DD9FED830A80ED310A804850
:102E300090ED310ABCEEC00A10EE100AC4B27E4812
:102E400000EB840296215A2008F066F804EB840017
:102E50007A4901EB4002C6215A2008F05DF86A4821
:102E600000786B2802D111F07DFA01E011F042FAEE
:102E7000664890F8300068B96D4890ED2E0AB5EEBE
:102E8000C00AF1EE10FA12D16DA29621822008F04C
:102E900043F80CE0664890ED2E0AB5EEC00AF1EE5C
:102EA00010FA04D168A296217F2008F035F8564820
:102EB0000078312802D111F055FA01E011F01AFA28
:102EC000524890F82E0088B9504890F8300030B938
:102ED0005FA24FF4FA71322008F01EF833E05EA2D0
:102EE0004FF4FA71322008F017F82CE0474890F8B8
:102EF0002E00012811D1454890F8300030B958A271
:102F00004FF4FA71322008F007F81CE056A24FF493
:102F1000FA71322008F000F815E03C4890F82E00D5
:102F2000022810D1394890F8300030B94FA24FF440
:102F3000FA71322007F0F0FF05E04EA24FF4FA716B
:102F4000322007F0E9FF304800782C2802D111F038
:102F500009FA01E011F0CEF92C4890F82C0088B95C
:102F60002A4890F8300030B944A24FF4FA715A2040
:102F700007F0D2FF17E043A24FF4FA715A2007F08E
:102F8000CBFF10E0214890F8300030B93EA24FF45A
:102F9000FA715A2007F0C0FF05E03DA24FF4FA7124
:102FA0005A2007F0B9FF184800782D2802D111F0F7
:102FB000D9F901E011F09EF9144890F82A0088B977
:102FC000124890F8300030B92CA24FF4FA718220E8
:102FD00007F0A2FF17E02BA24FF4FA71822007F04E
:102FE0009BFF10E0094890F8300030B926A24FF45A
:102FF000FA71822007F090FF05E025A24FF4FA71E4
:10300000822007F089FF10BD4B01002088030020BB
:10301000C4DAB2BF00000000494E5445524E414C44
:1030200000000000CAD6B6AF000000004D414E00BF
:10303000106C0020000000005E020020FA01002059
:10304000B4F3B5E7C1F70000482D43555200000026
:10305000BFECCBD9000000004641535400000000F3
:10306000D6D0CBD9000000004D454400C2FDCBD9DD
:1030700000000000534C4F5700000000B9D8B1D5F4
:10308000000000004F464600B4F2BFAA0000000056
:103090004F4E000010B59748007800287ED1964822
:1030A000007869280CD006DC2C2878D02D2877D021
:1030B00031282DD1E4E06A282BD06B28F9D170E0BB
:1030C00003F02EFD8D4808F00DFD002008F0DEFC19
:1030D0008B4890F8300060B98AA2232140F2BD10DD
:1030E00007F01AFF89A29D2140F2BD1007F014FFDE
:1030F0000BE088A2232140F2BD1007F00DFF88A24B
:103100009D2140F2BD1007F007FF012079490870AA
:10311000EDE003F005FD794808F0E4FC002008F03C
:10312000B5FC774890F8300098B97EA2232140F290
:10313000BD1007F0F1FE7DA29D2140F2BD1007F009
:10314000EBFE7CA24FF4927140F2BD1007F0E4FE5A
:1031500012E07AA2232140F2BD1007F0DDFE79A231
:103160009D2140F2BD1007F0D7FE78A24FF4927176
:1031700040F2BD1007F0D0FE75A240F2B3114FF43B
:10318000E17007F0C9FE73A24FF40E714FF4E170C5
:1031900007F0C2FE012057490870A8E0A8E01DE032
:1031A00045E003F0BDFC554808F09CFC002008F009
:1031B0006DFC534890F8300030B967A20A2140F204
:1031C000BD1007F0A9FE05E065A2142140F2BD1074
:1031D00007F0A2FE01204749087088E003F0A0FC38
:1031E000464808F07FFC002008F050FC444890F866
:1031F000300060B95CA2232140F2BD1007F08CFEC4
:103200005BA29D2140F2BD1007F086FE0BE05AA2A2
:10321000232140F2BD1007F07FFE58A29D2140F20D
:10322000BD1007F079FE0120324908705FE003F01D
:1032300077FC324808F056FC002008F027FC3048A4
:1032400090F8300060B948A2232140F2BD1007F089
:1032500063FE47A29D2140F2BD1007F05DFE0BE02A
:1032600045A2232140F2BD1007F056FE43A29D2146
:1032700040F2BD1007F050FE01201E49087036E0F4
:1032800003F04EFC1D4808F02DFC002008F0FEFB6A
:103290001B4890F8300098B939A2232140F2BD10A4
:1032A00007F03AFE38A29D2140F2BD1007F034FE2F
:1032B00037A24FF4927140F2BD1007F02DFE12E0DC
:1032C00035A2232140F2BD1007F026FE34A29D2135
:1032D00040F2BD1007F020FE32A24FF4927140F28E
:1032E000BD1007F019FE01200249087000BF00BFA1
:1032F00010BD00004E0100204B01002000FFFF0028
:1033000088030020C4DAB2BF00000000CAD6B6AFFE
:1033100000000000494E5445524E414C0000000050
:103320004D414E00D7D4B6AF00000000B1A3B3D6D4
:1033300000000000B1EAB3C6000000004155544F40
:1033400000000000484F4C44000000004E4F4D006C
:103350002B0000002D000000B4F3B5E7C1F700001A
:10336000482D435552000000B4F2BFAA00000000EF
:10337000B9D8B1D5000000004F4E00004F464600BE
:10338000BFECCBD900000000D6D0CBD900000000A4
:10339000C2FDCBD90000000046415354000000009C
:1033A0004D454400534C4F57000000000EB5F44803
:1033B000007835280DD1F34890F8300018B9F2A004
:1033C00000F0AAFC02E0F4A000F0A6FC10F0CAFF96
:1033D00001E010F08FFFEB4890F8300028B9F4A21C
:1033E000AA21322007F098FD04E0F3A2AA2132209E
:1033F00007F092FDE24800785B280DD1E14890F893
:10340000300018B9EEA000F087FC02E0F0A000F058
:1034100083FC10F0A7FF01E010F06CFFD94890F892
:10342000310040B90A20EE4908700A22EDA1684631
:103430000FF0BEF936E0D34890F83100012808D1EA
:103440001420E74908701922E6A168460FF0B0F988
:1034500028E0CC4890F83100022808D12820E04923
:1034600008703222DFA168460FF0A2F91AE0C548C1
:1034700090F83100032808D13C20D94908704B222C
:10348000D8A168460FF094F90CE0BE4890F83100DE
:10349000042807D15020D24908706422D1A168467F
:1034A0000FF086F96A46AA21822007F035FDB4485C
:1034B000007836280AD1B34890F8300018B9CAA06D
:1034C00000F02AFC02E0CBA000F026FCAC4800781B
:1034D0005C280DD1AB4890F8300018B9C9A000F0B5
:1034E0001BFC02E0CBA000F017FC10F03BFF01E05A
:1034F00010F000FFA34890F83000002849D1A148FF
:1035000090F8320028B9C8A2AA21AE2007F004FD25
:103510008DE09C4890F8320001280AD10522B1A123
:1035200068460FF045F96A46AA21AC2007F0F4FC82
:103530007DE0944890F8320002280AD10A22A9A11D
:1035400068460FF035F96A46AA21AC2007F0E4FC82
:103550006DE08C4890F8320003280AD10F22A1A117
:1035600068460FF025F96A46AA21AC2007F0D4FC82
:103570005DE0844890F83200062858D11E2299A1B7
:1035800068460FF015F96A46AA21AC2007F0C4FC82
:103590004DE07C4890F83000012848D1794890F8F7
:1035A000320028B9A2A2AA21AC2007F0B5FC3EE067
:1035B000744890F8320001280AD1052289A1684692
:1035C0000FF0F6F86A46AA21AC2007F0A5FC2EE021
:1035D0006C4890F8320002280AD10A2281A168467C
:1035E0000FF0E6F86A46AA21AC2007F095FC1EE031
:1035F000644890F8320003280AD10F2279A1684666
:103600000FF0D6F86A46AA21AC2007F085FC0EE040
:103610005C4890F83200062809D11E2271A1684644
:103620000FF0C6F86A46AA21AC2007F075FC544892
:1036300000785D280DD1534890F8300018B97DA06E
:1036400000F06AFB02E07EA000F066FB10F08AFE4C
:1036500001E010F04FFE4B4890F8300080B9494827
:1036600090F83400012805D178A2AA21D62007F0CD
:1036700053FC1AE06CA2AA21D62007F04DFC14E0FE
:10368000404890F8300001280FD13E4890F83400AF
:10369000012805D16FA2AA21D42007F03DFC04E047
:1036A00063A2AA21D42007F037FC354800783228DD
:1036B0000DD1344890F8300018B967A000F02CFB09
:1036C00002E068A000F028FB10F04CFE01E010F0D2
:1036D00011FE2C4890F82F0028B967A2AA21FC20DF
:1036E00007F01AFC2AE0274890F82F00012805D19E
:1036F00063A2AA21FC2007F00FFC1FE0214890F8EC
:103700002F00022805D160A2AA21FC2007F004FCAA
:1037100014E01C4890F82F00032805D15CA2AA21D0
:10372000FC2007F0F9FB09E0164890F82F00042868
:1037300004D159A2AA21FC2007F0EEFB1048007822
:10374000332805D10F4991F8350013F0CBFA04E086
:103750000C4991F8350013F077FA514808F0C2F996
:10376000882008F093F94FA2E621822007F0D4FBCD
:103770004DA2DA2140F2231007F0CEFB0EBD00006F
:103780004B01002088030020CFB5CDB3D3EFD1D4B7
:10379000D1A1D4F10000000053656C6563742073FF
:1037A000797374656D206C616E6775616765000083
:1037B0004348494E45534500454E474C4953480000
:1037C000B1B3B9E2C1C1B6C8C9E8D6C300000000B0
:1037D000536574206272696768746E657373000064
:1037E0007901002025640000C4EA2DD4C22DC8D57B
:1037F00000000000594541522D4D4F4E54482D4474
:1038000041590000BDB5B5CDC1C1B6C8CAB1BCE40F
:103810000000000052656475636520627269676824
:10382000746E657373000000B9D8B1D50000000054
:103830004F464600B4A5C6C1C9E8D6C30000000083
:10384000546F7563682070616E656C00B4F2BFAA36
:10385000000000004F4E0000B2A8CCD8C2CAC9E890
:10386000D6C3000053656C656374204261756420A3
:10387000726174650000000039363030202000008D
:1038800031393230302000003338343030200000FD
:1038900035373630302000003131353230300000DD
:1038A00000FFFF00250000005300000010B5454850
:1038B0000078372820D008DC32283DD0332868D063
:1038C000352809D036287AD10EE05B281CD05C2838
:1038D00022D05D2873D127E003F022F903F078FCB1
:1038E0000120394908706AE003F01AF903F09AFAE6
:1038F00001203549087062E003F012F903F07EFE02
:103900000120314908705AE003F00AF900F022F969
:1039100001202D49087052E003F002F900F090F9FF
:103920000120294908704AE003F0FAF803F03CF955
:1039300001202549087042E003F0F2F8234808F01E
:10394000D1F8002008F0A2F821A21E2140F2BD10FB
:1039500007F0E2FA20A2962140F2BD1007F0DCFA4F
:103960001FA24FF48C7140F2BD1007F0D5FA1EA2D1
:1039700040F2951140F2BD1007F0CEFA1CA240F2C1
:103980000D2140F2BD1007F0C7FA01200E49087062
:1039900015E01948FCF767FC184981F8350008461E
:1039A00090F83500FF2802DDFF2081F8350013492B
:1039B00091F8350013F096F90BF03AFE00BF00BF06
:1039C00010BD00004B0100204E01002000FFFF0051
:1039D000393630300000000031393230300000001C
:1039E00033383430300000003537363030000000D6
:1039F00031313532303000007C68002088030020EF
:103A000010B504464C48007809287DD04A48007813
:103A10000B28FAD04948007849490978884206D1EC
:103A200048480078A0420DD04448007850B9882119
:103A3000084608F031F8172332220A214FF4E270C9
:103A400007F080FC3D48007800286AD100EE104A5B
:103A5000B8EE400ADFED3C0A80EE201A3B4880EDCC
:103A6000001A88216FF07F4008F016F81E234FF4EB
:103A7000E2720A21104607F02BFD0A234FF4F6727A
:103A800019464FF4E27007F023FD1E234FF4F6723F
:103A900019464FF4E27007F01BFD0F234FF4F67246
:103AA0000A21104607F014FD0F2340F2F1121946C7
:103AB000501F07F00DFD192340F2F1120F2110469F
:103AC00007F006FD192340F2F1121946501F07F0C6
:103AD000FFFC1E234FF4F6721921104607F0F8FC84
:103AE000002C18DD88214FF47F4007F0D5FF1748E0
:103AF00090ED000ADFED160A20EE200ABDEEC00AA6
:103B000010EE100A82B200E014E011230C214FF4F1
:103B1000E37007F017FC0020094908700948047099
:103B200008E006480078802804D100F049F8802099
:103B30000349087010BD00004A01002070000020F9
:103B400094000020950000200000C8429000002052
:103B50000000144200B5144807F0C4FF002007F02D
:103B600095FF12A223214FF4E17007F0D5F910A2BE
:103B7000A5214FF4E17007F0CFF90EA240F2251114
:103B80004FF4E17007F0C8F90BA24FF4D2714FF473
:103B9000E17007F0C1F909A24FF409714FF4E17027
:103BA00007F0BAF900BD000000FFFF00313000004F
:103BB000323500003530000037350000313030003C
:103BC00010B588216FF07F4007F066FF0D234FF49A
:103BD000F7720A21104607F07BFC0D234FF4F972AF
:103BE0000A21104607F074FC0F2340F2F512194623
:103BF00040F2EB1007F06CFC0723092210214FF470
:103C0000F67007F09FFB172340F2F3121946901F3E
:103C100007F05EFC18234FF4F9721946101F07F0E5
:103C200057FC192340F2F1121946901E07F050FC80
:103C300020234FF4F8721A21104607F049FC10BDFA
:103C400000B52C4890F8300038BB2B4807F04AFFED
:103C5000002007F01BFF29A223214FF4E17007F099
:103C60005BF928A2A5214FF4E17007F055F926A2CF
:103C700040F225114FF4E17007F04EF923A24FF402
:103C8000D2714FF4E17007F047F921A24FF40971A6
:103C90004FF4E17007F040F92BE0164890F830003F
:103CA000012826D1144807F01DFF002007F0EEFE82
:103CB00018A223214FF4E17007F02EF911A2A521DB
:103CC0004FF4E17007F028F90FA240F225114FF4EC
:103CD000E17007F021F90DA24FF4D2714FF4E170B9
:103CE00007F01AF90AA24FF409714FF4E17007F0D6
:103CF00013F900BD8803002000FFFF00B9D8B1D53B
:103D000000000000350000003130000031350000B7
:103D1000333000004F46460010B50446882108465F
:103D200007F0BAFE18234FF4C8724FF4D071032085
:103D300007F008FB882007F0A9FE6FF07F4007F02E
:103D4000D1FE224603214FF4D070FEF709F910BDD1
:103D500010B5044602F0E4FE4FF2902007F0C2FED8
:103D6000002007F093FE954890F83000D8B9012C58
:103D700007D193A24FF404714FF4E17007F0CCF82F
:103D80002CE0022C07D190A24FF404714FF4E170A3
:103D900007F0C2F822E08EA24FF404714FF4E170F4
:103DA00007F0BAF81AE0012C07D18BA24FF4027188
:103DB0004FF4E17007F0B0F810E0022C07D188A2B0
:103DC0004FF402714FF4E17007F0A6F806E086A206
:103DD0004FF402714FF4E17007F09EF8012C1AD1F4
:103DE00083A223214FF4E17007F096F882A2992173
:103DF0004FF4E17007F090F881A24FF491714FF405
:103E0000E17007F089F880A24FF4D2714FF4E170AD
:103E100007F082F8D1E0022C13D17DA223214FF4C8
:103E2000E17007F079F87CA299214FF4E17007F076
:103E300073F87BA24FF496714FF4E17007F06CF8C1
:103E4000BBE00B2C1AD177A20A214FF4E17007F0E6
:103E500063F875A299214FF4E17007F05DF873A241
:103E600040F213114FF4E17007F056F870A24FF4CE
:103E7000D2714FF4E17007F04FF89EE00C2C1AD18C
:103E80006CA20A214FF4E17007F046F86AA299216A
:103E90004FF4E17007F040F868A240F213114FF4BC
:103EA000E17007F039F866A24FF4D2714FF4E17077
:103EB00007F032F881E00D2C1AD162A20A214FF4EA
:103EC000E17007F029F860A299214FF4E17007F042
:103ED00023F85EA240F213114FF4E17007F01CF8D2
:103EE0005BA24FF4D2714FF4E17007F015F864E073
:103EF0000E2C1AD157A20A214FF4E17007F00CF8EA
:103F000055A299214FF4E17007F006F853A240F250
:103F100013114FF4E17006F0FFFF51A24FF4D2717C
:103F20004FF4E17006F0F8FF47E0152C1AD14DA2CE
:103F30000A214FF4E17006F0EFFF4BA299214FF4F4
:103F4000E17006F0E9FF49A240F213114FF4E1706D
:103F500006F0E2FF46A24FF4D2714FF4E17006F092
:103F6000DBFF2AE0162C1AD142A20A214FF4E1709D
:103F700006F0D2FF40A299214FF4E17006F0CCFF89
:103F80003EA240F213114FF4E17006F0C5FF3CA2CF
:103F90004FF4D2714FF4E17006F0BEFF0DE0172C24
:103FA0000BD138A20A214FF4E17006F0B5FF36A21A
:103FB00099214FF4E17006F0AFFF10BD8803002097
:103FC000CFC2D2BBD2B30000C9CFD2BBD2B30000A4
:103FD000B7B5BBD8000000004E6578740000000043
:103FE0004C617374000000004261636B00000000CC
:103FF000414443440000000045464748000000009B
:10400000494A4B4C000000004D4E4F50000000004C
:1040100051525354000000005556575800000000FC
:10402000595A000041000000420000004300000017
:10403000440000004500000046000000470000006A
:1040400048000000490000004A0000004B0000004A
:104050004C0000004D0000004E0000004F0000002A
:10406000500000005100000052000000530000000A
:1040700054000000550000005600000057000000EA
:1040800058000000590000005A00000003B583B03A
:104090000021FE4807F000FD00232922DDE903018D
:1040A00007F0A0F90498401E80B202900398401EC9
:1040B00080B200232C220190029907F093F9049812
:1040C000801E80B202900398401E80B200232E22F0
:1040D0000190029907F086F90498C01E80B200236F
:1040E0002E2201460290039807F07CF90498001FE5
:1040F00080B202900398801C80B200232E2201908F
:10410000029907F06FF90498401F80B2029003985B
:10411000233080B200230E220190029907F062F949
:104120000498801F80B202900398233080B200234D
:104130000F220190029907F055F90498C01F80B230
:1041400002900398233080B200230F22019002993D
:1041500007F048F90498083880B202900398243098
:1041600080B200230E220190029907F03BF90498D7
:10417000093880B202900398243080B200230F22C5
:104180000190029907F02EF904980A3880B2029043
:104190000398253080B200230E220190029907F087
:1041A00021F904980B3880B202900398253080B230
:1041B00000230E220190029907F014F904980C389C
:1041C00080B202900398253080B200230E22019025
:1041D000029907F007F904980D3880B2029003980D
:1041E000263080B200230E220190029907F0FAF8DF
:1041F00004980E3880B202900398253080B20023D4
:104200000F220190029907F0EDF804980F3880B260
:1042100002900398263080B200230E22019002996A
:1042200007F0E0F80498103880B202900398263026
:1042300080B200230E220190029907F0D3F804986F
:10424000113880B202900398263080B200230F22EA
:104250000190029907F0C6F80498123880B20290D3
:104260000398273080B200230E220190029907F0B4
:10427000B9F80498133880B202900398273080B2BE
:1042800000230E220190029907F0ACF8049814382C
:1042900080B202900398273080B200230F22019051
:1042A000029907F09FF80498153880B2029003989D
:1042B000283080B200230E220190029907F092F874
:1042C0000498163880B202900398283080B20023F8
:1042D0000E220190029907F085F80498173880B2F1
:1042E00002900398283080B200230E220190029998
:1042F00007F078F80498183880B2029003982830B4
:1043000080B200230E220190029907F06BF8049806
:10431000193880B202900398293080B200230D2210
:104320000190029907F05EF804981A3880B2029062
:104330000398293080B200230E220190029907F0E1
:1043400051F804981B3880B202900398293080B24B
:1043500000230E220190029907F044F804981C38BB
:1043600080B2029003982A3080B200230E2201907E
:10437000029907F037F804981D3880B2029003982C
:104380002A3080B200230E220190029907F02AF809
:1043900004981E3880B2029003982A3080B200231D
:1043A0000E220190029907F01DF804981F3880B280
:1043B000029003982A3080B200230F2201900299C4
:1043C00007F010F80498203880B2029003982A3041
:1043D00080B200230F220190029907F003F804989D
:1043E000213880B2029003982B3080B200230D2236
:1043F0000190029906F0F6FF0498223880B20290EC
:1044000003982B3080B200230E220190029906F00F
:10441000E9FF0498233880B2029003982C3080B2D0
:1044200000230D220190029906F0DCFF0498243845
:1044300080B2029003982C3080B200230E220190AB
:10444000029906F0CFFF0498253880B202900398B5
:104450002C3080B200230E220190029906F0C2FF98
:104460000498263880B2029003982C3080B2002342
:104470000F220190029906F0B5FF0498273880B208
:10448000029003982C3080B2002301E00093FF00DB
:104490000F220190029906F0A5FF0498283880B2F7
:1044A000029003982D3080B200230E2201900299D1
:1044B00006F098FF0498293880B2029003982D30B6
:1044C00080B200230E220190029906F08BFF04981F
:1044D0002A3880B2029003982D3080B200230F2238
:1044E0000190029906F07EFF04982B3880B202906A
:1044F00003982D3080B200230F220190029906F01C
:1045000071FF04982C3880B2029003982E3080B24C
:1045100000230E220190029906F064FF04982D38C2
:1045200080B2029003982E3080B200230E220190B8
:10453000029906F057FF04982E3880B20290039833
:104540002E3080B200230F220190029906F04AFF1C
:1045500004982F3880B2029003982F3080B2002345
:104560000E220190029906F03DFF0498303880B287
:10457000029003982F3080B200230E2201900299FE
:1045800006F030FF0498313880B2029003982F3043
:1045900080B200230F220190029906F023FF0498B5
:1045A000323880B2029003982F3080B200230F225D
:1045B0000190029906F016FF0498333880B20290F9
:1045C0000398303080B200230E220190029906F049
:1045D00009FF0498343880B202900398303080B2DA
:1045E00000230E220190029906F0FCFE0498353853
:1045F00080B202900398303080B200230E220190E6
:10460000029906F0EFFE0498363880B202900398C3
:10461000313080B200230D220190029906F0E2FEB3
:104620000498373880B202900398313080B200236A
:104630000E220190029906F0D5FE0498363880B219
:1046400002900398483080B203230C220190029913
:1046500006F078FE0498343880B202900398473010
:1046600080B200230D220190029906F0BBFE04984F
:10467000333880B202900398473080B204230C2272
:104680000190029906F05EFE04982F3880B20290E5
:104690000398463080B203230C220190029906F061
:1046A00051FE0498283880B202900398443080B2BA
:1046B00000230E220190029906F094FE04982738F8
:1046C00080B202900398453080B200230D22019001
:1046D000029906F087FE0498263880B2029003986B
:1046E000443080B200230D220190029906F07AFE38
:1046F0000498253880B202900398443080B2002399
:104700000C220190029906F06DFE0498243880B2C4
:1047100002900398433080B203230D220190029946
:1047200006F010FE0498213880B2029003984330BE
:1047300080B200230C220190029906F053FE0498E7
:10474000203880B202900398423080B203230D22B9
:104750000190029906F0F6FD04981D3880B202908F
:104760000398423080B200230C220190029906F097
:1047700039FE04981C3880B202900398413080B210
:1047800002230D220190029906F0DCFD04981A38EC
:1047900080B202900398413080B200230C22019035
:1047A000029906F01FFE0498193880B2029003980F
:1047B000403080B203230D220190029906F0C2FD21
:1047C0000498163880B2029003983F3080B20023DC
:1047D0000E220190029906F005FE0498153880B269
:1047E000029003983F3080B202230D22019002997B
:1047F00006F0A8FD0498133880B2029003983F3069
:1048000080B202230C220190029906F09BFD0498CD
:10481000113880B2029003983E3080B200230D22FE
:104820000190029906F0DEFD0498103880B20290E3
:1048300003983E3080B202230C220190029906F0C8
:1048400081FD04980E3880B2029003983D3080B20A
:1048500003230D220190029906F074FD04980B3891
:1048600080B2029003983D3080B200230C22019068
:10487000029906F0B7FD04980A3880B202900398B6
:104880003C3080B203230D220190029906F05AFDBC
:104890000498C01F80B2029003983B3080B202237C
:1048A0000D220190029906F04DFD0498401F80B240
:1048B000029003983A3080B202230D2201900299AF
:1048C00006F040FD0498C01E80B2029003983A3072
:1048D00080B200230E220190029906F083FD049815
:1048E000801E80B2029003983A3080B202230D22DB
:1048F0000190029906F026FD03983A3080B2002319
:104900000C220290049906F06DFD0498283880B2BC
:1049100002900398583080B2002317220190029928
:1049200006F060FD0498273880B202900398553055
:1049300080B200231B220190029906F053FD0498D7
:10494000263880B202900398543080B200231E2291
:104950000190029906F046FD0498253880B2029035
:104960000398533080B2002320220190029906F070
:1049700039FD0498243880B202900398533080B2F5
:10498000002303220190029906F02CFD049824389C
:1049900080B202900398683080B200230C2201900C
:1049A000029906F01FFD0498233880B20290039804
:1049B000533080B2002301220190029906F012FDCB
:1049C0000498233880B202900398683080B20023A4
:1049D0000C220190029906F005FD0498223880B25D
:1049E00002900398683080B203230C220190029950
:1049F00006F0A8FC04981F3880B202900398673034
:104A000080B203230D220190029906F09BFC0498CA
:104A10001C3880B202900398663080B200230D22C9
:104A20000190029906F0DEFC04981B3880B20290D7
:104A30000398673080B200230C220190029906F09F
:104A4000D1FC04981A3880B202900398663080B284
:104A500000230D220190029906F0C4FC0498193835
:104A600080B202900398653080B202230D2201903B
:104A7000029906F067FC0498173880B202900398F8
:104A8000653080B202230C220190029906F05AFC94
:104A90000498153880B202900398643080B20323E2
:104AA0000D220190029906F04DFC0498123880B254
:104AB00002900398633080B203230D220190029983
:104AC00006F040FC04980F3880B2029003986330DF
:104AD00080B200230C220190029906F083FC049816
:104AE0000E3880B202900398623080B203230D2208
:104AF0000190029906F026FC04980B3880B20290CF
:104B00000398623080B200230C220190029906F0D3
:104B100069FC04980A3880B202900398613080B230
:104B200000230D220190029906F05CFC04980938DC
:104B300080B202900398613080B204230C2201906D
:104B4000029906F0FFFB0498401F80B20290039880
:104B5000603080B203230C220190029906F0F2FB30
:104B60000498801E80B2029003985F3080B20323C5
:104B70000D220190029906F0E5FB0498383880B2C6
:104B8000029003987F3080B200230C22019002999A
:104B900006F028FC0498373880B2029003987E30E3
:104BA00080B203230D220190029906F0CBFB0498FA
:104BB000343880B2029003987E3080B202230C22F7
:104BC0000190029906F0BEFB0498323880B2029040
:104BD00003987D3080B202230C220190029906F0E6
:104BE000B1FB0498303880B2029003987C3080B2D8
:104BF00000230D220190029906F0F4FB04982F384F
:104C000080B2029003987C3080B200230C22019085
:104C1000029906F0E7FB04982E3880B202900398C0
:104C20007C3080B200230D220190029906F0DAFB5D
:104C300004982D3880B2029003987C3080B2002313
:104C40000C220190029906F0CDFB04982C3880B21A
:104C5000029003987B3080B202230D2201900299CA
:104C600006F070FB04982A3880B2029003987B30DB
:104C700080B203230C220190029906F063FB049892
:104C8000293880B202900398993080B200230C2218
:104C90000190029906F0A6FB0498283880B2029091
:104CA0000398973080B200230D220190029906F0FC
:104CB00099FB0498273880B2029003987A3080B22A
:104CC00000230D220190029906F08CFB04982738EE
:104CD00080B202900398963080B200230C2201909B
:104CE000029906F07FFB0498263880B20290039860
:104CF0007A3080B202230C220190029906F022FB46
:104D00000498263880B202900398943080B2002331
:104D10000D220190029906F065FB0498253880B2B7
:104D200002900398933080B200230C2201900299E4
:104D300006F058FB0498243880B20290039879302A
:104D400080B203230D220190029906F0FBFA049829
:104D5000243880B202900398923080B200230C2253
:104D60000190029906F03EFB0498233880B202902D
:104D70000398913080B200230B220190029906F033
:104D800031FB0498223880B2029003988F3080B2B1
:104D900000230C220190029906F024FB049821388C
:104DA00080B202900398783080B200230D220190E7
:104DB000029906F017FB0498213880B202900398FC
:104DC0008D3080B200230D220190029906F00AFB7B
:104DD0000498203880B202900398793080B2002382
:104DE0000C220190029906F0FDFA0498203880B256
:104DF000029003988C3080B200230C22019002991B
:104E000006F0F0FA04981F3880B2029003987830C8
:104E100080B200230D220190029906F0E3FA049873
:104E20001F3880B2029003988A3080B200230D228E
:104E30000190029906F0D6FA04981E3880B20290CA
:104E40000398783080B200230C220190029906F07A
:104E5000C9FA04981E3880B202900398893080B253
:104E600000230D220190029906F0BCFA04981D3827
:104E700080B202900398773080B200230D22019017
:104E8000029906F0AFFA04981D3880B20290039898
:104E9000873080B200230F220190029906F0A2FA17
:104EA00004981C3880B202900398773080B20023B7
:104EB0000C220190029906F095FA04981C3880B2F1
:104EC00002900398863080B200231022019002994C
:104ED00006F088FA04981B3880B202900398773065
:104EE00080B200231F220190029906F07BFA0498F9
:104EF0001A3880B202900398763080B200231F22C5
:104F00000190029906F06EFA0498193880B2029066
:104F10000398763080B2002320220190029906F097
:104F200061FA0498183880B202900398763080B203
:104F3000002320220190029906F054FA04981738B1
:104F400080B202900398753080B200232122019034
:104F5000029906F047FA0498163880B20290039836
:104F6000763080B2002313220190029906F03AFABB
:104F70000498163880B2029003988A3080B20023D9
:104F80000C220190029906F02DFA0498153880B28F
:104F900002900398753080B2002313220190029989
:104FA00006F020FA0498153880B2029003988A30EF
:104FB00080B200230C220190029906F013FA0498A3
:104FC000143880B202900398753080B20023122208
:104FD0000190029906F006FA0498143880B2029003
:104FE00003988A3080B200230D220190029906F0C6
:104FF000F9F90498133880B202900398743080B2A3
:10500000002311220190029906F0ECF9049813385C
:1050100080B2029003988A3080B200230D22019062
:10502000029906F0DFF90498123880B202900398D2
:10503000743080B2002310220190029906F0D2F958
:105040000498123880B2029003988A3080B200230C
:105050000E220190029906F0C5F90498113880B229
:1050600002900398743080B200230E2201900299BE
:1050700006F0B8F90498113880B2029003988A308B
:1050800080B200230E220190029906F0ABF9049839
:10509000103880B202900398743080B200230D2241
:1050A0000190029906F09EF90498103880B202909F
:1050B00003988A3080B200230E220190029906F0F4
:1050C00091F904980F3880B202900398733080B23F
:1050D00003230D220190029906F034F904980C384C
:1050E00080B202900398733080B200230C220190AA
:1050F000029906F077F904980B3880B20290039871
:10510000723080B203230D220190029906F01AF941
:105110000498083880B202900398723080B200235D
:105120000C220190029906F05DF90498C01F80B22C
:1051300002900398713080B203230D2201900299EE
:1051400006F000F90498001F80B2029003987030B6
:1051500080B200230E220190029906F043F90498D0
:10516000C01E80B202900398703080B203230D22DB
:105170000190029906F0E6F80398703080B200239F
:105180000C220290049906F02DF904980F3880B291
:10519000029003988B3080B203230D220190029974
:1051A00006F0D0F804980C3880B2029003988B3047
:1051B00080B202230E220190029906F0C3F80498EF
:1051C0000A3880B2029003988C3080B203230D22FB
:1051D0000190029906F0B6F80498C01F80B20290C0
:1051E00003988C3080B203230E220190029906F0BE
:1051F000A9F80498001F80B2029003988C3080B206
:1052000002230F220190029906F09CF80498801E58
:1052100080B2029003988D3080B200230E2201905C
:10522000029906F0DFF80498401E80B202900398BD
:105230008F3080B200230C220190029906F0D2F840
:105240000398913080B200230A220290049906F05C
:10525000C9F80498293880B202900398AD3080B222
:10526000002323220190029906F0BCF80498283804
:1052700080B202900398AB3080B2002327220190C5
:10528000029906F0AFF80498273880B2029003988C
:10529000A93080B2002329220190029906F0A2F8D9
:1052A0000498263880B202900398A83080B2002378
:1052B0002B220190029906F095F80498253880B2C7
:1052C00002900398A73080B200230D22019002992A
:1052D00006F088F80498253880B202900398C6300A
:1052E00080B200230D220190029906F07BF8049809
:1052F000243880B202900398A63080B200230D2299
:105300000190029906F06EF80498243880B2029059
:105310000398C73080B200230D220190029906F055
:1053200061F80498233880B202900398A63080B2C6
:1053300000230C220190029906F054F804982338B7
:1053400080B202900398C63080B200230E220190F2
:10535000029906F047F80498223880B20290039828
:10536000A53080B200230D220190029906F03AF890
:105370000498223880B202900398C63080B200238D
:105380000E220190029906F02DF80498213880B27F
:1053900002900398A53080B200230D22019002995B
:1053A00006F020F80498213880B202900398C630A5
:1053B00080B200230D220190029906F013F80498A0
:1053C000203880B202900398A53080B200230D22CD
:1053D0000190029906F006F80498203880B20290F5
:1053E0000398C63080B200230D220190029905F087
:1053F000F9FF04981F3880B202900398A43080B25D
:1054000002230E220190029905F09CFF04981F3898
:1054100080B202900398C53080B202230E22019020
:10542000029905F08FFF04981D3880B2029003980E
:10543000A43080B200230D220190029905F0D2FF22
:1054400004981D3880B202900398C53080B20023C2
:105450000D220190029905F0C5FF04981C3880B216
:1054600002900398A33080B202230E220190029989
:1054700005F068FF04981C3880B202900398C4308D
:1054800080B202230E220190029905F05BFF04987E
:105490001A3880B202900398A33080B200230D2204
:1054A0000190029905F09EFF04981A3880B202908C
:1054B0000398C43080B200230D220190029905F0B8
:1054C00091FF0498193880B202900398A23080B2FC
:1054D00000230E220190029905F084FF04981938E8
:1054E00080B202900398C43080B200230D22019054
:1054F000029905F077FF0498193880B2029003985A
:10550000A23080B200230D220190029905F06AFFBB
:105510000498193880B202900398C33080B20023F7
:105520000E220190029905F05DFF0498183880B2B0
:1055300002900398A23080B200230E2201900299BB
:1055400005F050FF0498183880B202900398C330D9
:1055500080B200230D220190029905F043FF0498C8
:10556000173880B202900398A23080B200230D2237
:105570000190029905F036FF0498173880B2029026
:105580000398C33080B200230D220190029905F0E8
:1055900029FF0498163880B202900398A13080B297
:1055A00000230E220190029905F01CFF0498163882
:1055B00080B202900398C23080B200230E22019084
:1055C000029905F00FFF0498153880B202900398F5
:1055D000A13080B200230E220190029905F002FF53
:1055E0000498153880B202900398C23080B200232C
:1055F0000E220190029905F0F5FE0498143880B24D
:1056000002900398A13080B200230D2201900299EC
:1056100005F0E8FE0498143880B202900398C23076
:1056200080B200230D220190029905F0DBFE049860
:10563000133880B202900398A03080B200230E226B
:105640000190029905F0CEFE0498133880B20290C2
:105650000398C23080B200230D220190029905F018
:10566000C1FE0498123880B202900398A03080B234
:1056700000230E220190029905F0B4FE049812381E
:1056800080B202900398C13080B200230E220190B4
:10569000029905F0A7FE0498113880B20290039891
:1056A000A03080B200230D220190029905F09AFEED
:1056B0000498113880B202900398C13080B2002360
:1056C0000E220190029905F08DFE0498103880B2E8
:1056D000029003989F3080B200230E22019002991D
:1056E00005F080FE0498103880B202900398C13013
:1056F00080B200230E220190029905F073FE0498F7
:105700000F3880B202900398A03080B200230D229F
:105710000190029905F066FE04980F3880B202905D
:105720000398C13080B200230D220190029905F048
:1057300059FE04980E3880B2029003989F3080B2D0
:1057400004230D220190029905F0FCFD04980E3807
:1057500080B202900398C03080B200230E220190E4
:10576000029905F03FFE04980D3880B2029003982C
:10577000C03080B203230D220190029905F0E2FDB2
:1057800004980A3880B2029003989F3080B20323B5
:105790000C220190029905F0D5FD04980A3880B2D8
:1057A00002900398BF3080B202230D22019002992B
:1057B00005F0C8FD0498083880B202900398BE3006
:1057C00080B200230D220190029905F00BFE04988F
:1057D000C01F80B2029003989F3080B200230E2237
:1057E0000190029905F0FEFD0498C01F80B202905E
:1057F0000398BC3080B200230E220190029905F07C
:10580000F1FD0498801F80B2029003989F3080B20F
:1058100000232B220190029905F0E4FD0498401F1B
:1058200080B202900398A03080B200232922019018
:10583000029905F0D7FD0498001F80B202900398EA
:10584000A13080B2002327220190029905F0CAFD01
:105850000498C01E80B202900398A23080B2002348
:1058600024220190029905F0BDFD0498801E80B2AB
:1058700002900398A33080B2002322220190029963
:1058800005F0B0FD0498401E80B202900398A43049
:1058900080B2002320220190029905F0A3FD049814
:1058A000243880B202900398E03080B200231222A4
:1058B0000190029905F096FD0498233880B2029079
:1058C0000398DF3080B2002316220190029905F080
:1058D00089FD0498223880B202900398DE3080B2AD
:1058E000002318220190029905F07CFD04982138CC
:1058F00080B202900398DD3080B20023192201901B
:10590000029905F06FFD0498203880B20290039848
:10591000DD3080B2002309220190029905F062FD7A
:105920000498203880B202900398EE3080B20023B1
:1059300008220190029905F055FD04981F3880B2A5
:1059400002900398DC3080B2002309220190029972
:1059500005F048FD04981F3880B202900398EE309D
:1059600080B2002309220190029905F03BFD0498C2
:105970001E3880B202900398DB3080B200230922E7
:105980000190029905F02EFD04981E3880B2029015
:105990000398EE3080B2002309220190029905F0AD
:1059A00021FD04981D3880B202900398DA3080B24D
:1059B000002309220190029905F014FD04981D3876
:1059C00080B202900398EF3080B200230822019049
:1059D000029905F007FD04981C3880B202900398E4
:1059E000DA3080B2002308220190029905F0FAFC17
:1059F00004981C3880B202900398EF3080B20023E4
:105A000009220190029905F0EDFC04981B3880B240
:105A100002900398D93080B20023082201900299A5
:105A200005F0E0FC04981B3880B202900398E23045
:105A300080B2002316220190029905F0D3FC04984D
:105A40001A3880B202900398D73080B20023212206
:105A50000190029905F0C6FC0498193880B20290B2
:105A60000398D63080B2002323220190029905F0DA
:105A7000B9FC0498183880B202900398D53080B2EF
:105A8000002309220190029905F0ACFC0498183813
:105A900080B202900398E33080B200230822019084
:105AA000029905F09FFC0498183880B20290039880
:105AB000E83080B2002309220190029905F092FC9F
:105AC0000498173880B202900398D53080B2002332
:105AD00008220190029905F085FC0498173880B2DD
