:020000040800F2
:10000000C0720020C101000891C80008359B00089B
:100010008DC80008CD1200086F2301080000000001
:1000200000000000000000000000000029F50008AA
:100030004D2E00080000000049CB0008F9F7000829
:10004000DB010008DB010008DB010008DB01000820
:10005000DB010008DB010008DB010008DB01000810
:10006000DB010008DB010008DB010008DB01000800
:10007000DB010008DB010008DB010008DB010008F0
:10008000DB010008DB010008DB010008DB010008E0
:10009000DB010008DB010008DB010008DB010008D0
:1000A000DB010008DB010008DB010008DB010008C0
:1000B000DB010008DB010008DB010008DB010008B0
:1000C000DB010008DB010008DB010008DB010008A0
:1000D000DB0100082D0C0108DB010008DB01000832
:1000E000DB010008DB010008DB010008DB01000880
:1000F000DB010008DB010008DB010008DB01000870
:10010000DB010008DB010008DB010008DB0100085F
:10011000DB010008DB010008D1F8000859FA0008EB
:10012000DB010008DB010008DB010008DB0100083F
:10013000DB010008DB010008DB010008DB0100082F
:10014000DB010008DB010008DB0100087DCA0008B4
:10015000DB010008DB010008DB010008DB0100080F
:10016000DB010008DB0100089DCA00088DCA0008F9
:10017000DB010008ADCA0008DB010008DB01000854
:10018000DB010008DB010008DB010008DB010008DF
:10019000DB010008DB010008DB010008DB010008CF
:1001A000DB010008DB010008DB010008DFF80CD0F0
:1001B00000F000FC0048004789440108C07200209C
:1001C0000648804706480047FEE7FEE7FEE7FEE7F1
:1001D000FEE7FEE7FEE7FEE7FEE7FEE769F8000858
:1001E000AD010008D2B201E000F8012B491EFBD29C
:1001F00070470022F6E710B513460A460446194632
:10020000FFF7F0FF204610BD421E12F8013F002B01
:10021000FBD111F8013B02F8013B002BF9D17047EB
:1002200010B5044604E00B7800F8013B03B1491C0B
:10023000521EF8D2204610BD10B5002200E0521C1C
:10024000835C8C5CA34201D1002BF8D1D8B2E1B21F
:10025000401A10BD034611F8012B00F8012B002AAB
:10026000F9D11846704770B5064612F0E3F90468F4
:1002700005460A220021304600F030FA2C6070BD9D
:100280002DE9FE4F804681EA0300C00F0C46009026
:1002900021F0004123F00045B8EB0200A94105D24E
:1002A0004046214690461C460B46024623F000403D
:1002B000104347D0270DC7F30A00C3F30A51029039
:1002C000401A019040286BDAC3F3130040F4801BFE
:1002D0000098924620B10023D2EB030A63EB0B0B8C
:1002E00001985946C0F14002504600F077F90646A1
:1002F0000D4650465946019A00F08FF910EB080060
:100300006141002487EA115284EAE7731A4340D01E
:10031000009A62B3019A012A4FEA075215DC001BCA
:1003200061EB02014FF0004202EA0752CDE90042C0
:10033000001C41F5801132462B4600F04DFA03B007
:10034000BDE8F08F40462146F9E7001B61EB020152
:10035000001C41F5801300185B412018A2F500171E
:1003600047EB030140EAD570B6196D4111E06D0805
:100370004FEA360645EAC0754FEA0752001B61EBAB
:100380000201001C41F5801149084FEA30000019B4
:10039000514132462B4603B0BDE8F04F00F00DBA94
:1003A0000098012240000023D0EB020263EBE073CF
:1003B000009821464FEAE074B8EB000061EB0401BD
:1003C000E9E783F000435BE781F0004158E72DE95E
:1003D000FE4F81EA030404F0004421F00041009440
:1003E0004FF0000B23F0004350EA01045ED052EAC4
:1003F00003045BD0C3F30A54C1F30A552C44A4F29E
:10040000F3340194A0FB0254C1F3130141F48011B1
:10041000C3F3130343F4801301FB024400FB034EB8
:10042000840A970A44EA815447EA8357A4FB076881
:1004300002958D0A05FB07854FEA932C04FB0C54AB
:100440002705029D4FEA065847EA1637B5EB08051F
:100450006EEB070C870E920E47EA811742EA831271
:10046000A7FB0201B6EB0B0164EB00042B0D43EA82
:100470000C335E1844EB1C50DA465146E7FB020190
:10048000C5F313044FEA0B3343EA14534FEA043223
:10049000019C43EA0603A4F10C040294009CCDE9FC
:1004A00000B400F099F903B0BDE8F08F00200146D8
:1004B000F9E770B5C1F30A5201F000450024C1F319
:1004C000130140F2FF3341F480119A4201DA002017
:1004D00070BD40F233439A42A2F2334203DC5242EF
:1004E00000F08BF800E090402C43F1D0404270BD0A
:1004F00000F0004230F000400AD0C10D01F56071FB
:10050000C0F3160042EA0151C20840071143704788
:1005100000200146704701F0004330B421F0004153
:1005200050EA010206D00A0DA2F56072C1F3130170
:10053000002A02DC30BC00207047440F44EAC104AA
:10054000C100E01830BC00EBC25000F0FFB830B57D
:100550000B46014600202022012409E021FA02F581
:100560009D4205D303FA02F5491B04FA02F528441B
:10057000151EA2F10102F1DC30BD2DE9F05F054648
:10058000002092469B4688460646814640241BE052
:10059000284641464746224600F02FF853465A4621
:1005A000C01A914110D311461846224600F016F8A1
:1005B0002D1A67EB01084F4622460120002100F06A
:1005C0000DF817EB00094E41201EA4F10104DFDCF9
:1005D000484631462A464346BDE8F09F202A04DBC0
:1005E000203A00FA02F1002070479140C2F1200346
:1005F00020FA03F3194390407047202A04DB203A85
:1006000021FA02F00021704721FA02F3D040C2F132
:1006100020029140084319467047202A06DBCB1779
:10062000203A41FA02F043EAE07306E041FA02F3AD
:10063000D040C2F1200291400843194670470000A3
:100640000FB4002300B589B00CA900910B996FF08D
:100650000042CB601E4B06931E4B07930423CDE94B
:1006600001321D4A089202466B46002000F056FAFD
:1006700009B05DF814FB70B586B006464FF0FF3048
:100680000091CDE90101002015460C460490324648
:10069000694604A8FFF7D4FF02460498211825B143
:1006A00008B1084600E020462860049800280DD0D4
:1006B000002A02DD0098884208D0081B0094CDE98A
:1006C00001043246694604A8FFF7BAFF06B070BDC0
:1006D000550D0008730D0008E10900082DE9F047E9
:1006E00091460F4680460446002614F8015B2DB162
:1006F00000F072F90068405DC007F6D12B2D02D0E2
:100700002D2D18D0641E4A463946204600F042FB83
:1007100027B13968A14201D1C7F8008071054FF0B7
:1007200002040BD54042002803DD11F083FF046072
:10073000A007BDE8F08746F48066E4E70028F8DA11
:1007400011F078FF04606FF00040F2E70029A8BFC5
:100750007047401C490008BF20F00100704710B4EA
:10076000B0FA80FC00FA0CF050EA010404BF10BC9F
:10077000704749B1CCF1200421FA04F411FA0CF1CC
:1007800018BF012121430843A3EB0C01CB1D4FEA05
:1007900000614FEA102042BF002010BC704700EB00
:1007A000C35010440029A4BF10BC7047401C49002E
:1007B00008BF20F0010010BC704710B5141E73F183
:1007C000000408DA401C41F1000192185B411A4311
:1007D00001D120F0010010BD2DE9F04D92469B465D
:1007E00011B1B1FA81F202E0B0FA80F22032904603
:1007F000FFF7F4FE04460F4640EA0A0041EA0B0107
:1008000053465A46084313D0114653EA010019D003
:10081000C8F140025046FFF7F0FE05460E4650462E
:1008200059464246FFF7DAFE084305D0012004E0AE
:1008300020463946BDE8F08D0020054346EAE076C3
:100840002C4337430A986305E40AA0EB0800002212
:10085000FD0A44EA47540A3002D500200146E9E780
:10086000010510196941DDE9084500196941BDE834
:10087000F04DA2E72DE9F04D81EA030404F0004BAE
:1008800021F0004514464FF0000A23F0004150EAE1
:10089000050220D054EA01021DD0C5F30A570246D2
:1008A000C5F31303C1F31300C1F30A5640F48015D6
:1008B00043F48013A7EB0608101BD64608F2FD3858
:1008C00073EB050002D308F1010801E092185B41C7
:1008D000B8F1000F03DA00200146BDE8F08D0020DA
:1008E0004FF48011064684460EE0171B73EB050794
:1008F00005D3121B63EB050306434CEA010C4908C0
:100900004FEA300092185B4150EA0107EDD152EAFC
:10091000030012D082EA040083EA0501084305D0EF
:10092000101BAB4106D20122002306E000224FF04B
:10093000004302E06FF0010253101AEB06004CEB8B
:10094000085110EB0A0041EB0B01BDE8F04DFFF739
:1009500034BFC1F30A52C1F3130140F2FF3341F433
:1009600080119A4202DA00200146704740F2334378
:100970009A42A2F2334202DC5242FFF73EBEFFF738
:100980002DBE000030B5041E71F1000404DB4FF0F1
:100990000044404264EB0101141E73F1000405DBC6
:1009A0001C464FF00043524263EB0403994208BFD8
:1009B000904230BD064C074D06E0E06840F0010370
:1009C00094E8070098471034AC42F6D3FFF7F2FBE7
:1009D000BC7E0608DC7E060800487047B87E060824
:1009E00010B50446FFF7F8FF0068005D00F0010055
:1009F00010BD00002DE9FF4F087883B09946FF280D
:100A000005D0491C2D2804D00024002008E0002037
:100A10000BE00124F9E700EB800003EB4000491CE8
:100A20000B78FF2BF7D104B14042002302931478D6
:100A300019461D462D2C01D02B2C04D1521C2D2CD7
:100A400013D000240294AA461478FF2C0FD00A2554
:100A5000A3FB057801FB05814FF0000C03FB0C1193
:100A6000521CE3194AEB0101EEE70124EAE7814455
:100A700053EA010002D019F5C87F06DA0398002175
:100A8000C0E9001107B0BDE8F08F0025AE4E2F463B
:100A9000DFF8B882184600F0DAF9CDE90001B9F1C3
:100AA000000002DAC9F1000400E004460023A74A6E
:100AB0001AEB030B42EB045A12E0E00707D02A4678
:100AC000334638464146FFF782FC074688462A46A9
:100AD000334610461946FFF77AFC05460E46641069
:100AE000002CEAD1DDE90001B9F1000F5A46534666
:100AF00006DAFFF7BFFE3A464346FFF7BBFE05E0C6
:100B0000FFF765FC3A464346FFF761FC029A0AB1DB
:100B100081F00041039AC2E90001B3E72DE9FF4FDC
:100B20001F468DB0D7E901464FF0FF382E204546CD
:100B30004FF000090B90B9696D1C0E988847396A0F
:100B4000824688470028F6D1BAF1FF3F0AD024F444
:100B5000D064002E11DDBAF12B0F08D0BAF12D0FA1
:100B60000BD102E0404611B08DE744F48064B969CE
:100B70006D1C0E9888478246761E6946600501D531
:100B80002D2000E02B208DF8000001F1010B0DF16C
:100B9000200809E0B9696D1C0E98884782460F98B5
:100BA00044F40074761E0560002E02DDBAF1300FA9
:100BB000F0D00B998A453ED144F0800406E00F99AD
:100BC000681CA9F1010944F400740860B9696D1C3E
:100BD000761E0E98884782463028F0D02BE00B997D
:100BE0008A4505D1200603D444F08004761E18E01F
:100BF000504611F01FFE08B30DF11301761E44F4A8
:100C000000748B4508D2AAF130000BF8010B2006C6
:100C100007D5A9F1010003E0200602D409F1010083
:100C20008146A00502D50F99681C0860B9696D1C42
:100C30000E9888478246002ED1DC53E0002E51DD0D
:100C4000BAF1650F02D0BAF1450F4BD1A00549D5D5
:100C5000B9696D1C24F44074761E0E98884782464C
:100C6000002E0CDD2B2804D0BAF12D0F07D144F44F
:100C70008074B9696D1C0E9888478246761EE0051F
:100C800001D52D2100E02B2108F8011BCDF82C8087
:100C900021E00DF12901761E44F4007488450CD240
:100CA000AAF1300010F0FF0088F8000002D10B9983
:100CB000884509D908F1010806E0E00501D5244876
:100CC00001E042F20F708146B9696D1C0E988847A9
:100CD00082460F980560002E04DD504611F0AAFDF3
:100CE0000028D6D1F9690E988847FF208BF80000BC
:100CF00088F800000020069007904B466A4608A935
:100D000006A8FFF777FEA00502D46FF001002AE7DE
:100D100014F0240F0AD0E00714D1DDE90612386878
:100D2000031D3B600068C0E900120BE0DDE906012D
:100D3000FFF7F1FB0146E00704D13868021D3A6075
:100D40000068016028460EE7000014400000F03FF4
:100D5000F1D8FFFF426842B1016811F8013B23B1AD
:100D6000521EC0E90012184670470121C160881E5A
:100D7000704742685AB1C368016843B983688B42BF
:100D800005D0491E521CC0E90012002070474FF0E8
:100D9000FF3070472DE9F05F824600780027154646
:100DA0008B460AF10104B946302801D09DB113E009
:100DB00014F8010B0127782803D0582801D045B139
:100DC0000AE00DB1102D07D10027102514F8010BF2
:100DD00002E0082500E00A250026B0460EE005FBEB
:100DE000080005FB06F1012701EB10461FFA80F809
:100DF000B6F5803F00D3B94614F8010B294600F040
:100E000018F80028EBDABBF1000F05D00FB1641E13
:100E100000E05446CBF80040B9F1000F06D011F0C5
:100E200009FC02210160C81EBDE8F09F48EA0640A7
:100E3000FAE73A2800D2303820F02002412A01D3C4
:100E4000A2F13700884201D34FF0FF3070470EB552
:100E500040F2334202920022CDE900221346FFF70E
:100E6000BBFC03B000BD70B58C1810F8015B15F029
:100E7000070301D110F8013B2A1106D110F8012B0C
:100E800003E010F8016B01F8016B5B1EF9D12B0731
:100E900005D40023521E0DD401F8013BFAE710F8E7
:100EA000013BCB1A921C03E013F8015B01F8015BD4
:100EB000521EF9D5A142D8D3002070BD10B51448F8
:100EC000007808281ED11348007853381249097851
:100ED00000EBC100C4B29FED110A114800EB840081
:100EE00080ED000A0E4901EB8401D1ED000AB0EE5D
:100EF000600A084909785239C8B213F09BFC0EF019
:100F000015FB02E007F014F900BF00BF10BD0000A0
:100F10005A0100205B010020600100200000000059
:100F2000206C002021B1826842F00102826003E05F
:100F3000826822F001028260704700000021084AA6
:100F40001168084A1140D0E900231A4383681A4304
:100F5000C3681A431143044AC2F8041370470000DF
:100F600004230140E030FCFF0020014021B18268F1
:100F700042F48072826003E0826822F480728260B0
:100F8000704721B1826842F40072826003E0826897
:100F900022F40072826070471CB501211E200BF004
:100FA000FBFD8E20009002208DF8050001208DF8B9
:100FB000040000208DF8060001208DF80700694626
:100FC0000F4808F03FFD0E210D4808F0B1FD4FF429
:100FD0004060009069460B4808F034FD00208DF811
:100FE00004008DF80700802000906946064808F04C
:100FF00029FD0C2000906946044808F023FD1CBD23
:101000000008024000040240000C024000100240B0
:1010100030B50246002000235068104C20400D7966
:101020000C6844EA05242043506090680C4C204032
:10103000D1E903542C438D682C434D7944EA45048F
:1010400020439060D06A20F470000C7D641EE4B2EE
:10105000234340EA0350D06230BD0000FFFEFFFC96
:10106000FDF7FFC0F0B504460D4600200021092D14
:1010700011DDE068A5F10A0606EB4607072606FA29
:1010800007F18843A5F10A0606EB460603FA06F1C6
:101090000843E0600CE0206905EB4507072606FAE7
:1010A00007F1884305EB450603FA06F10843206182
:1010B000072A0FDA606B561E06EB86071F2606FA14
:1010C00007F18843561E06EB860605FA06F108432B
:1010D000606322E00D2A0FDA206BD61F06EB86072D
:1010E0001F2606FA07F18843D61F06EB860605FA87
:1010F00006F10843206310E0E06AA2F10D0606EB5A
:1011000086071F2606FA07F18843A2F10D0606EBB3
:10111000860605FA06F10843E062F0BD816841F0F9
:10112000804181607047000070B500244FF48061F9
:10113000234808F0FBFC012012F006FE00211920D4
:1011400011F017F9012012F0FFFD00200EF0ECFA6B
:1011500005464FF480611A4808F0EAFC05F0800566
:1011600015BB4FF48061164808F0E0FC01200EF03A
:101170000FFB4FF48061124808F0D8FC4FF48061F7
:101180000F4808F0D3FC01200EF0CEFA04462402EA
:1011900001200EF0C9FA0443240201200EF0C4FA23
:1011A00004430120074908704FF48061044808F0A7
:1011B000BFFCB4F57F0F01DD44F07F44204670BDD5
:1011C00000040240020200201CB5012108460BF079
:1011D000E3FC032000908DF8040000208DF8070048
:1011E0006946024808F02EFC1CBD000000000240C9
:1011F00010B5254800780D2843D2DFE800F04213EF
:1012000042421A070A100D424242290012F040FDE4
:1012100037E012F03DFD34E012F03AFD31E012F01B
:1012200037FD2EE019480078332801D112F030FD47
:1012300027E0164800785F2807D014480078602817
:1012400003D0124800785E2801D112F021FD18E089
:101250000E480078632806D0642807D065280BD094
:1012600067280CD105E012F013FD08E012F010FD24
:1012700005E012F00DFD02E012F00AFD00BF00BF14
:1012800000BF00BF10BD00005A0100205B0100201C
:101290001CB5012108020BF07FFC202000900120EA
:1012A0008DF8040000208DF8060001208DF807005D
:1012B00000208DF805006946034808F0C3FB202193
:1012C000014808F033FC1CBD0020024000BFFEE7CF
:1012D00010B52021054808F02BFC40F2FF5001F02A
:1012E000B6FD2021014808F021FC10BD002002407D
:1012F00000B587B0012181200BF04EFC01210803CD
:101300000BF08AFC05221146334808F0E3FB052266
:101310000621314808F0DEFB052207212E4808F09F
:10132000D9FB2020059002208DF819008DF81800B7
:1013300000208DF81A008DF81B0005A9264808F03A
:1013400081FB4020059005A9234808F07BFB802005
:10135000059005A9204808F075FB10200590012094
:101360008DF8180000208DF81A0005A91A4808F019
:1013700069FB2020059000208DF8180001208DF8D1
:101380001B0005A9154808F05DFB0020ADF8000022
:101390004FF48270ADF802000020ADF80400022086
:1013A000ADF806000120ADF808004002ADF80A00D3
:1013B0003820ADF80C000020ADF80E000720ADF885
:1013C0001000694606480EF015F8012104480DF09A
:1013D000ABFD07B000BD000000000240001C024051
:1013E0000030014010B52DED048B84B0B0EE408A82
:1013F000BDEEC80A10EE100A002801DB014600E02D
:1014000041420A2291FBF2F10CB2882108460AF00F
:10141000C1FA1F238A22D221C82009F011FF6FF0E0
:101420007F400AF0DDFA88200AF0AEFA44BBB5EE40
:10143000C08AF1EE10FA11DB18EE100AFFF758F827
:1014400041EC190B53EC192B4AA101A811F0DEF85D
:1014500001AAFB21D22009F0DDFC81E018EE100A80
:10146000FFF746F841EC190B53EC192B41A101A8E9
:1014700011F0CCF801AAEB21D22009F0CBFC6FE0EF
:10148000012C2ADB0A2C28DAB5EEC08AF1EE10FA1C
:1014900011DB18EE100AFFF72BF841EC190B53EC97
:1014A000192B34A101A811F0B1F801AAEB21D22027
:1014B00009F0B0FC54E018EE100AFFF719F841ECFF
:1014C000190B53EC192B2BA101A811F09FF801AABD
:1014D000DB21D22009F09EFC42E00A2C2ADB642C9E
:1014E00028DAB5EEC08AF1EE10FA11DB18EE100A18
:1014F000FEF7FEFF41EC190B53EC192B1DA101A8BF
:1015000011F084F801AADB21D22009F083FC27E046
:1015100018EE100AFEF7ECFF41EC190B53EC192BF7
:1015200014A101A811F072F801AACB21D22009F070
:1015300071FC15E0642C13DBB4F57A7F10DA18EE39
:10154000100AFEF7D5FF41EC190B53EC192B09A13A
:1015500001A811F05BF801AACB21D22009F05AFCB6
:1015600006A24FF4B471D22009F054FC04B0BDECD3
:10157000048B10BD252E3166000000006D532F63D3
:101580006D00000070B506460C4604F0800080280F
:1015900008D104F07F0000EB800106F58E7000EBAF
:1015A000C10505E004EB840106F55D7000EBC105A3
:1015B0000020A87004F07F002870C4F3C010687089
:1015C0002946304610F0D2FC002070BD2DE9F041D4
:1015D00006460D4690461F4605F08000802808D13B
:1015E00005F07F0000EB800106F58E7000EBC10472
:1015F00007E005F07F0000EB800106F55D7000EB71
:10160000C10405F07F00207005F08000C009607003
:10161000C4F80880E770607808B12078E080022F75
:1016200001D1002020712146304610F047FC0020F7
:10163000BDE8F0812DE9F04105460E461746984673
:1016400006F07F0000EB800105F55D7000EBC10442
:10165000E760C4F814800020A061607006F07F008D
:101660002070E878012800D12761207820B9214630
:10167000284610F047FB03E02146284610F0D0FC36
:101680000020BDE8F08108B500220092009A61F3C5
:101690000A12009202691268009B1A4303691A60D9
:1016A00008BD70B506460C4604F08000802808D1BD
:1016B00004F07F0000EB800106F58E7000EBC105A1
:1016C00005E004EB840106F55D7000EBC105012027
:1016D000A87004F07F002870C4F3C0106870294619
:1016E000304610F06BFC002070BD2DE9F04107463C
:1016F0000D461646984605F07F0000EB800107F581
:101700008E7000EBC1040120607005F07F00207036
:10171000E66026610020A061C4F81480207820B91A
:101720002146384610F0EEFA03E02146384610F024
:1017300077FC0020BDE8F0811CB50446204610F07F
:10174000ACFAE068C0680090204610F08FFD0328D6
:101750000BD10020A0704FF40070A080009820F4FE
:10176000705000F51050009009E00120A07040205A
:10177000A080009820F4705000F5A05000900098D0
:10178000E168C86000200190019820F4005000F545
:10179000005001900198E168486101201CBD0000E3
:1017A000F8B50546002400200090284610F091FD71
:1017B000064690E006F0010000287DD0E1B2284600
:1017C00000F0D0FA0090009800F0010030B3012042
:1017D00000FA04F72869406BB84329694863002080
:1017E0000090009820F00100401C009005F11800C6
:1017F00050F8240000998160E1B2394800684268DD
:1018000028469047E878012808D13CB940F21110E9
:10181000405D042802D1284610F01FFB0098C0F359
:10182000C00060B100200090009820F0080008304F
:10183000009005F1180050F824000099816000988C
:10184000C0F3001060B100200090009820F010005C
:101850001030009005F1180050F8240000998160C4
:101860000098C0F3801060B100200090009820F034
:1018700040004030009005F1180050F82400009915
:1018800081600098C0F3400060B100200090009893
:1018900020F00200801C009005F1180050F8240090
:1018A000009981600098C0F3C01028B121462846F5
:1018B00000F082FA002000E00BE00090009820F099
:1018C00080008030009005F1180050F82400009945
:1018D0008160641C7608002E7FF46CAF0120F8BD97
:1018E000C00200207CB5044600250020019020465F
:1018F00010F0F7FC06466FE006F00100002869D002
:10190000E9B2204610F0F5FC0190019800F00100CA
:10191000C8B300200190019820F00100401C019004
:1019200004F1540050F8250001998160E078012805
:1019300017D104F1540050F825000069009005EB20
:10194000850104F55D7000EBC10080680099C1F36A
:101950001201411A05EB850204F55D7000EBC2002F
:101960008161E9B21E480068026820469047E0782D
:10197000012808D13DB940F21110005D052802D1BF
:10198000204610F06AFA0198C0F3400060B10020D0
:101990000190019820F00200801C019004F1540095
:1019A00050F82500019981600198C0F3C00088B10A
:1019B0000B48006881682046884700200190019804
:1019C00020F008000830019004F1540050F8250080
:1019D000019981606D1C7608002E8DD101207CBD9F
:1019E000C00200203EB50446A07A70B1D4F80C01C4
:1019F0000090009820F002000090009820F0010074
:101A000000900099D4F80C01016000200190019829
:101A100020F00100401C0190206940680199884332
:101A2000216948600848006881692046884700208D
:101A30000290029820F0004000F1004002900298CD
:101A4000E168486101203EBDC00200207CB504462B
:101A500000200190019820F0100010300190E06803
:101A6000806901998843E1688861E068006A0090B4
:101A7000009800F00F0000EB800104F55D7000EBB2
:101A8000C1050098C0F3434007282DD2DFE800F0DD
:101A90002C04051D1E2C1F0027E00098C0F30A101F
:101AA00090B10098C0F30A122046E96810F02BFCB0
:101AB000E8680099C1F30A110844E860A869009930
:101AC000C1F30A110844A8610FE00EE00DE00822FE
:101AD00004F2CC51204610F016FCA8690099C1F31D
:101AE0000A110844A86100E000BF00BFE0688069F7
:101AF00001990843E168886101207CBD38B504463E
:101B000008480068C1682046884700200090009877
:101B100020F00800083000900098E168486101203A
:101B200038BD0000C00200201FB504460020009010
:101B30004FF48970005D0090234800684169204699
:101B4000884720698068019000200390039820F462
:101B5000006000F5006003900398E1684861A07A96
:101B600070B3019800F0010050B340F21510005D11
:101B7000012825D19DF80000032821D100200290E2
:101B8000029820F00100401C0290D4F80C0100687B
:101B900002990843D4F80C110860029820F0020062
:101BA000801C0290D4F80C01006802990843D4F814
:101BB0000C1108600548006840F006000349086001
:101BC000012004B010BD0000C002002010ED00E0B4
:101BD00030B587B00446002002900690059004902E
:101BE00003900190029820F00100401C02902069AF
:101BF000406802998843216948600021204610F01E
:101C00000BFB00250BE0FF2104F1180050F8250024
:101C1000816004F1540050F8250081606D1C6078EB
:101C2000A842F0D84FF0FF312069816106986FF328
:101C30000F00401C0690069880B200F58030069098
:101C400006992069C161059820F0080008300590C8
:101C5000059820F00100401C0590059820F0020036
:101C6000801C059005992069416105992069C0F89B
:101C70008410049820F00100401C0490049820F087
:101C8000080008300490049820F00200801C0490A2
:101C90000499206901610499206941642069006800
:101CA0000390039820F4FE6003900399206901607B
:101CB000204610F0D2F800200190019820F48050C6
:101CC00000F5805001900198E16848610348006880
:101CD000016920468847012007B030BDC0020020BE
:101CE00038B504460020009007480068C1692046C6
:101CF0008847009820F4801000F58010009000982C
:101D0000E1684861012038BDC002002038B50446B2
:101D10000020009007480068016A20468847009824
:101D200020F4001000F5001000900098E168486170
:101D3000012038BDC002002038B50446E068406884
:101D400000900098C0F3800020B105480068816AC7
:101D5000204688470098E1684860012038BD0000AF
:101D6000C002002030B5024615692B6915696C6BFD
:101D700024FA01F505F0010543EAC51302F118053F
:101D800055F82150AD6805EA030030BD38B504466A
:101D900008480068416A2046884700200090009863
:101DA00020F0804000F1804000900098E168486198
:101DB000012038BDC00200202DE9F84306460F4639
:101DC00000250020009007EB870106F58E7000EBE0
:101DD000C104D4E90501451AA068A84200D2A5684B
:101DE000E81C4FEA900806F1180050F827008069B7
:101DF000009029E0D4E90501451AA068A84200D264
:101E0000A568E81C4FEA9008ABB2FAB23046E16828
:101E100010F08DFAE0682844E060A0692844A061D1
:101E2000D4E90510884209D32278012101FA02F091
:101E30003169496B81433269516310E006F1180042
:101E400050F8270080690090009880B2404506D97C
:101E5000D4E90510884202D260690028CAD100BFC7
:101E60000120BDE8F8830000F0B507460E46144691
:101E7000354620E0207880280EDA1B4809F094FDD2
:101E800022782946384608F06FFF18480068808895
:101E9000284485B2641C0EE0154809F085FD2246F1
:101EA0002946384600F026F8104800688088284403
:101EB00085B2641C641CB5F5207F14DA0B480068F9
:101EC0008088284480B2094909688988884201DBF2
:101ED000012000E00020217809B1012100E000216B
:101EE00008400028C6D1F0BDB800002084000020C2
:101EF000480100202DE9F041074688461646002497
:101F0000164D20E03078C4EBC40101EB410115F817
:101F10001110884214D17078C4EBC40101EB410167
:101F200005EB4101497888420AD1C4EBC40000EBBB
:101F3000400005EB4000821C4146384609F0F2F8AB
:101F4000601C84B200BFC4EBC40000EB400015F875
:101F500010008028D6DC00BFBDE8F081873B020876
:101F6000F0B507460E461446354620E02078802816
:101F70000EDA1B4809F018FD22782946384608F089
:101F8000F3FE184800688088284485B2641C0EE07F
:101F9000154809F009FD22462946384600F026F882
:101FA000104800688088284485B2641C641CB5F51C
:101FB000207F14DA0B4800688088284480B20949E1
:101FC00009688988884201DB012000E0002021782F
:101FD00009B1012100E0002108400028C6D1F0BD70
:101FE000F800002084000020380100202DE9F04195
:101FF0000746884616460024144D1DE0307804EB51
:102000008401C1EB8411695C884212D1707804EBC1
:102010008401C1EB841129444978884209D104EB39
:102020008400C0EB84102844821C4146384609F0E5
:1020300079F8601C84B200BF04EB8400C0EB84100C
:10204000285C8028DADC00BFBDE8F081902002081F
:10205000F0B507460E461446354620E02078802825
:102060000EDA1B4809F0A0FC22782946384608F011
:102070007BFE184800688088284485B2641C0EE006
:10208000154809F091FC224629463846FFF7AEFF75
:10209000104800688088284485B2641C641CB5F52B
:1020A000207F14DA0B4800688088284480B20949F0
:1020B00009688988884201DB012000E0002021783E
:1020C00009B1012100E0002108400028C6D1F0BD7F
:1020D0000001002084000020380100202DE9F0419B
:1020E00080460E4614461F463546002F3AD120E062
:1020F000207880280EDA254809F056FC22782946F7
:10210000404608F031FE224800688088284485B2A5
:10211000641C0EE01F4809F047FC22462946404651
:1021200008F042FE1A4800688088284485B2641C82
:10213000641CB5F5207F26DA15480068808828449D
:1021400080B2134909688988884201DB012000E0D8
:102150000020217809B1012100E000210840002879
:10216000C6D110E0012F0ED18821084609F012FCDB
:10217000282390224146304609F062F888216FF00A
:102180007F4009F007FCBDE8F0810000E00000207E
:10219000840000203001002010B50121C8050AF09C
:1021A0000BFD00214FF400000AF006FD10BD0000F9
:1021B00001460020034A52680A400AB1012000E0AB
:1021C0000020704700B0024070B5002100220023BB
:1021D0000024344D2D68344E3540324E356035463E
:1021E0002D68066835432F4E356035466D6B25F0FA
:1021F0000705756335466D6B46683543294E756333
:10220000456835B9C5682902058A2A04057D2B066B
:1022100021E04568012D05D1C5682902058A2A04F7
:10222000002318E04568022D05D1C56869010569DC
:10223000EA0200230FE04568032D06D1C568690155
:102240000569AA024569EB0305E0C568290105692E
:102250002A0245692B0341EA0205866835431D437E
:10226000104EB66B35430F4EB5638569F563354641
:102270002D6C6FF30D05356435462D6CC6693543FD
:10228000084E3564858C2C0435466D6C05F0404550
:10229000756435466D6C066A26433543014E756498
:1022A00070BD000000B00240FCE0FCFF0348006885
:1022B00040F00100014908607047000000B0024092
:1022C00021B1026842F00102026003E0026822F0DC
:1022D000010202607047000010B500220268134B33
:1022E0001A40CC680B6823434C6923438C69234311
:1022F000CC6923430C6A23434C6A23438C6A2343EF
:102300004C6B23438C6B23431A430260426922F0D7
:102310000702D1E90B3423431A4342610B6943603E
:102320004B6883608B68C36010BD00003F801CF069
:1023300010B520480078001F092839D2DFE800F0E6
:10234000110509380D38383821001BA011F084FF21
:102350002EE019A011F080FF2AE017A011F07CFFF9
:1023600026E0164800785F2807D0144800786028D7
:1023700003D0124800785E2802D10FA011F06CFF44
:1023800016E00E480078632804D0642806D0672839
:102390000CD107E008A011F05FFF07E006A011F0E4
:1023A0005BFF03E004A011F057FF00BF00BF00BFB8
:1023B00000BF10BD5A0100202E0000005B0100206C
:1023C00010B50024FE4800780C280AD004DC01284F
:1023D0007ED004287DD1ECE00D287BD00E28F9D1E9
:1023E0006DE3F84800786238052837D2DFE800F05E
:1023F00003374D60A00011F0ADFEF34890F83000B7
:1024000080B9F14890F83900012805D1EFA2D22116
:10241000362008F0FFFC15E0EEA2D221362008F0AD
:10242000F9FC0FE0E84890F83900012805D1EBA24B
:10243000D221322008F0EEFC04E0E9A2D2213220C1
:1024400008F0E8FC11F0BEFEE648D0ED280AB0EE38
:10245000600A14F08BFC6320DA490870A7E011F0E1
:1024600079FEE048D0ED280AB0EE600A14F0CEFB09
:1024700011F0A8FEDB48D0ED290AB0EE600A14F096
:1024800023FE6420CF49087091E011F063FED54827
:10249000D0ED290AB0EE600A14F036FD11F092FE7C
:1024A000D149886911F0B6FC6520C64908707EE004
:1024B00011F050FECC49886911F052FC11F082FEF7
:1024C000C14890F83000A0B9BF4890F83A0002E047
:1024D000C0E3CEE2CEE2012805D1BCA2D221D620B3
:1024E00008F098FC15E0BBA2D221D62008F092FC9F
:1024F0000FE0B54890F83A00012805D1B7A2D221E3
:10250000084608F087FC04E0B5A2D221084608F08E
:1025100081FCAD4890F8300018B9B4A001F05EFC21
:1025200002E0B5A001F05AFC6620A64908703EE022
:1025300011F010FEA44890F8300080B9A24890F83D
:102540003A00012805D1A1A2D221D62008F062FCD0
:1025500015E0A0A2D221D62008F05CFC0FE09A483A
:1025600090F83A00012805D19CA2D221084608F033
:1025700051FC04E09AA2D221084608F04BFC11F06D
:1025800021FE9848D0ED2A0AB0EE600A11F098FAC0
:102590008D4890F8300018B99CA001F01FFC02E0B3
:1025A0009EA001F01BFC67208649087000BF00BF99
:1025B0005FE2844800782C2806D02D285DD02E2894
:1025C00071D0312858D1CDE111F0C4FD7E4890F88A
:1025D0002C0078B97C4890F8300028B97DA296216B
:1025E000322008F017FC14E07DA29621322008F07A
:1025F00011FC0EE0744890F8300028B973A29621BF
:10260000322008F007FC04E074A29621322008F082
:1026100001FC11F0D7FD6C4890F82A0078B96A489F
:1026200090F8300028B96BA296215A2008F0F2FBEE
:1026300014E06BA296215A2008F0ECFB0EE06248F1
:1026400090F8300028B961A296215A2008F0E2FBE8
:1026500004E062A296215A2008F0DCFB5A4890F868
:10266000300018B971A001F0B9FB02E072A001F0CE
:10267000B5FB2D2053490870FAE111F06BFD52486B
:1026800090F82A0080B9504890F8300028B951A23B
:1026900096215A2008F0BEFB15E051A296215A203F
:1026A00008F0B8FB0FE0FDE0474890F8300028B98B
:1026B00046A296215A2008F0ADFB04E047A29621DD
:1026C0005A2008F0A7FB6049084609F063F93E4824
:1026D00090F83000D8BB3C4890F82B0005280ED16C
:1026E0001F2360227F21962008F0AAFD002009F018
:1026F00077F956A29621822008F08CFB5EE03248E2
:1027000090F82B0001280ED11F2360227F219620F4
:1027100008F096FD002009F063F94FA2962182206F
:1027200008F078FB4AE01F2378227F21962008F0EA
:1027300087FD002009F054F94AA29621822008F072
:1027400069FB4AA2E1217F2008F064FB36E0FFE745
:102750001D4890F82B0005280ED11F2340227F2111
:10276000962008F06DFD002009F03AF940A296216C
:102770007F2008F04FFB21E0134890F82B00012840
:102780000ED11F2340227F21962008F059FD002002
:1027900009F026F938A296217F2008F03BFB0DE0D6
:1027A0001F2350227F21962008F04AFD002009F0C7
:1027B00017F933A296217F2008F02CFB024863E032
:1027C0005A0100205B01002098030020B4F2BFAA48
:1027D00000000000B9D8B1D5000000004F4E000045
:1027E0004F464600206C0020086A0020BCC6CBE3A0
:1027F000BFAAB9D80000000043616C63756C6174B6
:10280000696F6E204F4E2F4F46460000B5E7BCABB8
:10281000B3A3CAFDC9E8D6C3000000005365742005
:10282000436F6E7374616E7400000000B7E4C3F907
:10283000C6F7C9E8D6C3000042757A7A6572204FA0
:102840004E2F4F464600000000FFFF00BEF8B6D4F2
:10285000D6B5BEF400000000B0D9B7D6B1C8B7DB1A
:1028600000000000D6B1B6C1D6B5000053455100F6
:102870004142537E000000005052452500000000F8
:10288000442D53455100000090F8300018B9F2A0D3
:1028900001F0A4FA02E0F4A001F0A0FA2E20F7491A
:1028A0000870E5E08821084609F074F81F2390229B
:1028B0007F21962008F0C4FC11F04CFCF04890F801
:1028C000300020BBEE4890F82B00052806D1AFF26F
:1028D00084029621822008F09DFA36E0E84890F8BC
:1028E0002B00012806D1AFF290029621822008F039
:1028F00091FA2AE0AFF294029621822008F08AFA37
:10290000AFF29802E1217F2008F084FA1DE0DC4854
:1029100090F82B00052806D1AFF2AC0296217F205B
:1029200008F078FA11E0D64890F82B00012806D17B
:10293000AFF2BC0296217F2008F06CFA05E0AFF2FE
:10294000C00296217F2008F065FA11F03BFCCD48CB
:10295000D0ED2C0AB0EE600A10F0D6FE6020C74918
:10296000087085E011F0F6FBC54890F82E0088B994
:10297000C34890F8300030B9C3A24FF4FA71322046
:1029800008F048FA33E0C2A24FF4FA71322008F09E
:1029900041FA2CE0BA4890F82E00012811D1B8482D
:1029A00090F8300030B9BCA24FF4FA71322008F030
:1029B00031FA1CE0BAA24FF4FA71322008F02AFA78
:1029C00015E0AF4890F82E00022810D1AC4890F8DE
:1029D000300030B9B3A24FF4FA71322008F01AFA7D
:1029E00005E0B2A24FF4FA71322008F013FAA548BC
:1029F000D0ED2D0AB0EE600A12F0CAFB11F0E2FB36
:102A00009F4890F8360030B9AAA240F25D215A20C2
:102A100008F000FA1DE09A4890F83600012806D127
:102A2000A5A240F25D215A2008F0F4F911E0944883
:102A300090F83600022806D1A0A240F25D215A206B
:102A400008F0E8F905E09EA240F25D215A2008F066
:102A5000E1F98B4890F8300018B99AA001F0BEF95E
:102A600002E09BA001F0BAF95E208449087000BF23
:102A700000BFC8E1814800782C2818D0312810D038
:102A8000692802D06A2818D105E06A207B490870BD
:102A900000F0E6F911E06B207849087000F0E0F9E9
:102AA0000BE02C207549087000F0DAF905E02D20C4
:102AB0007249087000F0D4F900BF00BFA3E16F486D
:102AC000007840287CD009DCA0F13800072822D209
:102AD000DFE800F022324354657C8D00442870D03A
:102AE00006DC41286ED042286DD0432813D10DE179
:102AF000452869D0462868D06C28F7D178480078F6
:102B000030B9784809F00CFF7749012011F078FCC2
:102B100038205A4908703DE17148007840B972493F
:102B20000A31022011F06CFC6F49012011F03CFCCD
:102B30003920524908702DE16948007848B96A493E
:102B40000A31022011F030FC67491431032011F0E2
:102B500057FC3A20494908701CE16148007848B99F
:102B600061491431032011F01FFC5F491E3104201C
:102B700011F046FC3B20414908700BE158480078B1
:102B800048B959491E31042011F00EFC564928312C
:102B9000052011F035FC3C2038490870FAE0504817
:102BA000007848B950492831052011F0FDFB4E4905
:102BB0003231062011F024FC3D2030490870E9E054
:102BC00026E0B4E035E091E0C2E0D2E0444800788D
:102BD00048B945493231062011F0E6FB42493C3103
:102BE000072011F00DFC3E2024490870D2E03C483B
:102BF000007848B93C493C31072011F0D5FB3A49EF
:102C00004631082011F0FCFB3F201C490870C1E050
:102C10003348007848B934495A31022013F0C2FED3
:102C200031495031012013F093FE412013490870BF
:102C3000B0E02B48007848B92B495A31022013F0F4
:102C400087FE29496431032013F0ACFE42200B4972
:102C500008709FE0A0E00000B1C8BDCFC4A3CABD0A
:102C6000D1A1D4F10000000053656C65637420733A
:102C70006F7274696E67206D6F6465005B01002080
:102C800098030020206C0020BFECCBD9000000008E
:102C90004641535400000000D6D0CBD900000000BC
:102CA0004D454400C2FDCBD900000000534C4F57A6
:102CB000000000006D230000230000006B230000D3
:102CC0004D23000020B1EAB3C6C9E8D6C300000016
:102CD0004E6F6D696E616C2076616C7565000000E9
:102CE0005F010020B06D0020106D00204748007883
:102CF00040B94749032013F02BFE45490A3104200F
:102D000013F050FE43204349087043E03F480078E9
:102D100048B93F490A31042013F01AFE3C491431E6
:102D2000052013F03FFE44203A49087032E037484E
:102D3000007848B936491431052013F009FE3449AA
:102D40001E31062013F02EFE45203249087021E086
:102D50002E48007848B92E491E31062013F0F8FDA0
:102D60002B492831072013F01DFE46202949087001
:102D700010E02648007848B925492831072013F08B
:102D8000E7FD23493231082013F00CFE472021498A
:102D9000087000BF00BF36E01E4800785B2818D0DE
:102DA00006DC322827D0352807D0362829D10AE07A
:102DB0005C2814D05D2824D117E03620154908700E
:102DC00000F056FB1DE05B201249087000F050FB3C
:102DD00017E05C200F49087000F04AFB11E05D200D
:102DE0000C49087000F044FB0BE0322009490870E0
:102DF00000F03EFB05E033200649087000F038FB88
:102E000000BF00BF00BF00BF10BD00005F01002079
:102E1000746D00205B0100200CB5FDEEC00A10EEC1
:102E2000902A12B2ADF80020064A525C8DF80220BA
:102E3000054A525C8DF80320009A0260BDF8042018
:102E400082800CBD0A74010815740108704701B531
:102E500002E00098401E009000980028F9D108BDBB
:102E600010B5002498480078692802D111F0AAF919
:102E700001E011F06FF9954890F83B0078B993485C
:102E800090F8300028B992A29621322007F0C2FFB4
:102E900014E091A29621322007F0BCFF0EE08B488F
:102EA00090F8300028B98FA29621322007F0B2FFA7
:102EB00004E08EA29621322007F0ACFF8248007811
:102EC0006A2802D111F07EF901E011F043F9884837
:102ED00090ED310AF2EE020AB4EEE00AF1EE10FAD9
:102EE00003DD9FED840A80ED310A814890ED310ABF
:102EF000BCEEC00A10EE100AC4B27F487F490978C0
:102F000000EB810296215A2007F084FF04EB840035
:102F10007B4901EB4002C6215A2007F07BFF6A483B
:102F200000786B2802D111F04DF901E011F012F98F
:102F3000664890F8300068B96D4890ED2E0AB5EEFD
:102F4000C00AF1EE10FA12D16EA29621822007F08B
:102F500061FF0CE0664890ED2E0AB5EEC00AF1EE76
:102F600010FA04D169A296217F2007F053FF56483A
:102F70000078312802D111F025F901E011F0EAF8CA
:102F8000524890F82E0088B9504890F8300030B977
:102F900060A24FF4FA71322007F03CFF33E05FA2E9
:102FA0004FF4FA71322007F035FF2CE0474890F8D3
:102FB0002E00012811D1454890F8300030B959A2AF
:102FC0004FF4FA71322007F025FF1CE057A24FF4AE
:102FD000FA71322007F01EFF15E03C4890F82E00F1
:102FE000022810D1394890F8300030B950A24FF47F
:102FF000FA71322007F00EFF05E04FA24FF4FA718C
:10300000322007F007FF304800782C2802D111F059
:10301000D9F801E011F09EF82C4890F82C0088B9FE
:103020002A4890F8300030B945A24FF4FA715A207E
:1030300007F0F0FE17E044A24FF4FA715A2007F0AF
:10304000E9FE10E0214890F8300030B93FA24FF47B
:10305000FA715A2007F0DEFE05E03EA24FF4FA7145
:103060005A2007F0D7FE184800782D2802D111F019
:10307000A9F801E011F06EF8144890F82A0088B918
:10308000124890F8300030B92DA24FF4FA71822026
:1030900007F0C0FE17E02CA24FF4FA71822007F06F
:1030A000B9FE10E0094890F8300030B927A24FF47B
:1030B000FA71822007F0AEFE05E026A24FF4FA7105
:1030C000822007F0A7FE10BD5B01002098030020BE
:1030D000C4DAB2BF00000000494E5445524E414C84
:1030E00000000000CAD6B6AF000000004D414E00FF
:1030F000206C0020000000006E020020080200206A
:103100000A020020B4F3B5E7C1F70000482D43558B
:1031100052000000BFECCBD90000000046415354E0
:1031200000000000D6D0CBD9000000004D4544007F
:10313000C2FDCBD900000000534C4F5700000000E7
:10314000B9D8B1D5000000004F464600B4F2BFAA7E
:10315000000000004F4E000010B59748007800288E
:103160007ED19648007869280CD006DC2C2878D0CF
:103170002D2877D031282DD1E4E06A282BD06B2878
:10318000F9D170E003F02EFD8D4808F029FC0020F5
:1031900008F0FAFB8B4890F8300060B98AA223212E
:1031A00040F2BD1007F036FE89A29D2140F2BD100D
:1031B00007F030FE0BE088A2232140F2BD1007F09B
:1031C00029FE88A29D2140F2BD1007F023FE0120B8
:1031D00079490870EDE003F005FD794808F000FC3E
:1031E000002008F0D1FB774890F8300098B97EA213
:1031F000232140F2BD1007F00DFE7DA29D2140F27B
:10320000BD1007F007FE7CA24FF4927140F2BD1092
:1032100007F000FE12E07AA2232140F2BD1007F071
:10322000F9FD79A29D2140F2BD1007F0F3FD78A2CF
:103230004FF4927140F2BD1007F0ECFD75A240F220
:10324000B3114FF4E17007F0E5FD73A24FF40E7176
:103250004FF4E17007F0DEFD012057490870A8E047
:10326000A8E01DE045E003F0BDFC554808F0B8FBC0
:10327000002008F089FB534890F8300030B967A26D
:103280000A2140F2BD1007F0C5FD05E065A214213A
:1032900040F2BD1007F0BEFD01204749087088E0EC
:1032A00003F0A0FC464808F09BFB002008F06CFBF4
:1032B000444890F8300060B95CA2232140F2BD1070
:1032C00007F0A8FD5BA29D2140F2BD1007F0A2FD12
:1032D0000BE05AA2232140F2BD1007F09BFD58A23B
:1032E0009D2140F2BD1007F095FD01203249087084
:1032F0005FE003F077FC324808F072FB002008F032
:1033000043FB304890F8300060B948A2232140F2D6
:10331000BD1007F07FFD47A29D2140F2BD1007F0D0
:1033200079FD0BE045A2232140F2BD1007F072FDAC
:1033300043A29D2140F2BD1007F06CFD01201E4903
:10334000087036E003F04EFC1D4808F049FB0020F1
:1033500008F01AFB1B4890F8300098B939A22321D5
:1033600040F2BD1007F056FD38A29D2140F2BD107D
:1033700007F050FD37A24FF4927140F2BD1007F0F4
:1033800049FD12E035A2232140F2BD1007F042FDB5
:1033900034A29D2140F2BD1007F03CFD32A24FF453
:1033A000927140F2BD1007F035FD0120024908700E
:1033B00000BF00BF10BD00005E0100205B010020C7
:1033C00000FFFF0098030020C4DAB2BF0000000035
:1033D000CAD6B6AF00000000494E5445524E414C8B
:1033E000000000004D414E00D7D4B6AF00000000F1
:1033F000B1A3B3D600000000B1EAB3C600000000DC
:103400004155544F00000000484F4C44000000005C
:103410004E4F4D002B0000002D000000B4F3B5E727
:10342000C1F70000482D435552000000B4F2BFAA76
:1034300000000000B9D8B1D5000000004F4E0000D8
:103440004F464600BFECCBD900000000D6D0CBD908
:1034500000000000C2FDCBD90000000046415354DB
:10346000000000004D454400534C4F570000000041
:103470000EB5F448007835280DD1F34890F83000A7
:1034800018B9F2A000F0AAFC02E0F4A000F0A6FC3B
:1034900010F098FE01E010F05DFEEB4890F830006F
:1034A00028B9F4A2AA21322007F0B4FC04E0F3A268
:1034B000AA21322007F0AEFCE24800785B280DD14B
:1034C000E14890F8300018B9EEA000F087FC02E067
:1034D000F0A000F083FC10F075FE01E010F03AFE61
:1034E000D94890F8310040B90A20EE4908700A2204
:1034F000EDA168460FF08AF836E0D34890F8310025
:10350000012808D11420E74908701922E6A168466D
:103510000FF07CF828E0CC4890F83100022808D160
:103520002820E04908703222DFA168460FF06EF8CB
:103530001AE0C54890F83100032808D13C20D94949
:1035400008704B22D8A168460FF060F80CE0BE4826
:1035500090F83100042807D15020D2490870642225
:10356000D1A168460FF052F86A46AA21822007F0DE
:1035700051FCB448007836280AD1B34890F830009E
:1035800018B9CAA000F02AFC02E0CBA000F026FC8B
:10359000AC4800785C280DD1AB4890F8300018B9E1
:1035A000C9A000F01BFC02E0CBA000F017FC10F05B
:1035B00009FE01E010F0CEFDA34890F8300000288D
:1035C00049D1A14890F8320028B9C8A2AA21AE205A
:1035D00007F020FC8DE09C4890F8320001280AD1C9
:1035E0000522B1A168460FF011F86A46AA21AC2065
:1035F00007F010FC7DE0944890F8320002280AD1D0
:103600000A22A9A168460FF001F86A46AA21AC2057
:1036100007F000FC6DE08C4890F8320003280AD1D6
:103620000F22A1A168460EF0F1FF6A46AA21AC2044
:1036300007F0F0FB5DE0844890F83200062858D18E
:103640001E2299A168460EF0E1FF6A46AA21AC202D
:1036500007F0E0FB4DE07C4890F83000012848D1AD
:10366000794890F8320028B9A2A2AA21AC2007F02C
:10367000D1FB3EE0744890F8320001280AD10522BF
:1036800089A168460EF0C2FF6A46AA21AC2007F065
:10369000C1FB2EE06C4890F8320002280AD10A22C1
:1036A00081A168460EF0B2FF6A46AA21AC2007F05D
:1036B000B1FB1EE0644890F8320003280AD10F22C3
:1036C00079A168460EF0A2FF6A46AA21AC2007F055
:1036D000A1FB0EE05C4890F83200062809D11E22BA
:1036E00071A168460EF092FF6A46AA21AC2007F04D
:1036F00091FB544800785D280DD1534890F8300074
:1037000018B97DA000F06AFB02E07EA000F066FB25
:1037100010F058FD01E010F01DFD4B4890F830000E
:1037200080B9494890F83400012805D178A2AA212F
:10373000D62007F06FFB1AE06CA2AA21D62007F072
:1037400069FB14E0404890F8300001280FD13E4852
:1037500090F83400012805D16FA2AA21D42007F0E7
:1037600059FB04E063A2AA21D42007F053FB35489B
:10377000007832280DD1344890F8300018B967A08D
:1037800000F02CFB02E068A000F028FB10F01AFD0E
:1037900001E010F0DFFC2C4890F82F0028B967A258
:1037A000AA21FC2007F036FB2AE0274890F82F00DA
:1037B000012805D163A2AA21FC2007F02BFB1FE002
:1037C000214890F82F00022805D160A2AA21FC20F0
:1037D00007F020FB14E01C4890F82F00032805D1C7
:1037E0005CA2AA21FC2007F015FB09E0164890F81E
:1037F0002F00042804D159A2AA21FC2007F00AFBBB
:1038000010480078332805D10F4991F8350013F09E
:1038100091F904E00C4991F8350013F03DF9514855
:1038200008F0DEF8882008F0AFF84FA2E6218220E9
:1038300007F0F0FA4DA2DA2140F2231007F0EAFA7D
:103840000EBD00005B01002098030020CFB5CDB372
:10385000D3EFD1D4D1A1D4F10000000053656C6541
:1038600063742073797374656D206C616E67756124
:10387000676500004348494E45534500454E474C57
:1038800049534800B1B3B9E2C1C1B6C8C9E8D6C30B
:1038900000000000536574206272696768746E6589
:1038A000737300008901002025640000C4EA2DD450
:1038B000C22DC8D500000000594541522D4D4F4E34
:1038C00054482D4441590000BDB5B5CDC1C1B6C85D
:1038D000CAB1BCE4000000005265647563652062F3
:1038E00072696768746E657373000000B9D8B1D5EA
:1038F000000000004F464600B4A5C6C1C9E8D6C3C3
:1039000000000000546F7563682070616E656C0084
:10391000B4F2BFAA000000004F4E0000B2A8CCD8FD
:10392000C2CAC9E8D6C3000053656C6563742042FF
:1039300061756420726174650000000039363030B2
:10394000202000003139323030200000333834304C
:10395000302000003537363030200000313135322C
:103960003030000000FFFF00250000005300000081
:1039700010B545480078372820D008DC32283DD0E3
:10398000332868D0352809D036287AD10EE05B2854
:103990001CD05C2822D05D2873D127E003F022F9E7
:1039A00003F078FC0120394908706AE003F01AF945
:1039B00003F09AFA01203549087062E003F012F929
:1039C00003F07EFE0120314908705AE003F00AF945
:1039D00000F022F901202D49087052E003F002F9AD
:1039E00000F090F90120294908704AE003F0FAF844
:1039F00003F03CF901202549087042E003F0F2F899
:103A0000234807F0EDFF002007F0BEFF21A21E2192
:103A100040F2BD1007F0FEF920A2962140F2BD1041
:103A200007F0F8F91FA24FF48C7140F2BD1007F0B7
:103A3000F1F91EA240F2951140F2BD1007F0EAF92B
:103A40001CA240F20D2140F2BD1007F0E3F9012065
:103A50000E49087015E01948FCF705FC184981F873
:103A60003500084690F83500FF2802DDFF2081F878
:103A70003500134991F8350013F05CF80BF056FD52
:103A800000BF00BF10BD00005B0100205E010020F0
:103A900000FFFF003936303000000000313932308D
:103AA0003000000033383430300000003537363015
:103AB0003000000031313532303000008C68002099
:103AC0009803002010B504464C48007809287DD0A2
:103AD0004A4800780B28FAD04948007849490978C3
:103AE000884206D148480078A0420DD0444800786A
:103AF00050B98821084607F04DFF172332220A21CA
:103B00004FF4E27007F09CFB3D48007800286AD132
:103B100000EE104AB8EE400ADFED3C0A80EE201AB3
:103B20003B4880ED001A88216FF07F4007F032FF9C
:103B30001E234FF4E2720A21104607F047FC0A23C5
:103B40004FF4F67219464FF4E27007F03FFC1E2363
:103B50004FF4F67219464FF4E27007F037FC0F236A
:103B60004FF4F6720A21104607F030FC0F2340F2A2
:103B7000F1121946501F07F029FC192340F2F112E7
:103B80000F21104607F022FC192340F2F1121946CA
:103B9000501F07F01BFC1E234FF4F672192110462C
:103BA00007F014FC002C18DD88214FF47F4007F04B
:103BB000F1FE174890ED000ADFED160A20EE200A0C
:103BC000BDEEC00A10EE100A82B200E014E011232C
:103BD0000C214FF4E37007F033FB00200949087013
:103BE0000948047008E006480078802804D100F0F5
:103BF00049F880200349087010BD00005A010020D8
:103C0000780000209C0000209D0000200000C84299
:103C1000980000200000144200B5144807F0E0FEB0
:103C2000002007F0B1FE12A223214FF4E17007F04B
:103C3000F1F810A2A5214FF4E17007F0EBF80EA205
:103C400040F225114FF4E17007F0E4F80BA24FF4B5
:103C5000D2714FF4E17007F0DDF809A24FF4097159
:103C60004FF4E17007F0D6F800BD000000FFFF0040
:103C700031300000323500003530000037350000AB
:103C80003130300010B588216FF07F4007F082FEA0
:103C90000D234FF4F7720A21104607F097FB0D230E
:103CA0004FF4F9720A21104607F090FB0F2340F2FF
:103CB000F512194640F2EB1007F088FB07230922A2
:103CC00010214FF4F67007F0BBFA172340F2F312FD
:103CD0001946901F07F07AFB18234FF4F972194622
:103CE000101F07F073FB192340F2F1121946901EC2
:103CF00007F06CFB20234FF4F8721A21104607F0EE
:103D000065FB10BD00B52C4890F8300038BB2B483F
:103D100007F066FE002007F037FE29A223214FF4AA
:103D2000E17007F077F828A2A5214FF4E17007F0C1
:103D300071F826A240F225114FF4E17007F06AF8FD
:103D400023A24FF4D2714FF4E17007F063F821A27F
:103D50004FF409714FF4E17007F05CF82BE016485E
:103D600090F83000012826D1144807F039FE0020D1
:103D700007F00AFE18A223214FF4E17007F04AF879
:103D800011A2A5214FF4E17007F044F80FA240F210
:103D900025114FF4E17007F03DF80DA24FF4D271F8
:103DA0004FF4E17007F036F80AA24FF409714FF4AE
:103DB000E17007F02FF800BD9803002000FFFF001E
:103DC000B9D8B1D500000000350000003130000046
:103DD00031350000333000004F46460010B5044630
:103DE0008821084607F0D6FD18234FF4C8724FF417
:103DF000D071032007F024FA882007F0C5FD6FF08A
:103E00007F4007F0EDFD224603214FF4D070FEF70E
:103E1000A7F810BD10B5044602F0E4FE4FF2902062
:103E200007F0DEFD002007F0AFFD954890F8300068
:103E3000D8B9012C07D193A24FF404714FF4E1706B
:103E400006F0E8FF2CE0022C07D190A24FF4047199
:103E50004FF4E17006F0DEFF22E08EA24FF4047111
:103E60004FF4E17006F0D6FF1AE0012C07D18BA2C7
:103E70004FF402714FF4E17006F0CCFF10E0022C19
:103E800007D188A24FF402714FF4E17006F0C2FF2F
:103E900006E086A24FF402714FF4E17006F0BAFF1B
:103EA000012C1AD183A223214FF4E17006F0B2FF56
:103EB00082A299214FF4E17006F0ACFF81A24FF489
:103EC00091714FF4E17006F0A5FF80A24FF4D2711A
:103ED0004FF4E17006F09EFFD1E0022C13D17DA2D9
:103EE00023214FF4E17006F095FF7CA299214FF455
:103EF000E17006F08FFF7BA24FF496714FF4E170F2
:103F000006F088FFBBE00B2C1AD177A20A214FF4F0
:103F1000E17006F07FFF75A299214FF4E17006F081
:103F200079FF73A240F213114FF4E17006F072FFB3
:103F300070A24FF4D2714FF4E17006F06BFF9EE077
:103F40000C2C1AD16CA20A214FF4E17006F062FF2A
:103F50006AA299214FF4E17006F05CFF68A240F27A
:103F600013114FF4E17006F055FF66A24FF4D271C1
:103F70004FF4E17006F04EFF81E00D2C1AD162A2E1
:103F80000A214FF4E17006F045FF60A299214FF439
:103F9000E17006F03FFF5EA240F213114FF4E170B2
:103FA00006F038FF5BA24FF4D2714FF4E17006F0D7
:103FB00031FF64E00E2C1AD157A20A214FF4E170B0
:103FC00006F028FF55A299214FF4E17006F022FF78
:103FD00053A240F213114FF4E17006F01BFF51A2FF
:103FE0004FF4D2714FF4E17006F014FF47E0152C46
:103FF0001AD14DA20A214FF4E17006F00BFF4BA23B
:1040000099214FF4E17006F005FF49A240F2131127
:104010004FF4E17006F0FEFE46A24FF4D2714FF469
:10402000E17006F0F7FE2AE0162C1AD142A20A210E
:104030004FF4E17006F0EEFE40A299214FF4E170DA
:1040400006F0E8FE3EA240F213114FF4E17006F0D4
:10405000E1FE3CA24FF4D2714FF4E17006F0DAFEBB
:104060000DE0172C0BD138A20A214FF4E17006F0B5
:10407000D1FE36A299214FF4E17006F0CBFE10BDBF
:1040800098030020CFC2D2BBD2B30000C9CFD2BBAD
:10409000D2B30000B7B5BBD8000000004E657874FD
:1040A000000000004C617374000000004261636B0B
:1040B00000000000414443440000000045464748DA
:1040C00000000000494A4B4C000000004D4E4F508C
:1040D000000000005152535400000000555657583C
:1040E00000000000595A000041000000420000009A
:1040F00043000000440000004500000046000000AE
:104100004700000048000000490000004A0000008D
:104110004B0000004C0000004D0000004E0000006D
:104120004F0000005000000051000000520000004D
:10413000530000005400000055000000560000002D
:104140005700000058000000590000005A0000000D
:1041500003B583B00021FE4807F01CFC0023292290
:10416000DDE9030107F0BCF80498401E80B202901C
:104170000398401E80B200232C220190029907F080
:10418000AFF80498801E80B202900398401E80B25F
:1041900000232E220190029907F0A2F80498C01E75
:1041A00080B200232E2201460290039807F098F86F
:1041B0000498001F80B202900398801C80B20023F4
:1041C0002E220190029907F08BF80498401F80B2CC
:1041D00002900398233080B200230E2201900299AE
:1041E00007F07EF80498801F80B202900398233075
:1041F00080B200230F220190029907F071F8049811
:10420000C01F80B202900398233080B200230F2297
:104210000190029907F064F80498083880B202907F
:104220000398243080B200230E220190029907F0F7
:1042300057F80498093880B202900398243080B26D
:1042400000230F220190029907F04AF804980A38D7
:1042500080B202900398253080B200230E22019094
:10426000029907F03DF804980B3880B20290039849
:10427000253080B200230E220190029907F030F819
:1042800004980C3880B202900398253080B2002345
:104290000E220190029907F023F804980D3880B29D
:1042A00002900398263080B200230E2201900299DA
:1042B00007F016F804980E3880B202900398253063
:1042C00080B200230F220190029907F009F80498A8
:1042D0000F3880B202900398263080B200230E225D
:1042E0000190029906F0FCFF0498103880B2029009
:1042F0000398263080B200230E220190029906F026
:10430000EFFF0498113880B202900398263080B2F3
:1043100000230F220190029906F0E2FF0498123860
:1043200080B202900398273080B200230E220190C1
:10433000029906F0D5FF0498133880B202900398D2
:10434000273080B200230E220190029906F0C8FFA8
:104350000498143880B202900398273080B200236A
:104360000F220190029906F0BBFF0498153880B225
:1043700002900398283080B200230E220190029907
:1043800006F0AEFF0498163880B2029003982830E9
:1043900080B200230E220190029906F0A1FF04983A
:1043A000173880B202900398283080B200230E2282
:1043B0000190029906F094FF0498183880B2029098
:1043C0000398283080B200230E220190029906F053
:1043D00087FF0498193880B202900398293080B280
:1043E00000230D220190029906F07AFF04981A38F2
:1043F00080B202900398293080B200230E220190EF
:10440000029906F06DFF04981B3880B20290039861
:10441000293080B200230E220190029906F060FF3D
:1044200004981C3880B2029003982A3080B200238E
:104430000E220190029906F053FF04981D3880B2B5
:10444000029003982A3080B200230E220190029934
:1044500006F046FF04981E3880B2029003982A3076
:1044600080B200230E220190029906F039FF0498D1
:104470001F3880B2029003982A3080B200230F22A6
:104480000190029906F02CFF0498203880B2029027
:1044900003982A3080B200230F220190029906F07F
:1044A0001FFF0498213880B2029003982B3080B20D
:1044B00000230D220190029906F012FF0498223881
:1044C00080B2029003982B3080B200230E2201901C
:1044D000029906F005FF0498233880B202900398F1
:1044E0002C3080B200230D220190029906F0F8FED4
:1044F0000498243880B2029003982C3080B20023B4
:104500000E220190029906F0EBFE0498253880B245
:10451000029003982C3080B200230E220190029961
:1045200006F0DEFE0498263880B2029003982C3004
:1045300080B200230F220190029906F0D1FE049868
:10454000273880B2029003982C3080B2002301E01B
:104550000093FF000F220190029906F0C1FE04981B
:10456000283880B2029003982D3080B200230E22AA
:104570000190029906F0B4FE0498293880B20290A6
:1045800003982D3080B200230E220190029906F08C
:10459000A7FE04982A3880B2029003982D3080B28A
:1045A00000230F220190029906F09AFE04982B38FE
:1045B00080B2029003982D3080B200230F22019028
:1045C000029906F08DFE04982C3880B20290039870
:1045D0002E3080B200230E220190029906F080FE58
:1045E00004982D3880B2029003982E3080B20023B8
:1045F0000E220190029906F073FE04982E3880B2C4
:10460000029003982E3080B200230F22019002996D
:1046100006F066FE04982F3880B2029003982F307F
:1046200080B200230E220190029906F059FE0498F0
:10463000303880B2029003982F3080B200230E22CF
:104640000190029906F04CFE0498313880B2029035
:1046500003982F3080B200230F220190029906F0B8
:104660003FFE0498323880B2029003982F3080B217
:1046700000230F220190029906F032FE049833388D
:1046800080B202900398303080B200230E22019055
:10469000029906F025FE0498343880B202900398FF
:1046A000303080B200230E220190029906F018FEED
:1046B0000498353880B202900398303080B20023DD
:1046C0000E220190029906F00BFE0498363880B253
:1046D00002900398313080B200230D22019002999C
:1046E00006F0FEFD0498373880B20290039831300E
:1046F00080B200230E220190029906F0F1FD049889
:10470000363880B202900398483080B203230C22DE
:104710000190029906F094FD0498343880B202901A
:104720000398473080B200230D220190029906F0D1
:10473000D7FD0498333880B202900398473080B296
:1047400004230C220190029906F07AFD04982F3878
:1047500080B202900398463080B203230C2201906D
:10476000029906F06DFD0498283880B202900398F3
:10477000443080B200230E220190029906F0B0FD71
:104780000498273880B202900398453080B2002305
:104790000D220190029906F0A3FD0498263880B2FC
:1047A00002900398443080B200230D2201900299B8
:1047B00006F096FD0498253880B2029003984430A4
:1047C00080B200230C220190029906F089FD049822
:1047D000243880B202900398433080B203230D2224
:1047E0000190029906F02CFD0498213880B20290C5
:1047F0000398433080B200230C220190029906F006
:104800006FFD0498203880B202900398423080B245
:1048100003230D220190029906F012FD04981D3821
:1048200080B202900398423080B200230C220190A3
:10483000029906F055FD04981C3880B20290039846
:10484000413080B202230D220190029906F0F8FC5B
:1048500004981A3880B202900398413080B2002345
:104860000C220190029906F03BFD0498193880B2A1
:1048700002900398403080B203230D2201900299E8
:1048800006F0DEFC0498163880B2029003983F30A0
:1048900080B200230E220190029906F021FD0498B7
:1048A000153880B2029003983F3080B202230D2267
:1048B0000190029906F0C4FC0498133880B202906B
:1048C00003983F3080B202230C220190029906F037
:1048D000B7FC0498113880B2029003983E3080B241
:1048E00000230D220190029906F0FAFC049810387A
:1048F00080B2029003983E3080B202230C220190D5
:10490000029906F09DFC04980E3880B2029003983C
:104910003D3080B203230D220190029906F090FCF5
:1049200004980B3880B2029003983D3080B2002387
:104930000C220190029906F0D3FC04980A3880B248
:10494000029003983C3080B203230D22019002991B
:1049500006F076FC0498C01F80B2029003983B30AA
:1049600080B202230D220190029906F069FC04989E
:10497000401F80B2029003983A3080B202230D2289
:104980000190029906F05CFC0498C01E80B202906F
:1049900003983A3080B200230E220190029906F06B
:1049A0009FFC0498801E80B2029003983A3080B237
:1049B00002230D220190029906F042FC03983A303E
:1049C00080B200230C220290049906F089FC04981E
:1049D000283880B202900398583080B20023172202
:1049E0000190029906F07CFC0498273880B202906E
:1049F0000398553080B200231B220190029906F0E3
:104A00006FFC0498263880B202900398543080B22C
:104A100000231E220190029906F062FC04982538BA
:104A200080B202900398533080B20023202201907C
:104A3000029906F055FC0498243880B2029003983D
:104A4000533080B2002303220190029906F048FC03
:104A50000498243880B202900398683080B2002312
:104A60000C220190029906F03BFC0498233880B296
:104A700002900398533080B20023012201900299E2
:104A800006F02EFC0498233880B202900398683018
:104A900080B200230C220190029906F021FC0498B8
:104AA000223880B202900398683080B203230C222F
:104AB0000190029906F0C4FB04981F3880B202905E
:104AC0000398673080B203230D220190029906F00B
:104AD000B7FB04981C3880B202900398663080B20D
:104AE00000230D220190029906F0FAFB04981B386E
:104AF00080B202900398673080B200230C220190AC
:104B0000029906F0EDFB04981A3880B202900398DF
:104B1000663080B200230D220190029906F0E0FB7E
:104B20000498193880B202900398653080B202234D
:104B30000D220190029906F083FB0498173880B289
:104B400002900398653080B202230C2201900299F2
:104B500006F076FB0498153880B202900398643012
:104B600080B203230D220190029906F069FB04989C
:104B7000123880B202900398633080B203230D2272
:104B80000190029906F05CFB04980F3880B2029005
:104B90000398633080B200230C220190029906F042
:104BA0009FFB04980E3880B202900398623080B266
:104BB00003230D220190029906F042FB04980B3862
:104BC00080B202900398623080B200230C220190E0
:104BD000029906F085FB04980A3880B20290039887
:104BE000613080B200230D220190029906F078FB1B
:104BF0000498093880B202900398613080B204238F
:104C00000C220190029906F01BFB0498401F80B211
:104C100002900398603080B203230C220190029925
:104C200006F00EFB0498801E80B2029003985F305D
:104C300080B203230D220190029906F001FB049833
:104C4000383880B2029003987F3080B200230C2263
:104C50000190029906F044FB0498373880B2029024
:104C600003987E3080B203230D220190029906F052
:104C7000E7FA0498343880B2029003987E3080B20C
:104C800002230C220190029906F0DAFA04983238D5
:104C900080B2029003987D3080B202230C220190F2
:104CA000029906F0CDFA0498303880B20290039849
:104CB0007C3080B200230D220190029906F010FB97
:104CC00004982F3880B2029003987C3080B2002381
:104CD0000C220190029906F003FB04982E3880B252
:104CE000029003987C3080B200230D22019002993B
:104CF00006F0F6FA04982D3880B2029003987C30C2
:104D000080B200230C220190029906F0E9FA04987F
:104D10002C3880B2029003987B3080B202230D229F
:104D20000190029906F08CFA04982A3880B2029019
:104D300003987B3080B203230C220190029906F085
:104D40007FFA0498293880B202900398993080B293
:104D500000230C220190029906F0C2FA0498283828
:104D600080B202900398973080B200230D22019008
:104D7000029906F0B5FA0498273880B20290039899
:104D80007A3080B200230D220190029906F0A8FA31
:104D90000498273880B202900398963080B200239E
:104DA0000C220190029906F09BFA0498263880B2F2
:104DB000029003987A3080B202230C22019002996B
:104DC00006F03EFA0498263880B202900398943098
:104DD00080B200230D220190029906F081FA049816
:104DE000253880B202900398933080B200230C22C1
:104DF0000190029906F074FA0498243880B2029067
:104E00000398793080B203230D220190029906F0B5
:104E100017FA0498243880B202900398923080B236
:104E200000230C220190029906F05AFA04982338C4
:104E300080B202900398913080B200230B2201903F
:104E4000029906F04DFA0498223880B20290039835
:104E50008F3080B200230C220190029906F040FAB4
:104E60000498213880B202900398783080B20023F1
:104E70000D220190029906F033FA0498213880B28D
:104E8000029003988D3080B200230D220190029988
:104E900006F026FA0498203880B202900398793000
:104EA00080B200230C220190029906F019FA0498AE
:104EB000203880B2029003988C3080B200230C22FC
:104EC0000190029906F00CFA04981F3880B2029003
:104ED0000398783080B200230D220190029906F0E9
:104EE000FFF904981F3880B2029003988A3080B28C
:104EF00000230D220190029906F0F2F904981E3861
:104F000080B202900398783080B200230C22019086
:104F1000029906F0E5F904981E3880B202900398D1
:104F2000893080B200230D220190029906F0D8F951
:104F300004981D3880B202900398773080B2002325
:104F40000D220190029906F0CBF904981D3880B229
:104F500002900398873080B200230F2201900299BB
:104F600006F0BEF904981C3880B20290039877309E
:104F700080B200230C220190029906F0B1F9049846
:104F80001C3880B202900398863080B20023102231
:104F90000190029906F0A4F904981B3880B202909F
:104FA0000398773080B200231F220190029906F007
:104FB00097F904981A3880B202900398763080B23C
:104FC00000231F220190029906F08AF904981938EB
:104FD00080B202900398763080B2002320220190A4
:104FE000029906F07DF90498183880B2029003986F
:104FF000763080B2002320220190029906F070F9E9
:105000000498173880B202900398753080B200235C
:1050100021220190029906F063F90498163880B2B3
:1050200002900398763080B20023132201900299F7
:1050300006F056F90498163880B2029003988A3028
:1050400080B200230C220190029906F049F90498DD
:10505000153880B202900398753080B20023132275
:105060000190029906F03CF90498153880B202903C
:1050700003988A3080B200230C220190029906F036
:105080002FF90498143880B202900398753080B2DA
:10509000002312220190029906F022F90498143894
:1050A00080B2029003988A3080B200230D220190D2
:1050B000029906F015F90498133880B2029003980B
:1050C000743080B2002311220190029906F008F991
:1050D0000498133880B2029003988A3080B200237B
:1050E0000D220190029906F0FBF80498123880B264
:1050F00002900398743080B200231022019002992C
:1051000006F0EEF80498123880B2029003988A30C4
:1051100080B200230E220190029906F0E1F8049873
:10512000113880B202900398743080B200230E22AE
:105130000190029906F0D4F80498113880B20290D8
:1051400003988A3080B200230E220190029906F063
:10515000C7F80498103880B202900398743080B277
:1051600000230D220190029906F0BAF80498103835
:1051700080B2029003988A3080B200230E22019000
:10518000029906F0ADF804980F3880B202900398A7
:10519000733080B203230D220190029906F050F87B
:1051A00004980C3880B202900398733080B20023C8
:1051B0000C220190029906F093F804980B3880B203
:1051C00002900398723080B203230D22019002995D
:1051D00006F036F80498083880B2029003987230CE
:1051E00080B200230C220190029906F079F804980D
:1051F000C01F80B202900398713080B203230D2249
:105200000190029906F01CF80498001F80B20290E9
:105210000398703080B200230E220190029906F0AC
:105220005FF80498C01E80B202900398703080B27C
:1052300003230D220190029906F002F803987030C2
:1052400080B200230C220290049906F049F80498D9
:105250000F3880B2029003988B3080B203230D2266
:105260000190029905F0ECFF04980C3880B202908E
:1052700003988B3080B202230E220190029905F030
:10528000DFFF04980A3880B2029003988C3080B215
:1052900003230D220190029905F0D2FF0498C01F4C
:1052A00080B2029003988C3080B203230E220190CA
:1052B000029905F0C5FF0498001F80B20290039880
:1052C0008C3080B202230F220190029905F0B8FFC2
:1052D0000498801E80B2029003988D3080B2002323
:1052E0000E220190029905F0FBFF0498401E80B247
:1052F000029003988F3080B200230C220190029913
:1053000005F0EEFF0398913080B200230A2202904C
:10531000049905F0E5FF0498293880B202900398BB
:10532000AD3080B2002323220190029905F0D8FF0E
:105330000498283880B202900398AB3080B20023E2
:1053400027220190029905F0CBFF0498273880B2FC
:1053500002900398A93080B200232922019002997B
:1053600005F0BEFF0498263880B202900398A8305A
:1053700080B200232B220190029905F0B1FF04981E
:10538000253880B202900398A73080B200230D2206
:105390000190029905F0A4FF0498253880B202908C
:1053A0000398C63080B200230D220190029905F0C7
:1053B00097FF0498243880B202900398A63080B2F8
:1053C00000230D220190029905F08AFF04982438E9
:1053D00080B202900398C73080B200230D22019062
:1053E000029905F07DFF0498233880B2029003985B
:1053F000A63080B200230C220190029905F070FFC4
:105400000498233880B202900398C63080B20023FB
:105410000E220190029905F063FF0498223880B2B1
:1054200002900398A53080B200230D2201900299CA
:1054300005F056FF0498223880B202900398C630D7
:1054400080B200230E220190029905F049FF0498D2
:10545000213880B202900398A53080B200230D223B
:105460000190029905F03CFF0498213880B2029027
:105470000398C63080B200230D220190029905F0F6
:105480002FFF0498203880B202900398A53080B294
:1054900000230D220190029905F022FF0498203884
:1054A00080B202900398C63080B200230D22019092
:1054B000029905F015FF04981F3880B202900398F6
:1054C000A43080B202230E220190029905F0B8FEAA
:1054D00004981F3880B202900398C53080B202232E
:1054E0000E220190029905F0ABFE04981D3880B29F
:1054F00002900398A43080B200230D2201900299FB
:1055000005F0EEFE04981D3880B202900398C53075
:1055100080B200230D220190029905F0E1FE04986B
:105520001C3880B202900398A33080B202230E226E
:105530000190029905F084FE04981C3880B2029014
:105540000398C43080B202230E220190029905F024
:1055500077FE04981A3880B202900398A33080B284
:1055600000230D220190029905F0BAFE04981A3822
:1055700080B202900398C43080B200230D220190C3
:10558000029905F0ADFE0498193880B20290039894
:10559000A23080B200230E220190029905F0A0FEF5
:1055A0000498193880B202900398C43080B2002366
:1055B0000D220190029905F093FE0498193880B2EB
:1055C00002900398A23080B200230D22019002992C
:1055D00005F086FE0498193880B202900398C33013
:1055E00080B200230E220190029905F079FE049802
:1055F000183880B202900398A23080B200230E22A5
:105600000190029905F06CFE0498183880B202905F
:105610000398C33080B200230D220190029905F057
:105620005FFE0498173880B202900398A23080B2CF
:1056300000230D220190029905F052FE04981738BC
:1056400080B202900398C33080B200230D220190F3
:10565000029905F045FE0498163880B2029003982E
:10566000A13080B200230E220190029905F038FE8D
:105670000498163880B202900398C23080B200239A
:105680000E220190029905F02BFE0498153880B285
:1056900002900398A13080B200230E22019002995B
:1056A00005F01EFE0498153880B202900398C230AF
:1056B00080B200230E220190029905F011FE049899
:1056C000143880B202900398A13080B200230D22DA
:1056D0000190029905F004FE0498143880B20290FB
:1056E0000398C23080B200230D220190029905F088
:1056F000F7FD0498133880B202900398A03080B26E
:1057000000230E220190029905F0EAFD0498133857
:1057100080B202900398C23080B200230D22019023
:10572000029905F0DDFD0498123880B202900398CA
:10573000A03080B200230E220190029905F0D0FD26
:105740000498123880B202900398C13080B20023CE
:105750000E220190029905F0C3FD0498113880B221
:1057600002900398A03080B200230D22019002998C
:1057700005F0B6FD0498113880B202900398C1304C
:1057800080B200230E220190029905F0A9FD049831
:10579000103880B2029003989F3080B200230E220E
:1057A0000190029905F09CFD0498103880B2029097
:1057B0000398C13080B200230E220190029905F0B7
:1057C0008FFD04980F3880B202900398A03080B209
:1057D00000230D220190029905F082FD04980F38F4
:1057E00080B202900398C13080B200230D22019054
:1057F000029905F075FD04980E3880B20290039866
:105800009F3080B204230D220190029905F018FD0B
:1058100004980E3880B202900398C03080B2002302
:105820000E220190029905F05BFD04980D3880B2BC
:1058300002900398C03080B203230D220190029998
:1058400005F0FEFC04980A3880B2029003989F305D
:1058500080B203230C220190029905F0F1FC049818
:105860000A3880B202900398BF3080B202230D2222
:105870000190029905F0E4FC0498083880B2029087
:105880000398BE3080B200230D220190029905F0EA
:1058900027FD0498C01F80B2029003989F3080B209
:1058A00000230E220190029905F01AFD0498C01FF2
:1058B00080B202900398BC3080B200230E22019087
:1058C000029905F00DFD0498801F80B202900398A4
:1058D0009F3080B200232B220190029905F000FD39
:1058E0000498401F80B202900398A03080B2002339
:1058F00029220190029905F0F3FC0498001F80B260
:1059000002900398A13080B20023272201900299CF
:1059100005F0E6FC0498C01E80B202900398A23005
:1059200080B2002324220190029905F0D9FC04984A
:10593000801E80B202900398A33080B200232222FE
:105940000190029905F0CCFC0498401E80B20290B0
:105950000398A43080B2002320220190029905F020
:10596000BFFC0498243880B202900398E03080B2E3
:10597000002312220190029905F0B2FC049823380A
:1059800080B202900398DF3080B20023162201908B
:10599000029905F0A5FC0498223880B20290039881
:1059A000DE3080B2002318220190029905F098FCA5
:1059B0000498213880B202900398DD3080B2002331
:1059C00019220190029905F08BFC0498203880B2CE
:1059D00002900398DD3080B20023092201900299E1
:1059E00005F07EFC0498203880B202900398EE30D7
:1059F00080B2002308220190029905F071FC0498FE
:105A00001F3880B202900398DC3080B20023092254
:105A10000190029905F064FC04981F3880B202904E
:105A20000398EE3080B2002309220190029905F01C
:105A300057FC04981E3880B202900398DB3080B285
:105A4000002309220190029905F04AFC04981E38AF
:105A500080B202900398EE3080B2002309220190B8
:105A6000029905F03DFC04981D3880B2029003981D
:105A7000DA3080B2002309220190029905F030FC4F
:105A800004981D3880B202900398EF3080B2002352
:105A900008220190029905F023FC04981C3880B27A
:105AA00002900398DA3080B2002308220190029914
:105AB00005F016FC04981C3880B202900398EF3071
:105AC00080B2002309220190029905F009FC049894
:105AD0001B3880B202900398D93080B2002308228C
