:020000040800F2
:10000000E8140020C1010008D5C400087D9A00084A
:10001000D1C40008B51100088B25010800000000BC
:1000200000000000000000000000000061F0000877
:100030009D2D0008000000000DC70008DDF100083C
:10004000DB010008DB010008DB010008DB01000820
:10005000DB010008DB010008DB010008DB01000810
:10006000DB010008DB010008DB010008DB01000800
:10007000DB010008DB010008DB010008DB010008F0
:10008000DB010008DB010008DB010008DB010008E0
:10009000DB010008DB010008DB010008DB010008D0
:1000A000DB010008DB010008DB010008DB010008C0
:1000B000DB010008DB010008DB010008DB010008B0
:1000C000DB010008DB010008DB010008DB010008A0
:1000D000DB01000839040108DB010008DB0100082E
:1000E000DB010008DB010008DB010008DB01000880
:1000F000DB010008DB010008DB010008DB01000870
:10010000DB010008DB010008DB010008DB0100085F
:10011000DB010008DB010008B1F2000839F4000837
:10012000DB010008DB010008DB010008DB0100083F
:10013000DB010008DB010008DB010008DB0100082F
:10014000DB010008DB010008DB010008C1C6000874
:10015000DB010008DB010008DB010008DB0100080F
:10016000DB010008DB010008E1C60008D1C6000879
:10017000DB010008F1C60008DB010008DB01000814
:10018000DB010008DB010008DB010008DB010008DF
:10019000DB010008DB010008DB010008DB010008CF
:1001A000DB010008DB010008DB010008DFF80CD0F0
:1001B00000F000FC0048004799460108E8140020C0
:1001C0000648804706480047FEE7FEE7FEE7FEE7F1
:1001D000FEE7FEE7FEE7FEE7FEE7FEE749F200087E
:1001E000AD010008D2B201E000F8012B491EFBD29C
:1001F00070470022F6E710B513460A460446194632
:10020000FFF7F0FF204610BD421E12F8013F002B01
:10021000FBD111F8013B02F8013B002BF9D17047EB
:1002200010B5044604E00B7800F8013B03B1491C0B
:10023000521EF8D2204610BD10B5002200E0521C1C
:10024000835C8C5CA34201D1002BF8D1D8B2E1B21F
:10025000401A10BD034611F8012B00F8012B002AAB
:10026000F9D11846704770B5064612F0F9FA0468DD
:1002700005460A220021304600F030FA2C6070BD9D
:100280002DE9FE4F804681EA0300C00F0C46009026
:1002900021F0004123F00045B8EB0200A94105D24E
:1002A0004046214690461C460B46024623F000403D
:1002B000104347D0270DC7F30A00C3F30A51029039
:1002C000401A019040286BDAC3F3130040F4801BFE
:1002D0000098924620B10023D2EB030A63EB0B0B8C
:1002E00001985946C0F14002504600F077F90646A1
:1002F0000D4650465946019A00F08FF910EB080060
:100300006141002487EA115284EAE7731A4340D01E
:10031000009A62B3019A012A4FEA075215DC001BCA
:1003200061EB02014FF0004202EA0752CDE90042C0
:10033000001C41F5801132462B4600F04DFA03B007
:10034000BDE8F08F40462146F9E7001B61EB020152
:10035000001C41F5801300185B412018A2F500171E
:1003600047EB030140EAD570B6196D4111E06D0805
:100370004FEA360645EAC0754FEA0752001B61EBAB
:100380000201001C41F5801149084FEA30000019B4
:10039000514132462B4603B0BDE8F04F00F00DBA94
:1003A0000098012240000023D0EB020263EBE073CF
:1003B000009821464FEAE074B8EB000061EB0401BD
:1003C000E9E783F000435BE781F0004158E72DE95E
:1003D000FE4F81EA030404F0004421F00041009440
:1003E0004FF0000B23F0004350EA01045ED052EAC4
:1003F00003045BD0C3F30A54C1F30A552C44A4F29E
:10040000F3340194A0FB0254C1F3130141F48011B1
:10041000C3F3130343F4801301FB024400FB034EB8
:10042000840A970A44EA815447EA8357A4FB076881
:1004300002958D0A05FB07854FEA932C04FB0C54AB
:100440002705029D4FEA065847EA1637B5EB08051F
:100450006EEB070C870E920E47EA811742EA831271
:10046000A7FB0201B6EB0B0164EB00042B0D43EA82
:100470000C335E1844EB1C50DA465146E7FB020190
:10048000C5F313044FEA0B3343EA14534FEA043223
:10049000019C43EA0603A4F10C040294009CCDE9FC
:1004A00000B400F099F903B0BDE8F08F00200146D8
:1004B000F9E770B5C1F30A5201F000450024C1F319
:1004C000130140F2FF3341F480119A4201DA002017
:1004D00070BD40F233439A42A2F2334203DC5242EF
:1004E00000F08BF800E090402C43F1D0404270BD0A
:1004F00000F0004230F000400AD0C10D01F56071FB
:10050000C0F3160042EA0151C20840071143704788
:1005100000200146704701F0004330B421F0004153
:1005200050EA010206D00A0DA2F56072C1F3130170
:10053000002A02DC30BC00207047440F44EAC104AA
:10054000C100E01830BC00EBC25000F0FFB830B57D
:100550000B46014600202022012409E021FA02F581
:100560009D4205D303FA02F5491B04FA02F528441B
:10057000151EA2F10102F1DC30BD2DE9F05F054648
:10058000002092469B4688460646814640241BE052
:10059000284641464746224600F02FF853465A4621
:1005A000C01A914110D311461846224600F016F8A1
:1005B0002D1A67EB01084F4622460120002100F06A
:1005C0000DF817EB00094E41201EA4F10104DFDCF9
:1005D000484631462A464346BDE8F09F202A04DBC0
:1005E000203A00FA02F1002070479140C2F1200346
:1005F00020FA03F3194390407047202A04DB203A85
:1006000021FA02F00021704721FA02F3D040C2F132
:1006100020029140084319467047202A06DBCB1779
:10062000203A41FA02F043EAE07306E041FA02F3AD
:10063000D040C2F1200291400843194670470000A3
:100640000FB4002300B589B00CA900910B996FF08D
:100650000042CB601E4B06931E4B07930423CDE94B
:1006600001321D4A089202466B46002000F056FAFD
:1006700009B05DF814FB70B586B006464FF0FF3048
:100680000091CDE90101002015460C460490324648
:10069000694604A8FFF7D4FF02460498211825B143
:1006A00008B1084600E020462860049800280DD0D4
:1006B000002A02DD0098884208D0081B0094CDE98A
:1006C00001043246694604A8FFF7BAFF06B070BDC0
:1006D000550D0008730D0008E10900082DE9F047E9
:1006E00091460F4680460446002614F8015B2DB162
:1006F00000F072F90068405DC007F6D12B2D02D0E2
:100700002D2D18D0641E4A463946204600F042FB83
:1007100027B13968A14201D1C7F8008071054FF0B7
:1007200002040BD54042002803DD12F099F8046062
:10073000A007BDE8F08746F48066E4E70028F8DA11
:1007400012F08EF804606FF00040F2E70029A8BFB5
:100750007047401C490008BF20F00100704710B4EA
:10076000B0FA80FC00FA0CF050EA010404BF10BC9F
:10077000704749B1CCF1200421FA04F411FA0CF1CC
:1007800018BF012121430843A3EB0C01CB1D4FEA05
:1007900000614FEA102042BF002010BC704700EB00
:1007A000C35010440029A4BF10BC7047401C49002E
:1007B00008BF20F0010010BC704710B5141E73F183
:1007C000000408DA401C41F1000192185B411A4311
:1007D00001D120F0010010BD2DE9F04D92469B465D
:1007E00011B1B1FA81F202E0B0FA80F22032904603
:1007F000FFF7F4FE04460F4640EA0A0041EA0B0107
:1008000053465A46084313D0114653EA010019D003
:10081000C8F140025046FFF7F0FE05460E4650462E
:1008200059464246FFF7DAFE084305D0012004E0AE
:1008300020463946BDE8F08D0020054346EAE076C3
:100840002C4337430A986305E40AA0EB0800002212
:10085000FD0A44EA47540A3002D500200146E9E780
:10086000010510196941DDE9084500196941BDE834
:10087000F04DA2E72DE9F04D81EA030404F0004BAE
:1008800021F0004514464FF0000A23F0004150EAE1
:10089000050220D054EA01021DD0C5F30A570246D2
:1008A000C5F31303C1F31300C1F30A5640F48015D6
:1008B00043F48013A7EB0608101BD64608F2FD3858
:1008C00073EB050002D308F1010801E092185B41C7
:1008D000B8F1000F03DA00200146BDE8F08D0020DA
:1008E0004FF48011064684460EE0171B73EB050794
:1008F00005D3121B63EB050306434CEA010C4908C0
:100900004FEA300092185B4150EA0107EDD152EAFC
:10091000030012D082EA040083EA0501084305D0EF
:10092000101BAB4106D20122002306E000224FF04B
:10093000004302E06FF0010253101AEB06004CEB8B
:10094000085110EB0A0041EB0B01BDE8F04DFFF739
:1009500034BFC1F30A52C1F3130140F2FF3341F433
:1009600080119A4202DA00200146704740F2334378
:100970009A42A2F2334202DC5242FFF73EBEFFF738
:100980002DBE000030B5041E71F1000404DB4FF0F1
:100990000044404264EB0101141E73F1000405DBC6
:1009A0001C464FF00043524263EB0403994208BFD8
:1009B000904230BD064C074D06E0E06840F0010370
:1009C00094E8070098471034AC42F6D3FFF7F2FBE7
:1009D0006033060880330608004870475C33060819
:1009E00010B50446FFF7F8FF0068005D00F0010055
:1009F00010BD00002DE9FF4F087883B09946FF280D
:100A000005D0491C2D2804D00024002008E0002037
:100A10000BE00124F9E700EB800003EB4000491CE8
:100A20000B78FF2BF7D104B14042002302931478D6
:100A300019461D462D2C01D02B2C04D1521C2D2CD7
:100A400013D000240294AA461478FF2C0FD00A2554
:100A5000A3FB057801FB05814FF0000C03FB0C1193
:100A6000521CE3194AEB0101EEE70124EAE7814455
:100A700053EA010002D019F5C87F06DA0398002175
:100A8000C0E9001107B0BDE8F08F0025AE4E2F463B
:100A9000DFF8B882184600F0DAF9CDE90001B9F1C3
:100AA000000002DAC9F1000400E004460023A74A6E
:100AB0001AEB030B42EB045A12E0E00707D02A4678
:100AC000334638464146FFF782FC074688462A46A9
:100AD000334610461946FFF77AFC05460E46641069
:100AE000002CEAD1DDE90001B9F1000F5A46534666
:100AF00006DAFFF7BFFE3A464346FFF7BBFE05E0C6
:100B0000FFF765FC3A464346FFF761FC029A0AB1DB
:100B100081F00041039AC2E90001B3E72DE9FF4FDC
:100B20001F468DB0D7E901464FF0FF382E204546CD
:100B30004FF000090B90B9696D1C0E988847396A0F
:100B4000824688470028F6D1BAF1FF3F0AD024F444
:100B5000D064002E11DDBAF12B0F08D0BAF12D0FA1
:100B60000BD102E0404611B08DE744F48064B969CE
:100B70006D1C0E9888478246761E6946600501D531
:100B80002D2000E02B208DF8000001F1010B0DF16C
:100B9000200809E0B9696D1C0E98884782460F98B5
:100BA00044F40074761E0560002E02DDBAF1300FA9
:100BB000F0D00B998A453ED144F0800406E00F99AD
:100BC000681CA9F1010944F400740860B9696D1C3E
:100BD000761E0E98884782463028F0D02BE00B997D
:100BE0008A4505D1200603D444F08004761E18E01F
:100BF000504611F033FF08B30DF11301761E44F493
:100C000000748B4508D2AAF130000BF8010B2006C6
:100C100007D5A9F1010003E0200602D409F1010083
:100C20008146A00502D50F99681C0860B9696D1C42
:100C30000E9888478246002ED1DC53E0002E51DD0D
:100C4000BAF1650F02D0BAF1450F4BD1A00549D5D5
:100C5000B9696D1C24F44074761E0E98884782464C
:100C6000002E0CDD2B2804D0BAF12D0F07D144F44F
:100C70008074B9696D1C0E9888478246761EE0051F
:100C800001D52D2100E02B2108F8011BCDF82C8087
:100C900021E00DF12901761E44F4007488450CD240
:100CA000AAF1300010F0FF0088F8000002D10B9983
:100CB000884509D908F1010806E0E00501D5244876
:100CC00001E042F20F708146B9696D1C0E988847A9
:100CD00082460F980560002E04DD504611F0BEFEDE
:100CE0000028D6D1F9690E988847FF208BF80000BC
:100CF00088F800000020069007904B466A4608A935
:100D000006A8FFF777FEA00502D46FF001002AE7DE
:100D100014F0240F0AD0E00714D1DDE90612386878
:100D2000031D3B600068C0E900120BE0DDE906012D
:100D3000FFF7F1FB0146E00704D13868021D3A6075
:100D40000068016028460EE7000014400000F03FF4
:100D5000F1D8FFFF426842B1016811F8013B23B1AD
:100D6000521EC0E90012184670470121C160881E5A
:100D7000704742685AB1C368016843B983688B42BF
:100D800005D0491E521CC0E90012002070474FF0E8
:100D9000FF3070472DE9F05F824600780027154646
:100DA0008B460AF10104B946302801D09DB113E009
:100DB00014F8010B0127782803D0582801D045B139
:100DC0000AE00DB1102D07D10027102514F8010BF2
:100DD00002E0082500E00A250026B0460EE005FBEB
:100DE000080005FB06F1012701EB10461FFA80F809
:100DF000B6F5803F00D3B94614F8010B294600F040
:100E000018F80028EBDABBF1000F05D00FB1641E13
:100E100000E05446CBF80040B9F1000F06D011F0C5
:100E20001FFD02210160C81EBDE8F09F48EA064090
:100E3000FAE73A2800D2303820F02002412A01D3C4
:100E4000A2F13700884201D34FF0FF3070470EB552
:100E500040F2334202920022CDE900221346FFF70E
:100E6000BBFC03B000BD70B58C1810F8015B15F029
:100E7000070301D110F8013B2A1106D110F8012B0C
:100E800003E010F8016B01F8016B5B1EF9D12B0731
:100E900005D40023521E0DD401F8013BFAE710F8E7
:100EA000013BCB1A921C03E013F8015B01F8015BD4
:100EB000521EF9D5A142D8D3002070BD10B51448F8
:100EC000007808281ED11348007853381249097851
:100ED00000EBC100C4B29FED110A114800EB840081
:100EE00080ED000A0E4901EB8401D1ED000AB0EE5D
:100EF000600A084909785239C8B213F0B7FD0EF0FC
:100F0000B1F802E007F0B8F800BF00BF10BD000064
:100F10003A0100203B0100204001002000000000B9
:100F2000480E002021B1826842F00102826003E095
:100F3000826822F001028260704700000021084AA6
:100F40001168084A1140D0E900231A4383681A4304
:100F5000C3681A431143044AC2F8041370470000DF
:100F600004230140E030FCFF0020014021B18268F1
:100F700042F48072826003E0826822F480728260B0
:100F8000704721B1826842F40072826003E0826897
:100F900022F400728260704730B5024600200023C0
:100FA0005068104C20400D790C6844EA0524204319
:100FB000506090680C4C2040D1E903542C438D685C
:100FC0002C434D7944EA450420439060D06A20F4D4
:100FD00070000C7D641EE4B2234340EA0350D062EB
:100FE00030BD0000FFFEFFFCFDF7FFC0F0B504467A
:100FF0000D4600200021092D11DDE068A5F10A064B
:1010000006EB4607072606FA07F18843A5F10A060C
:1010100006EB460603FA06F10843E0600CE020699F
:1010200005EB4507072606FA07F1884305EB450659
:1010300003FA06F108432061072A0FDA606B561E97
:1010400006EB86071F2606FA07F18843561E06EBB5
:10105000860605FA06F10843606322E00D2A0FDADE
:10106000206BD61F06EB86071F2606FA07F188437A
:10107000D61F06EB860605FA06F10843206310E04A
:10108000E06AA2F10D0606EB86071F2606FA07F1B5
:101090008843A2F10D0606EB860605FA06F1084321
:1010A000E062F0BD816841F08041816070470000DE
:1010B0001CB5012108460BF05FFB032000908DF862
:1010C000040000208DF807006946024808F05EFC25
:1010D0001CBD00000000024010B5254800780D2816
:1010E00043D2DFE800F0421342421A070A100D42D1
:1010F0004242290012F0E0FE37E012F0DDFE34E05B
:1011000012F0DAFE31E012F0D7FE2EE01948007836
:10111000332801D112F0D0FE27E0164800785F286E
:1011200007D014480078602803D0124800785E2861
:1011300001D112F0C1FE18E00E480078632806D0F5
:10114000642807D065280BD067280CD105E012F081
:10115000B3FE08E012F0B0FE05E012F0ADFE02E0D2
:1011600012F0AAFE00BF00BF00BF00BF10BD00000C
:101170003A0100203B0100201CB5012108020BF0C0
:10118000FBFA2020009001208DF8040000208DF84B
:10119000060001208DF8070000208DF80500694643
:1011A000034808F0F3FB2021014808F063FC1CBD54
:1011B0000020024000BFFEE710B52021054808F0DE
:1011C0005BFC40F2FF5001F0EAFD2021014808F0ED
:1011D00051FC10BD0020024010B50BF0BFFA08B161
:1011E00000F009F8302000F014F810BD10B53120DF
:1011F00000F00FF810BD10B5222016F02FFA3220A3
:1012000001F0CDFD16F020FA044616F017FA20463C
:1012100010BD10B50446204616F020FA16F00EFA5E
:1012200011F0B6F910BD000000B587B00121812092
:101230000BF0A2FA012108030BF0DEFA0522114699
:10124000334808F0EBFB05220621314808F0E6FBA5
:10125000052207212E4808F0E1FB202005900220FE
:101260008DF819008DF8180000208DF81A008DF8FF
:101270001B0005A9264808F089FB4020059005A918
:10128000234808F083FB8020059005A9204808F03A
:101290007DFB1020059001208DF8180000208DF8AE
:1012A0001A0005A91A4808F071FB202005900020BB
:1012B0008DF8180001208DF81B0005A9154808F0CD
:1012C00065FB0020ADF800004FF48270ADF802001D
:1012D0000020ADF804000220ADF806000120ADF8B2
:1012E00008004002ADF80A003820ADF80C000020DC
:1012F000ADF80E000720ADF81000694606480DF065
:1013000015FE012104480DF0ABFB07B000BD000045
:1013100000000240001C02400030014010B52DEDDD
:10132000048B84B0B0EE408ABDEEC80A10EE100AFD
:10133000002801DB014600E041420A2291FBF2F164
:101340000CB2882108460AF047F91F238A22D221CD
:10135000C82009F0F1FD6FF07F400AF063F98820A2
:101360000AF034F944BBB5EEC08AF1EE10FA11DB95
:1013700018EE100AFFF7BCF841EC190B53EC192BCF
:101380004AA101A811F058FA01AAFB21D22009F0C4
:101390002BFC81E018EE100AFFF7AAF841EC190BBC
:1013A00053EC192B41A101A811F046FA01AAEB2137
:1013B000D22009F019FC6FE0012C2ADB0A2C28DA74
:1013C000B5EEC08AF1EE10FA11DB18EE100AFFF745
:1013D0008FF841EC190B53EC192B34A101A811F033
:1013E0002BFA01AAEB21D22009F0FEFB54E018EE03
:1013F000100AFFF77DF841EC190B53EC192B2BA1C8
:1014000001A811F019FA01AADB21D22009F0ECFBA6
:1014100042E00A2C2ADB642C28DAB5EEC08AF1EE11
:1014200010FA11DB18EE100AFFF762F841EC190B05
:1014300053EC192B1DA101A811F0FEF901AADB2123
:10144000D22009F0D1FB27E018EE100AFFF750F880
:1014500041EC190B53EC192B14A101A811F0ECF974
:1014600001AACB21D22009F0BFFB15E0642C13DBCD
:10147000B4F57A7F10DA18EE100AFFF739F841EC6C
:10148000190B53EC192B09A101A811F0D5F901AAE8
:10149000CB21D22009F0A8FB06A24FF4B471D220D0
:1014A00009F0A2FB04B0BDEC048B10BD252E316603
:1014B000000000006D532F636D00000070B50646FC
:1014C0000C4604F08000802808D104F07F0000EB77
:1014D000800106F58E7000EBC10507E004F07F0087
:1014E00000EB800106F55D7000EBC10504F07F00A4
:1014F000287004F08000C00968702946304610F05A
:10150000E9FC002070BD70B506460C4604F0800072
:10151000802808D104F07F0000EB800106F58E7072
:1015200000EBC10505E004EB840106F55D7000EBFE
:10153000C1050020A87004F07F002870C4F3C0101B
:1015400068702946304610F09DFC002070BD70B5D3
:1015500005460C4604F08000802805D104F07F0188
:10156000284610F0C9FE02E0284610F09FFE002039
:1015700070BD2DE9F04106460D4690461F4605F028
:101580008000802808D105F07F0000EB800106F57F
:101590008E7000EBC10407E005F07F0000EB8001D6
:1015A00006F55D7000EBC10405F07F00207005F0CA
:1015B0008000C0096070C4F80880E770607808B1E6
:1015C0002078E080022F01D1002020712146304692
:1015D00010F000FC0020BDE8F0812DE9F041054647
:1015E0000E461746984606F07F0000EB800105F591
:1015F0005D7000EBC104E760C4F814800020A061B6
:10160000607006F07F002070E878012800D1276123
:10161000207820B92146284610F000FB03E021463F
:10162000284610F0C4FC0020BDE8F08108B5002277
:101630000092009A61F30A12009202691268009BFC
:101640001A4303691A6008BD70B506460C4604F0DB
:101650008000802808D104F07F0000EB800106F5AF
:101660008E7000EBC10505E004EB840106F55D70AA
:1016700000EBC1050120A87004F07F002870C4F3BE
:10168000C01068702946304610F05FFC002070BD25
:101690002DE9F04107460D461646984605F07F00B5
:1016A00000EB800107F58E7000EBC1040120607033
:1016B00005F07F002070E66026610020A061C4F87C
:1016C0001480207820B92146384610F0A7FA03E0AC
:1016D0002146384610F06BFC0020BDE8F0811CB5B7
:1016E0000446204610F065FAE068C0680090204685
:1016F00010F02CFE03280BD10020A0704FF40070D6
:10170000A080009820F4705000F51050009009E07F
:101710000120A0704020A080009820F4705000F5B7
:10172000A05000900098E168C860002001900198E6
:1017300020F4005000F5005001900198E1684861E4
:1017400001201CBDF8B50546002400200090284665
:1017500010F03BFE064690E006F0010000287DD028
:10176000E1B2284600F01EFB0090009800F0010056
:1017700030B3012000FA04F72869406BB8432969A7
:10178000486300200090009820F00100401C009069
:1017900005F1180050F8240000998160E1B2394841
:1017A0000068426828469047E878012808D13CB98B
:1017B00040F21110405D042802D1284610F0D9FAF9
:1017C0000098C0F3C00060B100200090009820F0A5
:1017D00008000830009005F1180050F82400009926
:1017E00081600098C0F3001060B100200090009864
:1017F00020F010001030009005F1180050F824007F
:10180000009981600098C0F3801060B100200090C2
:10181000009820F040004030009005F1180050F88A
:101820002400009981600098C0F3400060B100205E
:101830000090009820F00200801C009005F1180034
:1018400050F82400009981600098C0F3C01028B1BE
:101850002146284600F0D0FA002000E00BE000907E
:10186000009820F080008030009005F1180050F8BA
:10187000240000998160641C7608002E7FF46CAF10
:101880000120F8BD740200207CB50446002500202C
:101890000190204610F0A1FD06466FE006F0010021
:1018A000002869D0E9B2204610F09FFD0190019810
:1018B00000F00100C8B300200190019820F0010061
:1018C000401C019004F1540050F8250001998160FA
:1018D000E078012817D104F1540050F82500006980
:1018E000009005EB850104F55D7000EBC100806898
:1018F0000099C1F31201411A05EB850204F55D70F0
:1019000000EBC2008161E9B21E480068026820460F
:101910009047E078012808D13DB940F21110005DF0
:10192000052802D1204610F024FA0198C0F34000A7
:1019300060B100200190019820F00200801C01900D
:1019400004F1540050F82500019981600198C0F31A
:10195000C00088B10B480068816820468847002095
:101960000190019820F008000830019004F1540023
:1019700050F82500019981606D1C7608002E8DD1EC
:1019800001207CBD740200203EB50446A07A70B1EF
:10199000D4F80C010090009820F00200009000980C
:1019A00020F0010000900099D4F80C0101600020A3
:1019B0000190019820F00100401C019020694068CE
:1019C0000199884321694860084800688169204678
:1019D000884700200290029820F0004000F100406B
:1019E00002900298E168486101203EBD7402002027
:1019F0007CB5044600200190019820F010001030C2
:101A00000190E068806901998843E1688861E06835
:101A1000006A0090009800F00F0000EB800104F5D0
:101A20005D7000EBC1050098C0F3434007282DD23C
:101A3000DFE800F02C04051D1E2C1F0027E0009895
:101A4000C0F30A1090B10098C0F30A122046E9686A
:101A500010F0D5FCE8680099C1F30A110844E86069
:101A6000A8690099C1F30A110844A8610FE00EE0CB
:101A70000DE0082204F2CC51204610F0C0FCA86909
:101A80000099C1F30A110844A86100E000BF00BF3B
:101A9000E068806901990843E168886101207CBDA4
:101AA00038B5044608480068C168204688470020C9
:101AB0000090009820F00800083000900098E1683D
:101AC0004861012038BD0000740200201FB50446A3
:101AD000002000904FF48970005D0090234800685A
:101AE0004169204688472069806801900020039062
:101AF000039820F4006000F5006003900398E1680B
:101B00004861A07A70B3019800F0010050B340F230
:101B10001510005D012825D19DF80000032821D172
:101B200000200290029820F00100401C0290D4F89E
:101B30000C01006802990843D4F80C11086002985F
:101B400020F00200801C0290D4F80C010068029979
:101B50000843D4F80C1108600548006840F00600FE
:101B600003490860012004B010BD00007402002089
:101B700010ED00E030B587B00446002002900690DA
:101B80000590049003900190029820F00100401C01
:101B900002902069406802998843216948600021C9
:101BA000204610F0A9FB00250BE0FF2104F11800EE
:101BB00050F82500816004F1540050F82500816040
:101BC0006D1C6078A842F0D84FF0FF312069816128
:101BD00006986FF30F00401C0690069880B200F53F
:101BE0008030069006992069C161059820F00800B0
:101BF00008300590059820F00100401C05900598DC
:101C000020F00200801C059005992069416105992A
:101C10002069C0F88410049820F00100401C049052
:101C2000049820F0080008300490049820F0020086
:101C3000801C049004992069016104992069416421
:101C4000206900680390039820F4FE6003900399D4
:101C500020690160204610F08CF800200190019866
:101C600020F4805000F5805001900198E1684861AF
:101C700003480068016920468847012007B030BD4D
:101C8000740200202DE9F04106460F4639463046E1
:101C900010F0CAFB01214FF4897081550021801C8E
:101CA0008155002511E005EB850106F58E7000EBEE
:101CB000C104012060702570E5800020E0704020A4
:101CC000A0600020E06060616D1C7078A842EAD8D6
:101CD000002510E005EB850106F55D7000EBC10401
:101CE000002060702570E580E0704020A06000203A
:101CF000E06060616D1C7078A842EBD830460FF050
:101D000047FF30460FF054FD0021304610F0F6FB3F
:101D100030460FF0DAFD304610F0B6FABDE8F0813B
:101D200038B504460020009007480068C169204685
:101D30008847009820F4801000F5801000900098EB
:101D4000E1684861012038BD7402002038B50446BE
:101D50000020009007480068016A204688470098E4
:101D600020F4001000F5001000900098E168486130
:101D7000012038BD7402002038B50446E068406890
:101D800000900098C0F3800020B105480068816A87
:101D9000204688470098E1684860012038BD00006F
:101DA0007402002030B5024615692B6915696C6B09
:101DB00024FA01F505F0010543EAC51302F11805FF
:101DC00055F82150AD6805EA030030BD38B504462A
:101DD00008480068416A2046884700200090009823
:101DE00020F0804000F1804000900098E168486158
:101DF000012038BD740200202DE9F84306460F4645
:101E000000250020009007EB870106F58E7000EB9F
:101E1000C104D4E90501451AA068A84200D2A5680A
:101E2000E81C4FEA900806F1180050F82700806976
:101E3000009029E0D4E90501451AA068A84200D223
:101E4000A568E81C4FEA9008ABB2FAB23046E168E8
:101E500010F07BFBE0682844E060A0692844A061A2
:101E6000D4E90510884209D32278012101FA02F051
:101E70003169496B81433269516310E006F1180002
:101E800050F8270080690090009880B2404506D93C
:101E9000D4E90510884202D260690028CAD100BF87
:101EA0000120BDE8F8830000F0B507460E46144651
:101EB000354620E0207880280EDA1B4809F096FB92
:101EC00022782946384608F039FE1848006880888C
:101ED000284485B2641C0EE0154809F087FB2246B1
:101EE0002946384600F026F81048006880882844C3
:101EF00085B2641C641CB5F5207F14DA0B480068B9
:101F00008088284480B2094909688988884201DBB1
:101F1000012000E00020217809B1012100E000212A
:101F200008400028C6D1F0BDA00000206C000020B1
:101F3000280100202DE9F041074688461646002476
:101F4000164D20E03078C4EBC40101EB410115F8D7
:101F50001110884214D17078C4EBC40101EB410127
:101F600005EB4101497888420AD1C4EBC40000EB7B
:101F7000400005EB4000821C4146384608F04EFF09
:101F8000601C84B200BFC4EBC40000EB400015F835
:101F900010008028D6DC00BFBDE8F081193E0208A1
:101FA000F0B507460E461446354620E020788028D6
:101FB0000EDA1B4809F01AFB22782946384608F049
:101FC000BDFD184800688088284485B2641C0EE076
:101FD000154809F00BFB22462946384600F026F842
:101FE000104800688088284485B2641C641CB5F5DC
:101FF000207F14DA0B4800688088284480B20949A1
:1020000009688988884201DB012000E000202178EE
:1020100009B1012100E0002108400028C6D1F0BD2F
:10202000D80000206C000020180100202DE9F041AC
:102030000746884616460024144D1DE0307804EB10
:102040008401C1EB8411695C884212D1707804EB81
:102050008401C1EB841129444978884209D104EBF9
:102060008400C0EB84102844821C4146384608F0A6
:10207000D5FE601C84B200BF04EB8400C0EB84106A
:10208000285C8028DADC00BFBDE8F081222302084A
:10209000F0B507460E461446354620E020788028E5
:1020A0000EDA1B4809F0A2FA22782946384608F0D1
:1020B00045FD184800688088284485B2641C0EE0FD
:1020C000154809F093FA224629463846FFF7AEFF35
:1020D000104800688088284485B2641C641CB5F5EB
:1020E000207F14DA0B4800688088284480B20949B0
:1020F00009688988884201DB012000E000202178FE
:1021000009B1012100E0002108400028C6D1F0BD3E
:10211000E00000206C0000201801002010B5012113
:10212000C8050AF039FB00214FF400000AF034FB27
:1021300010BD000001460020034A52680A400AB15F
:10214000012000E00020704700B0024070B500217F
:10215000002200230024344D2D68344E3540324E89
:10216000356035462D68066835432F4E3560354657
:102170006D6B25F00705756335466D6B4668354315
:10218000294E7563456835B9C5682902058A2A0450
:10219000057D2B0621E04568012D05D1C568290282
:1021A000058A2A04002318E04568022D05D1C56878
:1021B00069010569EA0200230FE04568032D06D195
:1021C000C56869010569AA024569EB0305E0C568B0
:1021D000290105692A0245692B0341EA020586683F
:1021E00035431D43104EB66B35430F4EB5638569BD
:1021F000F56335462D6C6FF30D05356435462D6C52
:10220000C6693543084E3564858C2C0435466D6CA3
:1022100005F04045756435466D6C066A26433543C6
:10222000014E756470BD000000B00240FCE0FCFF90
:102230000348006840F00100014908607047000051
:1022400000B0024021B1026842F00102026003E0E6
:10225000026822F0010202607047000010B50022FF
:102260000268134B1A40CC680B6823434C69234324
:102270008C692343CC6923430C6A23434C6A234370
:102280008C6A23434C6B23438C6B23431A430260B9
:10229000426922F00702D1E90B3423431A43426119
:1022A0000B6943604B6883608B68C36010BD00009E
:1022B0003F801CF010B520480078001F092839D253
:1022C000DFE800F0110509380D38383821001BA06F
:1022D00012F0CAF82EE019A012F0C6F82AE017A0F2
:1022E00012F0C2F826E0164800785F2807D014489C
:1022F0000078602803D0124800785E2802D10FA031
:1023000012F0B2F816E00E480078632804D0642872
:1023100006D067280CD107E008A012F0A5F807E066
:1023200006A012F0A1F803E004A012F09DF800BF8F
:1023300000BF00BF00BF10BD3A0100202E0000000A
:102340003B01002010B50024FE4800780C280AD07C
:1023500004DC01287ED004287DD1ECE00D287BD060
:102360000E28F9D16DE3F84800786238052837D295
:10237000DFE800F003374D60A00011F0F3FFF348F1
:1023800090F8300080B9F14890F83900012805D163
:10239000EFA2D221362008F027FC15E0EEA2D221D0
:1023A000362008F021FC0FE0E84890F839000128B9
:1023B00005D1EBA2D221322008F016FC04E0E9A2FC
:1023C000D221322008F010FC12F004F8E648D0EDDB
:1023D000280AB0EE600A14F0EDFD6320DA490870B7
:1023E000A7E011F0BFFFE048D0ED280AB0EE600A88
:1023F00014F030FD11F0EEFFDB48D0ED290AB0EE0D
:10240000600A14F085FF6420CF49087091E011F054
:10241000A9FFD548D0ED290AB0EE600A14F098FE65
:1024200011F0D8FFD149886911F0FCFD6520C6493B
:1024300008707EE011F096FFCC49886911F098FD94
:1024400011F0C8FFC14890F83000A0B9BF4890F81B
:102450003A0002E0C0E3CEE2CEE2012805D1BCA200
:10246000D221D62008F0C0FB15E0BBA2D221D62095
:1024700008F0BAFB0FE0B54890F83A00012805D102
:10248000B7A2D221084608F0AFFB04E0B5A2D221E2
:10249000084608F0A9FBAD4890F8300018B9B4A080
:1024A00001F040FC02E0B5A001F03CFC6620A6492A
:1024B00008703EE011F056FFA44890F8300080B953
:1024C000A24890F83A00012805D1A1A2D221D62035
:1024D00008F08AFB15E0A0A2D221D62008F084FBE8
:1024E0000FE09A4890F83A00012805D19CA2D22129
:1024F000084608F079FB04E09AA2D221084608F0C9
:1025000073FB11F067FF9848D0ED2A0AB0EE600A1D
:1025100011F0EAFB8D4890F8300018B99CA001F04A
:1025200001FC02E09EA001F0FDFB672086490870D7
:1025300000BF00BF5FE2844800782C2806D02D2819
:102540005DD02E2871D0312858D1CDE111F00AFF8D
:102550007E4890F82C0078B97C4890F8300028B973
:102560007DA29621322008F03FFB14E07DA2962147
:10257000322008F039FB0EE0744890F8300028B99A
:1025800073A29621322008F02FFB04E074A296215A
:10259000322008F029FB11F01DFF6C4890F82A004A
:1025A00078B96A4890F8300028B96BA296215A2071
:1025B00008F01AFB14E06BA296215A2008F014FBD5
:1025C0000EE0624890F8300028B961A296215A20A6
:1025D00008F00AFB04E062A296215A2008F004FBEE
:1025E0005A4890F8300018B971A001F09BFB02E046
:1025F00072A001F097FB2D2053490870FAE111F009
:10260000B1FE524890F82A0080B9504890F8300046
:1026100028B951A296215A2008F0E6FA15E051A2F5
:1026200096215A2008F0E0FA0FE0FDE0474890F8C4
:10263000300028B946A296215A2008F0D5FA04E0C5
:1026400047A296215A2008F0CFFA6049084608F0C0
:10265000C3FF3E4890F83000D8BB3C4890F82B00B0
:1026600005280ED11F2360227F21962008F064FCEC
:10267000002008F0D7FF56A29621822008F0B4FA75
:102680005EE0324890F82B0001280ED11F23602213
:102690007F21962008F050FC002008F0C3FF4FA2D5
:1026A0009621822008F0A0FA4AE01F2378227F2199
:1026B000962008F041FC002008F0B4FF4AA29621C1
:1026C000822008F091FA4AA2E1217F2008F08CFADA
:1026D00036E0FFE71D4890F82B0005280ED11F2398
:1026E00040227F21962008F027FC002008F09AFF66
:1026F00040A296217F2008F077FA21E0134890F855
:102700002B0001280ED11F2340227F21962008F0A4
:1027100013FC002008F086FF38A296217F2008F0E5
:1027200063FA0DE01F2350227F21962008F004FC5D
:10273000002008F077FF33A296217F2008F054FA9A
:10274000024863E03A0100203B010020F003002032
:10275000B4F2BFAA00000000B9D8B1D50000000053
:102760004F4E00004F464600480E0020B80C002097
:10277000BCC6CBE3BFAAB9D80000000043616C63BC
:10278000756C6174696F6E204F4E2F4F4646000086
:10279000B5E7BCABB3A3CAFDC9E8D6C300000000CF
:1027A00053657420436F6E7374616E740000000093
:1027B000B7E4C3F9C6F7C9E8D6C3000042757A7A10
:1027C0006572204F4E2F4F464600000000FFFF006D
:1027D000BEF8B6D4D6B5BEF400000000B0D9B7D666
:1027E000B1C8B7DB00000000D6B1B6C1D6B5000055
:1027F000534551004142537E000000005052452590
:1028000000000000442D53455100000090F83000B6
:1028100018B9F2A001F086FA02E0F4A001F082FA01
:102820002E20F7490870E5E08821084608F0D4FE1C
:102830001F2390227F21962008F07EFB11F092FD4D
:10284000F04890F8300020BBEE4890F82B000528A7
:1028500006D1AFF284029621822008F0C5F936E055
:10286000E84890F82B00012806D1AFF2900296219B
:10287000822008F0B9F92AE0AFF294029621822072
:1028800008F0B2F9AFF29802E1217F2008F0ACF92C
:102890001DE0DC4890F82B00052806D1AFF2AC0211
:1028A00096217F2008F0A0F911E0D64890F82B007F
:1028B000012806D1AFF2BC0296217F2008F094F9DE
:1028C00005E0AFF2C00296217F2008F08DF911F0EB
:1028D00081FDCD48D0ED2C0AB0EE600A11F028F849
:1028E0006020C749087085E011F03CFDC54890F8AC
:1028F0002E0088B9C34890F8300030B9C3A24FF415
:10290000FA71322008F070F933E0C2A24FF4FA7184
:10291000322008F069F92CE0BA4890F82E0001281E
:1029200011D1B84890F8300030B9BCA24FF4FA7118
:10293000322008F059F91CE0BAA24FF4FA713220A3
:1029400008F052F915E0AF4890F82E00022810D197
:10295000AC4890F8300030B9B3A24FF4FA7132208D
:1029600008F042F905E0B2A24FF4FA71322008F003
:102970003BF9A548D0ED2D0AB0EE600A12F024FD17
:1029800011F028FD9F4890F8360030B9AAA240F215
:102990005D215A2008F028F91DE09A4890F8360089
:1029A000012806D1A5A240F25D215A2008F01CF9A9
:1029B00011E0944890F83600022806D1A0A240F217
:1029C0005D215A2008F010F905E09EA240F25D2139
:1029D0005A2008F009F98B4890F8300018B99AA0ED
:1029E00001F0A0F902E09BA001F09CF95E2084496F
:1029F000087000BF00BFC8E1814800782C2818D0BB
:102A0000312810D0692802D06A2818D105E06A2040
:102A10007B49087000F0CCF911E06B207849087010
:102A200000F0C6F90BE02C207549087000F0C0F9E1
:102A300005E02D207249087000F0BAF900BF00BF10
:102A4000A3E16F48007840287CD009DCA0F1380071
:102A5000072822D2DFE800F022324354657C8D0043
:102A6000442870D006DC41286ED042286DD043281F
:102A700013D10DE1452869D0462868D06C28F7D1DC
:102A80007848007830B9784809F06CFD7749012022
:102A900011F0BEFD38205A4908703DE171480078B8
:102AA00040B972490A31022011F0B2FD6F4901208C
:102AB00011F082FD3920524908702DE169480078F3
:102AC00048B96A490A31022011F076FD674914318C
:102AD000032011F09DFD3A20494908701CE161482E
:102AE000007848B961491431032011F065FD5F4950
:102AF0001E31042011F08CFD3B20414908700BE190
:102B00005848007848B959491E31042011F054FD45
:102B100056492831052011F07BFD3C2038490870CA
:102B2000FAE05048007848B950492831052011F0A2
:102B300043FD4E493231062011F06AFD3D203049F7
:102B40000870E9E026E0B4E035E091E0C2E0D2E0D0
:102B50004448007848B945493231062011F02CFD2F
:102B600042493C31072011F053FD3E2024490870B2
:102B7000D2E03C48007848B93C493C31072011F08C
:102B80001BFD3A494631082011F042FD3F201C4907
:102B90000870C1E03348007848B934495A310220FE
:102BA00014F024F831495031012013F0F5FF412091
:102BB00013490870B0E02B48007848B92B495A31C6
:102BC000022013F0E9FF29496431032014F00EF8C4
:102BD00042200B4908709FE0A0E00000B1C8BDCFC3
:102BE000C4A3CABDD1A1D4F10000000053656C6537
:102BF000637420736F7274696E67206D6F64650013
:102C00003B010020F0030020480E0020BFECCBD990
:102C1000000000004641535400000000D6D0CBD93C
:102C2000000000004D454400C2FDCBD9000000006B
:102C3000534C4F57000000006D230000230000009C
:102C40006B2300004D23000020B1EAB3C6C9E8D6CB
:102C5000C30000004E6F6D696E616C2076616C750B
:102C6000650000003F010020D80F0020380F002031
:102C70004748007840B94749032013F08DFF454984
:102C80000A31042013F0B2FF43204349087043E0A7
:102C90003F48007848B93F490A31042013F07CFFCF
:102CA0003C491431052013F0A1FF44203A49087033
:102CB00032E03748007848B936491431052013F01E
:102CC0006BFF34491E31062013F090FF4520324936
:102CD000087021E02E48007848B92E491E310620A0
:102CE00013F05AFF2B492831072013F07FFF4620AD
:102CF0002949087010E02648007848B9254928314C
:102D0000072013F049FF23493231082013F06EFFEA
:102D100047202149087000BF00BF36E01E480078F8
:102D20005B2818D006DC322827D0352807D0362873
:102D300029D10AE05C2814D05D2824D117E0362080
:102D40001549087000F038FB1DE05B20124908703F
:102D500000F032FB17E05C200F49087000F02CFBFC
:102D600011E05D200C49087000F026FB0BE03220DA
:102D70000949087000F020FB05E03320064908707F
:102D800000F01AFB00BF00BF00BF00BF10BD000075
:102D90003F0100209C0F00203B010020704701B53F
:102DA00002E00098401E009000980028F9D108BD6C
:102DB00010B5002497480078692802D111F00AFB69
:102DC00001E011F0CFFA944890F83B0078B99248AE
:102DD00090F8300028B991A29621322007F004FF24
:102DE00014E090A29621322007F0FEFE0EE08A4801
:102DF00090F8300028B98EA29621322007F0F4FE18
:102E000004E08DA29621322007F0EEFE8148007882
:102E10006A2802D111F0DEFA01E011F0A3FA874826
:102E200090ED310AF2EE020AB4EEE00AF1EE10FA89
:102E300003DD9FED830A80ED310A804890ED310A71
:102E4000BCEEC00A10EE100AC4B27E4800EB840249
:102E500096215A2007F0C8FE04EB84007A4901EB62
:102E60004002C6215A2007F0BFFE6A4800786B284E
:102E700002D111F0AFFA01E011F074FA664890F84F
:102E8000300068B96D4890ED2E0AB5EEC00AF1EE3B
:102E900010FA12D16DA29621822007F0A5FE0CE057
:102EA000664890ED2E0AB5EEC00AF1EE10FA04D194
:102EB00068A296217F2007F097FE564800783128B7
:102EC00002D111F087FA01E011F04CFA524890F863
:102ED0002E0088B9504890F8300030B95FA24FF406
:102EE000FA71322007F080FE33E05EA24FF4FA71EF
:102EF000322007F079FE2CE0474890F82E00012898
:102F000011D1454890F8300030B958A24FF4FA7109
:102F1000322007F069FE1CE056A24FF4FA7132200D
:102F200007F062FE15E03C4890F82E00022810D110
:102F3000394890F8300030B94FA24FF4FA7132207E
:102F400007F052FE05E04EA24FF4FA71322007F06E
:102F50004BFE304800782C2802D111F03BFA01E0FA
:102F600011F000FA2C4890F82C0088B92A4890F803
:102F7000300030B944A24FF4FA715A2007F034FE01
:102F800017E043A24FF4FA715A2007F02DFE10E02B
:102F9000214890F8300030B93EA24FF4FA715A201F
:102FA00007F022FE05E03DA24FF4FA715A2007F027
:102FB0001BFE184800782D2802D111F00BFA01E011
:102FC00011F0D0F9144890F82A0088B9124890F806
:102FD000300030B92CA24FF4FA71822007F004FEC1
:102FE00017E02BA24FF4FA71822007F0FDFD10E0EC
:102FF000094890F8300030B926A24FF4FA718220C7
:1030000007F0F2FD05E025A24FF4FA71822007F0E7
:10301000EBFD10BD3B010020F0030020C4DAB2BF7D
:1030200000000000494E5445524E414C0000000043
:10303000CAD6B6AF000000004D414E00480E002039
:103040000000000020020020BC010020B4F3B5E71E
:10305000C1F70000482D435552000000BFECCBD90A
:10306000000000004641535400000000D6D0CBD9E8
:10307000000000004D454400C2FDCBD90000000017
:10308000534C4F5700000000B9D8B1D500000000E4
:103090004F464600B4F2BFAA000000004F4E0000A9
:1030A00010B59748007800287ED1964800786928A6
:1030B0000CD006DC2C2878D02D2877D031282DD1C3
:1030C000E4E06A282BD06B28F9D170E003F02EFDE4
:1030D0008D4808F0A7FA002008F078FA8B4890F89D
:1030E000300060B98AA2232140F2BD1007F07CFDB8
:1030F00089A29D2140F2BD1007F076FD0BE088A269
:10310000232140F2BD1007F06FFD88A29D2140F2FF
:10311000BD1007F069FD012079490870EDE003F06A
:1031200005FD794808F07EFA002008F04FFA77484C
:1031300090F8300098B97EA2232140F2BD1007F02C
:1031400053FD7DA29D2140F2BD1007F04DFD7CA2F4
:103150004FF4927140F2BD1007F046FD12E07AA2E2
:10316000232140F2BD1007F03FFD79A29D2140F2DE
:10317000BD1007F039FD78A24FF4927140F2BD10F6
:1031800007F032FD75A240F2B3114FF4E17007F081
:103190002BFD73A24FF40E714FF4E17007F024FD84
:1031A000012057490870A8E0A8E01DE045E003F0C1
:1031B000BDFC554808F036FA002008F007FA5348DD
:1031C00090F8300030B967A20A2140F2BD1007F034
:1031D0000BFD05E065A2142140F2BD1007F004FDCF
:1031E00001204749087088E003F0A0FC464808F039
:1031F00019FA002008F0EAF9444890F8300060B964
:103200005CA2232140F2BD1007F0EEFC5BA29D21E1
:1032100040F2BD1007F0E8FC0BE05AA2232140F277
:10322000BD1007F0E1FC58A29D2140F2BD1007F04F
:10323000DBFC0120324908705FE003F077FC324884
:1032400008F0F0F9002008F0C1F9304890F830009B
:1032500060B948A2232140F2BD1007F0C5FC47A287
:103260009D2140F2BD1007F0BFFC0BE045A22321D9
:1032700040F2BD1007F0B8FC43A29D2140F2BD1002
:1032800007F0B2FC01201E49087036E003F04EFC46
:103290001D4808F0C7F9002008F098F91B4890F87D
:1032A000300098B939A2232140F2BD1007F09CFCF0
:1032B00038A29D2140F2BD1007F096FC37A24FF4D2
:1032C000927140F2BD1007F08FFC12E035A223216D
:1032D00040F2BD1007F088FC34A29D2140F2BD10E1
:1032E00007F082FC32A24FF4927140F2BD1007F059
:1032F0007BFC01200249087000BF00BF10BD000028
:103300003E0100203B01002000FFFF00F0030020F1
:10331000C4DAB2BF00000000CAD6B6AF0000000099
:10332000494E5445524E414C000000004D414E0064
:10333000D7D4B6AF00000000B1A3B3D600000000A0
:10334000B1EAB3C6000000004155544F0000000030
:10335000484F4C44000000004E4F4D002B00000031
:103360002D000000B4F3B5E7C1F70000482D435528
:1033700052000000B4F2BFAA00000000B9D8B1D5D5
:10338000000000004F4E00004F464600BFECCBD976
:1033900000000000D6D0CBD900000000C2FDCBD980
:1033A0000000000046415354000000004D45440019
:1033B000534C4F57000000000EB5F44800783528F4
:1033C0000DD1F34890F8300018B9F2A000F0AAFC33
:1033D00002E0F4A000F0A6FC10F0FCFF01E010F009
:1033E000C1FFEB4890F8300028B9F4A2AA2132209E
:1033F00007F0FAFB04E0F3A2AA21322007F0F4FB65
:10340000E24800785B280DD1E14890F8300018B907
:10341000EEA000F087FC02E0F0A000F083FC10F0CA
:10342000D9FF01E010F09EFFD94890F8310040B973
:103430000A20EE4908700A22EDA168460FF0FCF957
:1034400036E0D34890F83100012808D11420E7492C
:1034500008701922E6A168460FF0EEF928E0CC4882
:1034600090F83100022808D12820E0490870322263
:10347000DFA168460FF0E0F91AE0C54890F8310086
:10348000032808D13C20D94908704B22D8A16846AE
:103490000FF0D2F90CE0BE4890F83100042807D1B3
:1034A0005020D24908706422D1A168460FF0C4F9B7
:1034B0006A46AA21822007F097FBB4480078362894
:1034C0000AD1B34890F8300018B9CAA000F02AFC1D
:1034D00002E0CBA000F026FCAC4800785C280DD1BF
:1034E000AB4890F8300018B9C9A000F01BFC02E00E
:1034F000CBA000F017FC10F06DFF01E010F032FFE0
:10350000A34890F83000002849D1A14890F8320033
:1035100028B9C8A2AA21AE2007F066FB8DE09C481E
:1035200090F8320001280AD10522B1A168460FF0B7
:1035300083F96A46AA21AC2007F056FB7DE0944847
:1035400090F8320002280AD10A22A9A168460FF099
:1035500073F96A46AA21AC2007F046FB6DE08C485F
:1035600090F8320003280AD10F22A1A168460FF07B
:1035700063F96A46AA21AC2007F036FB5DE0844877
:1035800090F83200062858D11E2299A168460FF003
:1035900053F96A46AA21AC2007F026FB4DE07C488F
:1035A00090F83000012848D1794890F8320028B9C5
:1035B000A2A2AA21AC2007F017FB3EE0744890F8C5
:1035C000320001280AD1052289A168460FF034F99A
:1035D0006A46AA21AC2007F007FB2EE06C4890F861
:1035E000320002280AD10A2281A168460FF024F98C
:1035F0006A46AA21AC2007F0F7FA1EE0644890F86A
:10360000320003280AD10F2279A168460FF014F97D
:103610006A46AA21AC2007F0E7FA0EE05C4890F871
:103620003200062809D11E2271A168460FF004F964
:103630006A46AA21AC2007F0D7FA544800785D28E2
:103640000DD1534890F8300018B97DA000F06AFB06
:1036500002E07EA000F066FB10F0BCFE01E010F07E
:1036600081FE4B4890F8300080B9494890F834000A
:10367000012805D178A2AA21D62007F0B5FA1AE0D0
:103680006CA2AA21D62007F0AFFA14E0404890F8C7
:10369000300001280FD13E4890F83400012805D1B0
:1036A0006FA2AA21D42007F09FFA04E063A2AA2106
:1036B000D42007F099FA3548007832280DD13448E3
:1036C00090F8300018B967A000F02CFB02E068A069
:1036D00000F028FB10F07EFE01E010F043FE2C48C5
:1036E00090F82F0028B967A2AA21FC2007F07CFAE5
:1036F0002AE0274890F82F00012805D163A2AA21CB
:10370000FC2007F071FA1FE0214890F82F000228F2
:1037100005D160A2AA21FC2007F066FA14E01C483B
:1037200090F82F00032805D15CA2AA21FC2007F005
:103730005BFA09E0164890F82F00042804D159A23A
:10374000AA21FC2007F050FA10480078332805D150
:103750000F4991F8350013F011FB04E00C4991F882
:10376000350013F0BDFA514807F05CFF882007F0E0
:103770002DFF4FA2E621822007F036FA4DA2DA2172
:1037800040F2231007F030FA0EBD00003B0100208C
:10379000F0030020CFB5CDB3D3EFD1D4D1A1D4F174
:1037A0000000000053656C65637420737973746561
:1037B0006D206C616E677561676500004348494E16
:1037C00045534500454E474C49534800B1B3B9E213
:1037D000C1C1B6C8C9E8D6C3000000005365742053
:1037E0006272696768746E6573730000650100201A
:1037F00025640000C4EA2DD4C22DC8D50000000005
:10380000594541522D4D4F4E54482D4441590000C9
:10381000BDB5B5CDC1C1B6C8CAB1BCE40000000099
:10382000526564756365206272696768746E65735A
:1038300073000000B9D8B1D5000000004F46460023
:10384000B4A5C6C1C9E8D6C300000000546F7563B3
:10385000682070616E656C00B4F2BFAA00000000C1
:103860004F4E0000B2A8CCD8C2CAC9E8D6C30000E7
:1038700053656C6563742042617564207261746580
:10388000000000003936303020200000313932305D
:1038900030200000333834303020000035373630E7
:1038A00030200000313135323030000000FFFF00A1
:1038B000250000005300000010B545480078372867
:1038C00020D008DC32283DD0332868D0352809D0F4
:1038D00036287AD10EE05B281CD05C2822D05D28E7
:1038E00073D127E003F022F903F078FC0120394975
:1038F00008706AE003F01AF903F09AFA01203549DA
:10390000087062E003F012F903F07EFE01203149F5
:1039100008705AE003F00AF900F022F901202D495D
:10392000087052E003F002F900F090F901202949F3
:1039300008704AE003F0FAF803F03CF90120254949
:10394000087042E003F0F2F8234807F06BFE002015
:1039500007F03CFE21A21E2140F2BD1007F044F901
:1039600020A2962140F2BD1007F03EF91FA24FF4AD
:103970008C7140F2BD1007F037F91EA240F295118C
:1039800040F2BD1007F030F91CA240F20D2140F2C8
:10399000BD1007F029F901200E49087015E01948FB
:1039A000FCF761FC184981F83500084690F83500AD
:1039B000FF2802DDFF2081F83500134991F835001A
:1039C00013F0DCF90BF04EFB00BF00BF10BD000090
:1039D0003B0100203E01002000FFFF00393630305F
:1039E000000000003139323030000000333834300C
:1039F00030000000353736303000000031313532CC
:103A0000303000003C0B0020F003002010B50446CD
:103A10004C48007809287DD04A4800780B28FAD015
:103A20004948007849490978884206D148480078D1
:103A3000A0420DD04448007850B98821084607F0CC
:103A4000CBFD172332220A214FF4E27007F074FAFB
:103A50003D48007800286AD100EE104AB8EE400ACE
:103A6000DFED3C0A80EE201A3B4880ED001A8821E9
:103A70006FF07F4007F0B0FD1E234FF4E2720A2181
:103A8000104607F01FFB0A234FF4F67219464FF455
:103A9000E27007F017FB1E234FF4F67219464FF43D
:103AA000E27007F00FFB0F234FF4F6720A21104665
:103AB00007F008FB0F2340F2F1121946501F07F0E0
:103AC00001FB192340F2F1120F21104607F0FAFA18
:103AD000192340F2F1121946501F07F0F3FA1E2382
:103AE0004FF4F6721921104607F0ECFA002C18DD9D
:103AF00088214FF47F4007F06FFD174890ED000AD2
:103B0000DFED160A20EE200ABDEEC00A10EE100A04
:103B100082B200E014E011230C214FF4E37007F0AF
:103B20000BFA0020094908700948047008E00648AB
:103B30000078802804D100F049F8802003490870FB
:103B400010BD00003A010020600000208400002029
:103B5000850000200000C8428000002000001442C0
:103B600000B5144807F05EFD002007F02FFD12A2FB
:103B700023214FF4E17007F037F810A2A5214FF48C
:103B8000E17007F031F80EA240F225114FF4E17018
:103B900007F02AF80BA24FF4D2714FF4E17007F04E
:103BA00023F809A24FF409714FF4E17007F01CF8F3
:103BB00000BD000000FFFF00313000003235000082
:103BC00035300000373500003130300010B5882125
:103BD0006FF07F4007F000FD0D234FF4F7720A21CC
:103BE000104607F06FFA0D234FF4F9720A211046C0
:103BF00007F068FA0F2340F2F512194640F2EB1075
:103C000007F060FA0723092210214FF4F67007F03D
:103C100093F9172340F2F3121946901F07F052FA56
:103C200018234FF4F9721946101F07F04BFA1923A5
:103C300040F2F1121946901E07F044FA20234FF487
:103C4000F8721A21104607F03DFA10BD00B52C4855
:103C500090F8300038BB2B4807F0E4FC002007F058
:103C6000B5FC29A223214FF4E17006F0BDFF28A284
:103C7000A5214FF4E17006F0B7FF26A240F225110E
:103C80004FF4E17006F0B0FF23A24FF4D2714FF46D
:103C9000E17006F0A9FF21A24FF409714FF4E17021
:103CA00006F0A2FF2BE0164890F83000012826D13C
:103CB000144807F0B7FC002007F088FC18A2232165
:103CC0004FF4E17006F090FF11A2A5214FF4E170CE
:103CD00006F08AFF0FA240F225114FF4E17006F0C2
:103CE00083FF0DA24FF4D2714FF4E17006F07CFF18
:103CF0000AA24FF409714FF4E17006F075FF00BDA0
:103D0000F003002000FFFF00B9D8B1D5000000008B
:103D10003500000031300000313500003330000044
:103D20004F46460010B504468821084607F054FC6B
:103D300018234FF4C8724FF4D071032007F0FCF839
:103D4000882007F043FC6FF07F4007F06BFC2246B1
:103D500003214FF4D070FEF723F910BD10B50446CF
:103D600002F0E4FE4FF2902007F05CFC002007F028
:103D70002DFC954890F83000D8B9012C07D193A2BA
:103D80004FF404714FF4E17006F02EFF2CE0022C8A
:103D900007D190A24FF404714FF4E17006F024FFB4
:103DA00022E08EA24FF404714FF4E17006F01CFF84
:103DB0001AE0012C07D18BA24FF402714FF4E1708D
:103DC00006F012FF10E0022C07D188A24FF4027116
:103DD0004FF4E17006F008FF06E086A24FF402718E
:103DE0004FF4E17006F000FF012C1AD183A22321C9
:103DF0004FF4E17006F0F8FE82A299214FF4E170D1
:103E000006F0F2FE81A24FF491714FF4E17006F0DA
:103E1000EBFE80A24FF4D2714FF4E17006F0E4FEA5
:103E2000D1E0022C13D17DA223214FF4E17006F0E2
:103E3000DBFE7CA299214FF4E17006F0D5FE7BA257
:103E40004FF496714FF4E17006F0CEFEBBE00B2C00
:103E50001AD177A20A214FF4E17006F0C5FE75A2CF
:103E600099214FF4E17006F0BFFE73A240F21311E6
:103E70004FF4E17006F0B8FE70A24FF4D2714FF427
:103E8000E17006F0B1FE9EE00C2C1AD16CA20A2162
:103E90004FF4E17006F0A8FE6AA299214FF4E17098
:103EA00006F0A2FE68A240F213114FF4E17006F092
:103EB0009BFE66A24FF4D2714FF4E17006F094FEBF
:103EC00081E00D2C1AD162A20A214FF4E17006F0B4
:103ED0008BFE60A299214FF4E17006F085FE5EA290
:103EE00040F213114FF4E17006F07EFE5BA24FF436
:103EF000D2714FF4E17006F077FE64E00E2C1AD117
:103F000057A20A214FF4E17006F06EFE55A29921E6
:103F10004FF4E17006F068FE53A240F213114FF423
:103F2000E17006F061FE51A24FF4D2714FF4E170DE
:103F300006F05AFE47E0152C1AD14DA20A214FF483
:103F4000E17006F051FE4BA299214FF4E17006F0AA
:103F50004BFE49A240F213114FF4E17006F044FE0B
:103F600046A24FF4D2714FF4E17006F03DFE2AE014
:103F7000162C1AD142A20A214FF4E17006F034FE49
:103F800040A299214FF4E17006F02EFE3EA240F2CD
:103F900013114FF4E17006F027FE3CA24FF4D271EA
:103FA0004FF4E17006F020FE0DE0172C0BD138A283
:103FB0000A214FF4E17006F017FE36A299214FF462
:103FC000E17006F011FE10BDF0030020CFC2D2BB9D
:103FD000D2B30000C9CFD2BBD2B30000B7B5BBD8B3
:103FE000000000004E657874000000004C6173749E
:103FF000000000004261636B000000004144434444
:10400000000000004546474800000000494A4B4C6C
:10401000000000004D4E4F5000000000515253541C
:10402000000000005556575800000000595A000083
:104030004100000042000000430000004400000076
:104040004500000046000000470000004800000056
:10405000490000004A0000004B0000004C00000036
:104060004D0000004E0000004F0000005000000016
:1040700051000000520000005300000054000000F6
:1040800055000000560000005700000058000000D6
:10409000590000005A00000003B583B00021FE481B
:1040A00007F09AFA00232922DDE9030106F094FFC4
:1040B0000498401E80B202900398401E80B20023F4
:1040C0002C220190029906F087FF0498801E80B28E
:1040D00002900398401E80B200232E220190029984
:1040E00006F07AFF0498C01E80B200232E220146FB
:1040F0000290039806F070FF0498001F80B20290AF
:104100000398801C80B200232E220190029906F0B1
:1041100063FF0498401F80B202900398233080B25E
:1041200000230E220190029906F056FF0498801F8A
:1041300080B202900398233080B200230F220190B6
:10414000029906F049FF0498C01F80B202900398BC
:10415000233080B200230F220190029906F03CFF29
:104160000498083880B202900398243080B200236B
:104170000E220190029906F02FFF0498093880B2B0
:1041800002900398243080B200230F2201900299FC
:1041900006F022FF04980A3880B202900398253076
:1041A00080B200230E220190029906F015FF0498B8
:1041B0000B3880B202900398253080B200230E2283
:1041C0000190029906F008FF04980C3880B2029022
:1041D0000398253080B200230E220190029906F048
:1041E000FBFE04980D3880B202900398263080B20E
:1041F00000230E220190029906F0EEFE04980E387C
:1042000080B202900398253080B200230F220190E3
:10421000029906F0E1FE04980F3880B202900398EC
:10422000263080B200230E220190029906F0D4FEBF
:104230000498103880B202900398263080B2002390
:104240000E220190029906F0C7FE0498113880B240
:1042500002900398263080B200230F220190029929
:1042600006F0BAFE0498123880B202900398273004
:1042700080B200230E220190029906F0ADFE049850
:10428000133880B202900398273080B200230E22A8
:104290000190029906F0A0FE0498143880B20290B2
:1042A0000398273080B200230F220190029906F074
:1042B00093FE0498153880B202900398283080B29B
:1042C00000230E220190029906F086FE049816380B
:1042D00080B202900398283080B200230E22019011
:1042E000029906F079FE0498173880B2029003987C
:1042F000283080B200230E220190029906F06CFE55
:104300000498183880B202900398283080B20023B5
:104310000E220190029906F05FFE0498193880B2CF
:1043200002900398293080B200230D220190029957
:1043300006F052FE04981A3880B202900398293091
:1043400080B200230E220190029906F045FE0498E7
:104350001B3880B202900398293080B200230E22CD
:104360000190029906F038FE04981C3880B2029041
:1043700003982A3080B200230E220190029906F0A1
:104380002BFE04981D3880B2029003982A3080B228
:1043900000230E220190029906F01EFE04981E389A
:1043A00080B2029003982A3080B200230E2201903E
:1043B000029906F011FE04981F3880B2029003980B
:1043C0002A3080B200230F220190029906F004FEE9
:1043D0000498203880B2029003982A3080B20023DB
:1043E0000F220190029906F0F7FD0498213880B25F
:1043F000029003982B3080B200230D220190029985
:1044000006F0EAFD0498223880B2029003982B301F
:1044100080B200230E220190029906F0DDFD04987F
:10442000233880B2029003982C3080B200230D22F2
:104430000190029906F0D0FD0498243880B20290D1
:1044400003982C3080B200230E220190029906F0CE
:10445000C3FD0498253880B2029003982C3080B2B6
:1044600000230E220190029906F0B6FD049826382A
:1044700080B2029003982C3080B200230F2201906A
:10448000029906F0A9FD0498273880B2029003989B
:104490002C3080B2002301E00093FF000F22019036
:1044A000029906F099FD0498283880B2029003988A
:1044B0002D3080B200230E220190029906F08CFD6F
:1044C0000498293880B2029003982D3080B20023DE
:1044D0000E220190029906F07FFD04982A3880B2DE
:1044E000029003982D3080B200230F220190029990
:1044F00006F072FD04982B3880B2029003982D309C
:1045000080B200230F220190029906F065FD049805
:104510002C3880B2029003982E3080B200230E22F5
:104520000190029906F058FD04982D3880B202904F
:1045300003982E3080B200230E220190029906F0DB
:104540004BFD04982E3880B2029003982E3080B232
:1045500000230F220190029906F03EFD04982F38A7
:1045600080B2029003982F3080B200230E22019077
:10457000029906F031FD0498303880B20290039819
:104580002F3080B200230E220190029906F024FD04
:104590000498313880B2029003982F3080B2002303
:1045A0000F220190029906F017FD0498323880B26C
:1045B000029003982F3080B200230F2201900299BD
:1045C00006F00AFD0498333880B202900398303028
:1045D00080B200230E220190029906F0FDFC04989F
:1045E000343880B202900398303080B200230E221B
:1045F0000190029906F0F0FC0498353880B20290E0
:104600000398303080B200230E220190029906F008
:10461000E3FC0498363880B202900398313080B2BF
:1046200000230D220190029906F0D6FC0498373839
:1046300080B202900398313080B200230E220190A4
:10464000029906F0C9FC0498363880B202900398AB
:10465000483080B203230C220190029906F06CFCD2
:104660000498343880B202900398473080B2002317
:104670000D220190029906F0AFFC0498333880B205
:1046800002900398473080B204230C2201900299D3
:1046900006F052FC04982F3880B2029003984630FE
:1046A00080B203230C220190029906F045FC049885
:1046B000283880B202900398443080B200230E2242
:1046C0000190029906F088FC0498273880B2029085
:1046D0000398453080B200230D220190029906F024
:1046E0007BFC0498263880B202900398443080B254
:1046F00000230D220190029906F06EFC04982538E3
:1047000080B202900398443080B200230C220190C2
:10471000029906F061FC0498243880B20290039854
:10472000433080B203230D220190029906F004FC6D
:104730000498213880B202900398433080B200235D
:104740000C220190029906F047FC0498203880B2B0
:1047500002900398423080B203230D220190029907
:1047600006F0EAFB04981D3880B2029003984230AC
:1047700080B200230C220190029906F02DFC0498CF
:104780001C3880B202900398413080B202230D227F
:104790000190029906F0D0FB04981A3880B202907A
:1047A0000398413080B200230C220190029906F058
:1047B00013FC0498193880B202900398403080B2FC
:1047C00003230D220190029906F0B6FB04981638D7
:1047D00080B2029003983F3080B200230E220190F5
:1047E000029906F0F9FB0498153880B202900398FC
:1047F0003F3080B202230D220190029906F09CFB0B
:104800000498133880B2029003983F3080B202239C
:104810000C220190029906F08FFB0498113880B2A7
:10482000029003983E3080B200230D22019002993D
:1048300006F0D2FB0498103880B2029003983E3004
:1048400080B202230C220190029906F075FB0498B5
:104850000E3880B2029003983D3080B203230D22BF
:104860000190029906F068FB04980B3880B2029020
:1048700003983D3080B200230C220190029906F08B
:10488000ABFB04980A3880B2029003983C3080B2A7
:1048900003230D220190029906F04EFB0498C01FDD
:1048A00080B2029003983B3080B202230D22019027
:1048B000029906F041FB0498401F80B202900398D1
:1048C0003A3080B202230D220190029906F034FBA7
:1048D0000498C01E80B2029003983A3080B2002340
:1048E0000E220190029906F077FB0498801E80B298
:1048F000029003983A3080B202230D22019002996F
:1049000006F01AFB03983A3080B200230C22029082
:10491000049906F061FB0498283880B2029003984D
:10492000583080B2002317220190029906F054FB00
:104930000498273880B202900398553080B2002343
:104940001B220190029906F047FB0498263880B29A
:1049500002900398543080B200231E2201900299E5
:1049600006F03AFB0498253880B202900398533041
:1049700080B2002320220190029906F02DFB0498BA
:10498000243880B202900398533080B2002303226F
:104990000190029906F020FB0498243880B202901E
:1049A0000398683080B200230C220190029906F02F
:1049B00013FB0498233880B202900398533080B2DE
:1049C000002301220190029906F006FB0498233887
:1049D00080B202900398683080B200230C220190CC
:1049E000029906F0F9FA0498223880B202900398EE
:1049F000683080B203230C220190029906F09CFAE1
:104A000004981F3880B202900398673080B2032365
:104A10000D220190029906F08FFA04981C3880B29A
:104A200002900398663080B200230D220190029913
:104A300006F0D2FA04981B3880B2029003986730CF
:104A400080B200230C220190029906F0C5FA049866
:104A50001A3880B202900398663080B200230D228B
:104A60000190029906F0B8FA0498193880B20290C1
:104A70000398653080B202230D220190029906F05E
:104A80005BFA0498173880B202900398653080B2C0
:104A900002230C220190029906F04EFA0498153870
:104AA00080B202900398643080B203230D220190FB
:104AB000029906F041FA0498123880B202900398E5
:104AC000633080B203230D220190029906F034FA7C
:104AD00004980F3880B202900398633080B20023AC
:104AE0000C220190029906F077FA04980E3880B2F1
:104AF00002900398623080B203230D220190029944
:104B000006F01AFA04980B3880B2029003986230CB
:104B100080B200230C220190029906F05DFA0498FD
:104B20000A3880B202900398613080B200230D22CF
:104B30000190029906F050FA0498093880B2029068
:104B40000398613080B204230C220190029906F090
:104B5000F3F90498401F80B202900398603080B24D
:104B600003230C220190029906F0E6F90498801EB6
:104B700080B2029003985F3080B203230D2201902F
:104B8000029906F0D9F90498383880B20290039857
:104B90007F3080B200230C220190029906F01CFAAB
:104BA0000498373880B2029003987E3080B2032395
:104BB0000D220190029906F0BFF90498343880B2B2
:104BC000029003987E3080B202230C220190029959
:104BD00006F0B2F90498323880B2029003987D3022
:104BE00080B202230C220190029906F0A5F90498E4
:104BF000303880B2029003987C3080B200230D22BE
:104C00000190029906F0E8F904982F3880B20290DA
:104C100003987C3080B200230C220190029906F0A8
:104C2000DBF904982E3880B2029003987C3080B271
:104C300000230D220190029906F0CEF904982D3838
:104C400080B2029003987C3080B200230C22019045
:104C5000029906F0C1F904982C3880B202900398AA
:104C60007B3080B202230D220190029906F064F994
:104C700004982A3880B2029003987B3080B20323D4
:104C80000C220190029906F057F90498293880B255
:104C900002900398993080B200230C22019002996F
:104CA00006F09AF90498283880B202900398973059
:104CB00080B200230D220190029906F08DF904982C
:104CC000273880B2029003987A3080B200230D22F8
:104CD0000190029906F080F90498273880B202907A
:104CE0000398963080B200230C220190029906F0BE
:104CF00073F90498263880B2029003987A3080B213
:104D000002230C220190029906F016F90498263825
:104D100080B202900398943080B200230D2201905B
:104D2000029906F059F90498253880B20290039848
:104D3000933080B200230C220190029906F04CF9C6
:104D40000498243880B202900398793080B203230B
:104D50000D220190029906F0EFF80498243880B2F1
:104D600002900398923080B200230C2201900299A5
:104D700006F032F90498233880B2029003989130FB
:104D800080B200230B220190029906F025F90498C5
:104D9000223880B2029003988F3080B200230C2218
:104DA0000190029906F018F90498213880B2029017
:104DB0000398783080B200230D220190029906F00A
:104DC0000BF90498213880B2029003988D3080B29C
:104DD00000230D220190029906F0FEF80498203875
:104DE00080B202900398793080B200230C220190A7
:104DF000029906F0F1F80498203880B202900398E6
:104E00008C3080B200230C220190029906F0E4F865
:104E100004981F3880B202900398783080B2002343
:104E20000D220190029906F0D7F804981F3880B23D
:104E3000029003988A3080B200230D2201900299DB
:104E400006F0CAF804981E3880B2029003987830B1
:104E500080B200230C220190029906F0BDF804985C
:104E60001E3880B202900398893080B200230D2250
:104E70000190029906F0B0F804981D3880B20290B3
:104E80000398773080B200230D220190029906F03A
:104E9000A3F804981D3880B202900398873080B23E
:104EA00000230F220190029906F096F804981C380E
:104EB00080B202900398773080B200230C220190D8
:104EC000029906F089F804981C3880B20290039881
:104ED000863080B2002310220190029906F07CF8FF
:104EE00004981B3880B202900398773080B2002378
:104EF0001F220190029906F06FF804981A3880B2C8
:104F000002900398763080B200231F22019002990C
:104F100006F062F80498193880B20290039876304F
:104F200080B2002320220190029906F055F80498DF
:104F3000183880B202900398763080B20023202285
:104F40000190029906F048F80498173880B2029050
:104F50000398753080B2002321220190029906F057
:104F60003BF80498163880B202900398763080B2ED
:104F7000002313220190029906F02EF804981638A7
:104F800080B2029003988A3080B200230C220190F4
:104F9000029906F021F80498153880B2029003981F
:104FA000753080B2002313220190029906F014F8A4
:104FB0000498153880B2029003988A3080B200239A
:104FC0000C220190029906F007F80498143880B278
:104FD00002900398753080B200231222019002994A
:104FE00005F0FAFF0498143880B2029003988A30D2
:104FF00080B200230D220190029905F0EDFF049884
:10500000133880B202900398743080B200231122CA
:105010000190029905F0E0FF0498133880B20290E5
:1050200003988A3080B200230D220190029905F086
:10503000D3FF0498123880B202900398743080B283
:10504000002310220190029905F0C6FF049812383F
:1050500080B2029003988A3080B200230E22019021
:10506000029905F0B9FF0498113880B202900398B4
:10507000743080B200230E220190029905F0ACFF3B
:105080000498113880B2029003988A3080B20023CD
:105090000E220190029905F09FFF0498103880B20B
:1050A00002900398743080B200230D22019002997F
:1050B00005F092FF0498103880B2029003988A306D
:1050C00080B200230E220190029905F085FF04981A
:1050D0000F3880B202900398733080B203230D2200
:1050E0000190029905F028FF04980C3880B20290D4
:1050F0000398733080B200230C220190029905F0CE
:105100006BFF04980B3880B202900398723080B223
:1051100003230D220190029905F00EFF0498083830
:1051200080B202900398723080B200230C2201906A
:10513000029905F051FF0498C01F80B202900398B5
:10514000713080B203230D220190029905F0F4FE24
:105150000498001F80B202900398703080B2002340
:105160000E220190029905F037FF0498C01E80B20C
:1051700002900398703080B203230D2201900299AF
:1051800005F0DAFE0398703080B200230C22029002
:10519000049905F021FF04980F3880B2029003981B
:1051A0008B3080B203230D220190029905F0C4FEDA
:1051B00004980C3880B2029003988B3080B202239E
:1051C0000E220190029905F0B7FE04980A3880B2C9
:1051D000029003988C3080B203230D220190029933
:1051E00005F0AAFE0498C01F80B2029003988C308C
:1051F00080B203230E220190029905F09DFE0498CF
:10520000001F80B2029003988C3080B202230F22DC
:105210000190029905F090FE0498801E80B20290E1
:1052200003988D3080B200230E220190029905F080
:10523000D3FE0498401E80B2029003988F3080B253
:1052400000230C220190029905F0C6FE03989130CC
:1052500080B200230A220290049905F0BDFE049852
:10526000293880B202900398AD3080B20023232207
:105270000190029905F0B0FE0498283880B202909F
:105280000398AB3080B2002327220190029905F0E9
:10529000A3FE0498273880B202900398A93080B208
:1052A000002329220190029905F096FE04982638E1
:1052B00080B202900398A83080B200232B22019084
:1052C000029905F089FE0498253880B2029003986F
:1052D000A73080B200230D220190029905F07CFED8
:1052E0000498253880B202900398C63080B200231B
:1052F0000D220190029905F06FFE0498243880B2C7
:1053000002900398A63080B200230D2201900299EA
:1053100005F062FE0498243880B202900398C730EA
:1053200080B200230D220190029905F055FE0498E9
:10533000233880B202900398A63080B200230C225A
:105340000190029905F048FE0498233880B202903B
:105350000398C63080B200230E220190029905F016
:105360003BFE0498223880B202900398A53080B2A8
:1053700000230D220190029905F02EFE0498223898
:1053800080B202900398C63080B200230E220190B2
:10539000029905F021FE0498213880B2029003980A
:1053A000A53080B200230D220190029905F014FE71
:1053B0000498213880B202900398C63080B200234E
:1053C0000D220190029905F007FE0498203880B262
:1053D00002900398A53080B200230D22019002991B
:1053E00005F0FAFD0498203880B202900398C63088
:1053F00080B200230D220190029905F0EDFD049882
:105400001F3880B202900398A43080B202230E228B
:105410000190029905F090FD04981F3880B2029027
:105420000398C53080B202230E220190029905F044
:1054300083FD04981D3880B202900398A43080B296
:1054400000230D220190029905F0C6FD04981D3835
:1054500080B202900398C53080B200230D220190E3
:10546000029905F0B9FD04981C3880B202900398A7
:10547000A33080B202230E220190029905F05CFD58
:1054800004981C3880B202900398C43080B2022382
:105490000E220190029905F04FFD04981A3880B24F
:1054A00002900398A33080B200230D22019002994C
:1054B00005F092FD04981A3880B202900398C43027
:1054C00080B200230D220190029905F085FD049819
:1054D000193880B202900398A23080B200230E22C5
:1054E0000190029905F078FD0498193880B2029075
:1054F0000398C43080B200230D220190029905F078
:105500006BFD0498193880B202900398A23080B2E3
:1055100000230D220190029905F05EFD04981938D0
:1055200080B202900398C33080B200230E22019013
:10553000029905F051FD0498183880B20290039842
:10554000A23080B200230E220190029905F044FDA2
:105550000498183880B202900398C33080B20023B8
:105560000D220190029905F037FD0498173880B29A
:1055700002900398A23080B200230D22019002997C
:1055800005F02AFD0498173880B202900398C330C2
:1055900080B200230D220190029905F01DFD0498B0
:1055A000163880B202900398A13080B200230E22F8
:1055B0000190029905F010FD0498163880B202900F
:1055C0000398C23080B200230E220190029905F0A8
:1055D00003FD0498153880B202900398A13080B280
:1055E00000230E220190029905F0F6FC049815386C
:1055F00080B202900398C23080B200230E22019044
:10560000029905F0E9FC0498143880B202900398DE
:10561000A13080B200230D220190029905F0DCFC3C
:105620000498143880B202900398C23080B20023EC
:105630000D220190029905F0CFFC0498133880B236
:1056400002900398A03080B200230E2201900299AC
:1056500005F0C2FC0498133880B202900398C2305F
:1056600080B200230D220190029905F0B5FC049848
:10567000123880B202900398A03080B200230E222C
:105680000190029905F0A8FC0498123880B20290AB
:105690000398C13080B200230E220190029905F0D8
:1056A0009BFC0498113880B202900398A03080B21D
:1056B00000230D220190029905F08EFC0498113808
:1056C00080B202900398C13080B200230E22019074
:1056D000029905F081FC0498103880B2029003987A
:1056E0009F3080B200230E220190029905F074FCD5
:1056F0000498103880B202900398C13080B2002321
:105700000E220190029905F067FC04980F3880B2D0
:1057100002900398A03080B200230D2201900299DC
:1057200005F05AFC04980F3880B202900398C130FB
:1057300080B200230D220190029905F04DFC0498DF
:105740000E3880B2029003989F3080B204230D225D
:105750000190029905F0F0FB04980E3880B2029097
:105760000398C03080B200230E220190029905F008
:1057700033FC04980D3880B202900398C03080B298
:1057800003230D220190029905F0D6FB04980A38F4
:1057900080B2029003989F3080B203230C220190C4
:1057A000029905F0C9FB04980A3880B20290039868
:1057B000BF3080B202230D220190029905F0BCFB9C
:1057C0000498083880B202900398BE3080B200235B
:1057D0000D220190029905F0FFFB0498C01F80B2D2
:1057E000029003989F3080B200230E22019002990C
:1057F00005F0F2FB0498C01F80B202900398BC3001
:1058000080B200230E220190029905F0E5FB049876
:10581000801F80B2029003989F3080B200232B2219
:105820000190029905F0D8FB0498401F80B20290C5
:105830000398A03080B2002329220190029905F03C
:10584000CBFB0498001F80B202900398A13080B275
:10585000002327220190029905F0BEFB0498C01E88
:1058600080B202900398A23080B2002324220190DB
:10587000029905F0B1FB0498801E80B20290039853
:10588000A33080B2002322220190029905F0A4FBEC
:105890000498401E80B202900398A43080B2002386
:1058A00020220190029905F097FB0498243880B2D9
:1058B00002900398E03080B20023122201900299F6
:1058C00005F08AFB0498233880B202900398DF30F9
:1058D00080B2002316220190029905F07DFB049806
:1058E000223880B202900398DE3080B20023182262
:1058F0000190029905F070FB0498213880B2029063
:105900000398DD3080B2002319220190029905F03E
:1059100063FB0498203880B202900398DD3080B297
:10592000002309220190029905F056FB04982038C3
:1059300080B202900398EE3080B2002308220190DA
:10594000029905F049FB04981F3880B20290039831
:10595000DC3080B2002309220190029905F03CFB63
:1059600004981F3880B202900398EE3080B2002372
:1059700009220190029905F02FFB04981E3880B28D
:1059800002900398DB3080B2002309220190029933
:1059900005F022FB04981E3880B202900398EE3086
:1059A00080B2002309220190029905F015FB0498AA
:1059B0001D3880B202900398DA3080B200230922A9
:1059C0000190029905F008FB04981D3880B20290FE
:1059D0000398EF3080B2002308220190029905F06D
:1059E000FBFA04981C3880B202900398DA3080B237
:1059F000002308220190029905F0EEFA04981C3861
:105A000080B202900398EF3080B200230922019007
:105A1000029905F0E1FA04981B3880B202900398CD
:105A2000D93080B2002308220190029905F0D4FAFF
:105A300004981B3880B202900398E23080B20023B1
:105A400016220190029905F0C7FA04981A3880B21C
:105A500002900398D73080B200232122019002994E
:105A600005F0BAFA0498193880B202900398D6303B
:105A700080B2002323220190029905F0ADFA049828
:105A8000183880B202900398D53080B200230922E2
:105A90000190029905F0A0FA0498183880B202909B
:105AA0000398E33080B2002308220190029905F0A8
:105AB00093FA0498183880B202900398E83080B2C4
:105AC000002309220190029905F086FA04981738FC
:105AD00080B202900398D53080B200230822019052
